:10000000F5C1000023C2000021C200001FC2000091
:100010001DC200001BC2000019C2000017C2000070
:1000200015C2000013C2000011C200000FC2000080
:100030000DC200000BC2000009C2000031C7000061
:1000400005C2000003C2000001C20000FFC10000A1
:10005000FDC10000FBC10000F9C100000C94914BF0
:10006000F5C100000C94144F0C944A4FEFC10000EE
:10007000EDC10000EBC10000E9C10000E7C10000D4
:10008000E5C10000E3C10000E1C10000DFC10000E4
:10009000DDC10000DBC10000D9C10000D7C10000F4
:1000A000D5C10000D3C10000D1C10000CFC1000004
:1000B000CDC10000CBC10000C9C10000C7C1000014
:1000C000C5C10000C3C10000C1C10000BFC1000024
:1000D000BDC10000BBC10000B9C10000B7C1000034
:1000E000B5C100006E616E00696E660000407A1056
:1000F000F35A00A0724E18090010A5D4E80000E8D9
:100100007648170000E40B54020000CA9A3B000036
:1001100000E1F505000080969800000040420F00C5
:100120000000A08601000000102700000000E80386
:10013000000000006400000000000A000000000051
:100140000100000000002C76D888DC674F0823DF10
:10015000C1DFAE59E1B1B796E5E3E453C63AE651E3
:10016000997696E8E6C28426EB898C9B62ED407C0A
:100170006FFCEFBC9C9F40F2BAA56FA5F490055AA6
:100180002AF75C936B6CF9676DC11BFCE0E40D47CB
:10019000FEF520E6B500D0ED902E030094357705EE
:1001A0000080841E080000204E0A000000C80C33A6
:1001B0003333330F986E12831141EF8D2114893B35
:1001C000E65516CFFEE6DB18D1844B381BF77C1DB5
:1001D000901DA4BBE424203284725E228100C9F108
:1001E00024ECA1E53D27525475696E4F5320312E02
:1001F0003020666F722041726475696E6F20312EF7
:10020000382E31390A436F70797269676874202813
:10021000432920323031322D323032322050657451
:100220006572205672616E6B656E20286D61696C17
:10023000746F3A50657465725F5672616E6B656E6D
:10024000405961686F6F2E6465290A54686973208C
:100250006973206672656520736F66747761726575
:100260003B207365652074686520736F75726365E4
:1002700020666F7220636F7079696E6720636F6E9E
:10028000646974696F6E732E2054686572652069A5
:1002900073204E4F0A77617272616E74793B206EE3
:1002A0006F74206576656E20666F72204D455243EF
:1002B00048414E544142494C495459206F7220469E
:1002C00049544E45535320464F52204120504152ED
:1002D000544943554C415220505552504F53452E8E
:1002E0000000000A0B02090C0D0E080703040100B0
:1002F00000000000000000000000000000000000FE
:1003000000000000000000000000000000121110BA
:1003100000000000000000000000000000000000DD
:10032000000000000000000102102020080810203A
:100330004010204080020102010804020101020471
:100340000810204080804020100804020180040230
:100350000180402010080402010804020101020487
:100360000810204080010204081020408005050587
:1003700005070508080808020202020A0A0808041C
:10038000040404010101010101010103030303034A
:10039000030303040707070C0C0C0C0C0C0C0C02D9
:1003A00002020206060606060606060B0B0B0B0BE0
:1003B0000B0B0B00002200250028002B002E003123
:1003C00000340002010000050108010B01000021BA
:1003D00000240027002A002D003000330001010016
:1003E00000040107010A0100AD3C734F11241FBE38
:1003F000CFEFD1E2DEBFCDBF00E00CBF18E0A0E040
:10040000B2E0E0E7FFEA00E00BBF02C007900D9208
:10041000AC38B107D9F723E1ACE8B8E001C01D92D0
:10042000AA3AB207E1F711E0C6EFD1E000E006C05A
:1004300021970109802FFE010E942C55C43FD1074E
:1004400080E00807A9F78ED30C94B657D9CD2F9228
:100450003F924F925F926F927F928F929F92AF9254
:10046000BF92CF92DF92EF92FF920F931F93CF93A1
:10047000DF93CDB7DEB72F970FB6F894DEBF0FBE70
:10048000CDBF6C011B015A01FC01178216828381CA
:100490009E012F5F3F4F490181FDD2C08FEF9FEF3B
:1004A000EEC2F12C512C00E0003238F48B3209F10D
:1004B00090F48032F9F0833209F107FD34C020ED69
:1004C000280F2A3020F506FF1BC0FAE0FF9E200D02
:1004D0001124F22E05C08D3279F0803371F701605E
:1004E000F10193FD859193FF81911F018111DCCF73
:1004F0001AC002600460F4CF0860F2CF0061F0CF50
:100500003AE0539E200D1124522E0062E9CF8E3224
:1005100021F406FDB1C20064E3CF8C3611F400680B
:10052000DFCF8836E9F29BEB980F933008F05FC07D
:100530000061805E06FD02C046E0F42E102F1F739E
:10054000853609F05BC0106417FF61C08F2D9BE3F7
:100550009F1508F48BE344244394480E27E03501AB
:10056000F4E06F0E711CF5016081718182819381CD
:10057000042DA4010E94A8555C01F981FC87F0FFBD
:1005800003C00DE2F3FF07C00BE211FD04C0012F11
:10059000047012FD00E22C852C70E22E09F46BC071
:1005A0000111D8C2F3E0E12CF515A0F483E0E52CAD
:1005B000E81A13FD08C0B60180E290E00E94B3562D
:1005C000EA94E110F8CF002329F0B601802F90E0E3
:1005D0000E94B3563C8524EEA22E20E0B22E33FDBD
:1005E00004C098EEA92E90E0B92E107122C09BE9AC
:1005F000980F933008F047C10F7E9CCF863611F4D8
:100600001068A2CFFF2009F49FCFFA949DCFE7E0B6
:100610002F2DEF1518F427E037E0F32E412C9FCF54
:1006200011118052B60190E00E94B3568FEFA81AC4
:10063000B80AF50184918111F3CFE11084C253010E
:10064000F6019381F10193FD859193FF81911F0143
:10065000882309F411C2853241F493FD859193FFFB
:1006600081911F01853209F01CCFB60190E00E94F4
:10067000B3563501E4CF17FF6FC04A0CFC85F4FF79
:1006800004C08A81813309F44A9414140CF086C0A2
:1006900028E0241510F488E0482E85E090E017FF4C
:1006A00006C0C501B7FE02C090E080E001960111CE
:1006B0000196FF2031F02F2D30E02F5F3F4F820F4A
:1006C000931F5816190619F014F0E52CE81A812F1B
:1006D000897011F4E11067C0002329F0B601802F62
:1006E00090E00E94B35613FD02C0E11063C017FFF3
:1006F0007CC08501B7FE02C010E000E0C50184198E
:1007000091092C016F2D70E0EE27FF27E61BF70BF8
:10071000FF87EE870F3F100729F4B6018EE290E0C5
:100720000E94B356A016B1060CF44BC040165106F9
:100730000CF047C0F501E01BF10BE80DF91D8181BC
:10074000015011092E853F8502171307E4F1B60108
:1007500090E00E94B356DECF16FD9FCFEF2DF0E064
:10076000EA15FB0534F03CEFA3163FEFB3060CF09F
:1007700010683296E80DF91D01C0FA94FF2019F0B7
:1007800082918033D1F317FF88CF442443944F0CD8
:10079000FA141B0431F02CF0FA187FCF4424439450
:1007A0007CCFF12C7ACFB60180E290E00E94B35664
:1007B000EA9490CFB60180E390E00E94B356EA94A9
:1007C00094CF80E3BDCFA016B10641F49A81963351
:1007D00050F4953319F43C8534FF05C0B60190E020
:1007E0000E94B3562ACF81E3F9CF8A81813319F071
:1007F0009C859F7E9C87B60190E00E94B356FF20A7
:10080000A9F0B6018EE290E00E94B356F394F394FF
:10081000E2E001E00E0FE80DF92DF11D8081B60137
:1008200090E00E94B356E02F0F11F3CF85E690E0E1
:1008300014FF02C085E490E0B6010E94B356B7FCF5
:1008400006C0A114B104C1F4EC85E4FF15C0B19455
:10085000A194B1088DE2B60190E00E94B35680E306
:100860002AE0A216B10454F4B60190E00E94B356F7
:10087000B601C501C096B4CF8BE2EDCF8F5FFAE031
:10088000AF1AB108EDCF8336C9F0833771F18335E4
:1008900009F05BC03501F2E06F0E711CF501A0801C
:1008A000B1806F2D70E006FD02C06FEF7FEFC501D4
:1008B0000E9480569D878C8700680DC0350132E00C
:1008C000630E711CF5018081898321E030E03D8752
:1008D0002C8754010F7703FD06C02C853D855216E9
:1008E000130609F0A8F4E52C2BC0350132E0630EA5
:1008F000711CF501A080B1806F2D70E006FD02C073
:100900006FEF7FEFC5010E94A8569D878C87E2CFCD
:10091000B60180E290E00E94B3565A94DECFF50112
:1009200007FD859107FF81915F01B60190E00E946C
:10093000B356E110EA948C859D8501979D878C873D
:10094000EC85FD85EF2B59F778CE843619F0893682
:1009500009F074C0350107FF66C0F4E06F0E711C2A
:10096000F5016081718182819381102F1F7697FF3D
:1009700008C090958095709561957F4F8F4F9F4FE0
:1009800010682AE030E0A4010E945257A82EA8184F
:10099000BA2C012F16FF0AC00E7FAF1438F414FFD3
:1009A00004C012FD02C0012F0E7EBF2C04FFA3C0A5
:1009B000FE01EA0DF11D8081803309F095C0097EAA
:1009C000F02FF870EF2E03FDA5C000FF9FC0FA2C9A
:1009D000B51410F4F50CFB1804FFA2C0B60180E3B7
:1009E00090E00E94B35602FF09C088E790E001FF43
:1009F00002C088E590E0B6010E94B356AF1408F437
:100A00009BC0AA940A2D10E00F5F1F4F080D191DFF
:100A1000F80182918F01B60190E00E94B3568016D2
:100A20009106B1F70ACEF2E06F0E711CF5016081FC
:100A30007181072E000C880B990B97CF102F8537EB
:100A4000A9F41F7E2AE030E0350117FF44C0F4E02E
:100A50006F0E711CF5016081718182819381A40107
:100A60000E945257A82EA8181F7792CF197F8F3651
:100A700079F1F0F4883539F1F601868197812F9666
:100A80000FB6F894DEBF0FBECDBFDF91CF911F919F
:100A90000F91FF90EF90DF90CF90BF90AF909F901D
:100AA0008F907F906F905F904F903F902F90089520
:100AB000803739F0883701F714FD146020E130E009
:100AC000C3CF1061F9CF04FD166020E132E0BCCF46
:100AD00028E030E0B9CFF2E06F0E711CF5016081C3
:100AE000718190E080E0BBCF02FD02C0B39468CF7B
:100AF000B394B39465CF802F867809F461CFF6CF95
:100B0000B60180E290E00E94B356B394B514C0F3EE
:100B1000E12C62CFE52CEB18B51408F45DCFF8CFCB
:100B2000802F867809F46ACF8BE201FF80E207FD0F
:100B30008DE2B60190E060CFB60180E390E00E94C4
:100B4000B356FA945BCFB60180E290E00E94B356B0
:100B5000EA9473CD24E0E12C251508F036CD84E02D
:100B600026CD08950E946E4CF6D490E080E0089562
:100B70004F925F926F927F928F929F92AF92BF92AD
:100B8000CF92DF92EF92FF921F93CF93DF9300D02B
:100B90001F92CDB7DEB70E94DB4B2B013C015C01FD
:100BA0004B0188EE880E83E0981EA11CB11C10E05A
:100BB0001F5F86E79EE30E94634C0E94DB4B6B0144
:100BC0007C01C814D904EA04FB0490F31034C0F586
:100BD0004601570184189508A608B70880E1189FB8
:100BE00060011124F12CE12CA8ECB0E0A7019601E2
:100BF0000E943A5586169706A806B90608F054C012
:100C0000C814D904EA04FB0408F050C0A5019401FB
:100C10000E94EE5488EC821B0F900F900F900F9063
:100C2000DF91CF911F91FF90EF90DF90CF90BF9019
:100C3000AF909F908F907F906F905F904F900895AE
:100C400078941F928EE78F938AE792E09F938F9319
:100C50000E94E35680E090E0A0E4B0E089839A83AC
:100C6000AB83BC8389819A81AB81BC810F900F904B
:100C70000F900F90892B8A2B8B2B99F089819A8169
:100C8000AB81BC810197A109B10989839A83AB83A8
:100C9000BC8389819A81AB81BC81892B8A2B8B2B68
:100CA00069F70C94000094CF88ECB6CF80E0B4CF05
:100CB000E0E7F0E080818160808308950F931F93C7
:100CC000CF93DF9300D01F92CDB7DEB730910602ED
:100CD0003F5F3093060220918C0880E050E041E0B5
:100CE0001BC065857685662770746A2B7B2B74879D
:100CF00063879285992391F123C005851685DB01D1
:100D0000A027B127BF73AB2B99F16023712366270E
:100D1000707C672B69F58F5F821708F050C0E82F51
:100D2000F0E0EE0FFF1FE357F74F0190F081E02D49
:100D3000A385B48595813917A1F29285992359F33A
:100D40009150928791110AC0058516850027107869
:100D500063857485602B712B7487638763857485C5
:100D60006A177B07C1F29785992339F2672B99F2AD
:100D7000A2816A2F70E08B010D56174FD8015C914C
:100D800091E0950F9C93DB01A50FB11DAA0FBB1F2E
:100D9000AA56B74FED93FC932150821770F4E82FB9
:100DA000F0E0EE0FFF1FE357F74F982F628173813A
:100DB000619371939F5F9217C8F3542FADCF209327
:100DC0008C0880E051110AC081700F900F900F9035
:100DD0000F90DF91CF911F910F9108958091950809
:100DE000811143C08091940881113CC08091930887
:100DF000F0E0E0E081113BC0789482E08F9389EDD0
:100E00008F9388EB92E09F938F930E94E35680E04C
:100E100090E0A0E4B0E089839A83AB83BC838981AE
:100E20009A81AB81BC810F900F900F900F90892B0E
:100E30008A2B8B2B99F089819A81AB81BC81019798
:100E4000A109B10989839A83AB83BC8389819A8183
:100E5000AB81BC81892B8A2B8B2B69F70C9400000A
:100E600080E0B2CFE1E0F0E002C0E2E0F0E04091EB
:100E700004025091050250939D0840939C08EE0F88
:100E8000FF1FEA56F74F20813181309305022093EE
:100E9000040281E04217530709F096CF80E094CF17
:100EA0000F920FB60F921F922F923F924F925F9226
:100EB0006F927F928F929F92AF92BF92CF92DF926A
:100EC000EF92FF920F931F932F933F934F935F9354
:100ED0006F937F93AF93BF93CF93DF93EF93FF9382
:100EE0008F939F931124EADE8823A1F1E0910402FD
:100EF000F0910502808191819093961380939513D0
:100F00000DB6009293130EB60092941300909513B1
:100F10000DBE009096130EBE809193139091941382
:100F2000E0919C08F0919D0891838083E0910402F8
:100F3000F091050283859485009761F09093961354
:100F40008093951314861386009095130F9200904A
:100F500096130F929F918F91FF91EF91DF91CF9117
:100F6000BF91AF917F916F915F914F913F912F9181
:100F70001F910F91FF90EF90DF90CF90BF90AF90B7
:100F80009F908F907F906F905F904F903F902F90A9
:100F90001F900F900FBE0F901895CF92DF92EF9297
:100FA000FF920F931F93CF93DF9300D000D01F9237
:100FB0001F92CDB7DEB77C01D62EC42E80910402DD
:100FC00090910502815D984009F484C0009104026B
:100FD00010910502F801428150E0FA01ED56F74FF9
:100FE00020812150208330E012161306DCF4A0E0AB
:100FF00090E080E0840F951FFC01EE0FFF1FE85684
:10100000F74F60817181880F991FFC01EA56F74FF5
:1010100071836083AF5F8A2F0A2E000C990B8217B1
:10102000930744F3E114F10461F0C7018827907C31
:101030008115904C31F0DD20C1F1C7019F73892BE0
:10104000A1F5789485E08F938CE48F9388EB92E000
:101050009F938F930E94E35680E090E0A0E4B0E07D
:1010600089839A83AB83BC8389819A81AB81BC815C
:101070000F900F900F900F90892B8A2B8B2B99F04C
:1010800089819A81AB81BC810197A109B1098983CA
:101090009A83AB83BC8389819A81AB81BC81892B84
:1010A0008A2B8B2B69F70C940000F6FE48C0F801E0
:1010B0008581C80EC58280910602C81A1C140CF4E2
:1010C00043C090899F3F11F09F5F908B8F5FF80125
:1010D00085833AC0789485E08F9382EF8F9388EB75
:1010E00092E09F938F930E94E35680E090E0A0E40B
:1010F000B0E08D839E83AF83B8878D819E81AF8161
:10110000B8850F900F900F900F90892B8A2B8B2B07
:1011100099F08D819E81AF81B8850197A109B109B0
:101120008D839E83AF83B8878D819E81AF81B88583
:10113000892B8A2B8B2B69F70C94000047CFFFEF8C
:10114000CF12C394F801C286F801F686E58681E0E5
:10115000D826D786E0918C088E0F80938C08F0E01B
:10116000EE0FFF1FE357F74F1183008380910402B6
:101170009091050290939D0880939C0881ED98E0E2
:1011800090930502809304028091950881111DC0FF
:1011900080919408811116C08091930881110FC02D
:1011A00028960FB6F894DEBF0FBECDBFDF91CF916A
:1011B0001F910F91FF90EF90DF90CF90089590E0F6
:1011C00080E005C081E090E002C082E090E0880FFE
:1011D000991FFC01EA56F74F808191819093050297
:1011E00080930402DDCFF8940F920FB60F921F92F6
:1011F0002F923F924F925F926F927F928F929F9227
:10120000AF92BF92CF92DF92EF92FF920F931F9314
:101210002F933F934F935F936F937F93AF93BF93BE
:10122000CF93DF93EF93FF93B8DEE0910402F09148
:1012300005028081918190939613809395130DB64A
:10124000009293130EB600929413009095130DBE66
:10125000009096130EBE8091931390919413E09199
:101260009C08F0919D0891838083E0910402F091A5
:10127000050283859485009761F09093961380937F
:10128000951314861386009095130F920090961371
:101290000F929F918F91FF91EF91DF91CF91BF912D
:1012A000AF917F916F915F914F913F912F911F91DE
:1012B0000F91FF90EF90DF90CF90BF90AF909F90F5
:1012C0008F907F906F905F904F903F902F901F90E6
:1012D0000F900FBE0F90189590E080E0611108C04C
:1012E00091E1899FF0011124E256F74F808908951A
:1012F000E82FF0E0F89421E12E9FC0012F9F900D80
:101300001124FC01E256F74F8089108A78940895E1
:1013100091E1899FF0011124E256F74FA681B78130
:101320008C91FD01893249F49D012F5F3F4FF901F6
:101330002F5F3F4F80818932D1F3CF018A1B9B0BF6
:1013400008958F929F92AF92CF92EF92FF920F9358
:101350001F93CF93DF9300D000D01F921F92CDB781
:10136000DEB7882E912C91E1899FF0011124E2567D
:10137000F74F748363833783268311870087428303
:10138000E114F104D1F081E1889DF001899DF00D17
:101390001124E256F74F12861582C7018827907CE8
:1013A0008115904C09F447C0CC2009F478C0C701DE
:1013B0009F73892B09F073C03EC0789487E08F93A8
:1013C00084E98F9388EB92E09F938F930E94E3567A
:1013D00080E090E0A0E4B0E08D839E83AF83B88787
:1013E0008D819E81AF81B8850F900F900F900F90E7
:1013F000892B8A2B8B2B99F08D819E81AF81B885AB
:101400000197A109B1098D839E83AF83B8878D8130
:101410009E81AF81B885892B8A2B8B2B69F70C9421
:10142000000081E1889DF001899DF00D1124E256B4
:10143000F74F12861582789485E08F938CE48F9312
:1014400088EB92E09F938F930E94E35680E090E0B8
:10145000A0E4B0E089839A83AB83BC8389819A81BD
:10146000AB81BC810F900F900F900F90892B8A2B2E
:101470008B2B99F089819A81AB81BC810197A1095D
:10148000B10989839A83AB83BC8389819A81AB81BB
:10149000BC81892B8A2B8B2B69F70C940000F6FEFC
:1014A00030C081E1889DF001899DF00D1124E25644
:1014B000F74F8581A80EA58280910602A81A1A14FA
:1014C00064F191E1989DF001999DF00D1124E2568F
:1014D000F74F90899F3F51F021E1289DF001299D10
:1014E000F00D1124E256F74F9F5F908B91E1989D8C
:1014F000F001999DF00D1124E256F74F8F5F85831F
:101500000CC02FEFA212A39481E1889DF001899D68
:10151000F00D1124E256F74FA28681E1889DF0017B
:10152000899DF00D1124E256F74FF686E58681E09D
:10153000C826C78628960FB6F894DEBF0FBECDBF6B
:10154000DF91CF911F910F91FF90EF90CF90AF90CF
:101550009F908F900895CF93DF9300D01F92CDB7C7
:10156000DEB7EEE9F8E084E4DF011D928A95E9F741
:101570000E94C0230F2EFEE9EF2EF8E0FF2EF02D83
:101580000F2EFDE8CF2EF8E0DF2EF02D0F2EF1ED1F
:101590002F2EF8E03F2EF02D0F2EF7E04F2EF02DDE
:1015A0000F2EF6EE5F2EF02D0F2EF8EB6F2EF2E0E1
:1015B0007F2EF02D812C912C54016894A6F850C0F8
:1015C0000C940000F8014381548126813781008406
:1015D000F185E02D3197E20FF31F1082DF011197A3
:1015E0001C9211971C9211974C93052E000C660BC0
:1015F000770B11975C9311976C9311971C9211972D
:1016000040E84C9311971C92AF0149505109CF010A
:101610004E971E92A817B907E1F7DF015E974B516D
:1016200051091E92A417B507E1F7CF0185978217DC
:10163000930730F0B497A9E2A2932E173F07D9F78A
:10164000F8019183808314861386108AD6010D9346
:101650001D936D01B1E1EB0EF11CE214F304D9F11D
:101660008701F70183819481892B49F086819781D5
:10167000892B29F080859185C29708F0A3CF7894B3
:101680004F925F927F926F920E94E35689829A8274
:10169000AB82BC8289819A81AB81BC810F900F9013
:1016A0000F900F90892B8A2B8B2B09F489CF89817E
:1016B0009A81AB81BC810197A109B10989839A8381
:1016C000AB83BC8389819A81AB81BC81892B8A2BB6
:1016D0008B2B69F775CF83E080938C08EEE9F8E0F7
:1016E00014AA13AA10AE15AE17AE16AE1092DF08EC
:1016F0001092DE0881E08093E0081092E108E3E9AF
:10170000F8E010821182128281ED98E09093050238
:101710008093040290939D0880939C08C9DA0E94EC
:101720000124FDCFCF93C82F8A3091F0E091F612BB
:10173000F091F7120190F081E02D6C2F86EF92E18D
:10174000199521E030E0019779F0C901CF91089512
:10175000E091F612F091F7120190F081E02D6DE02A
:1017600086EF92E11995E2CF30E020E0EECFAC01B8
:1017700070E060E026E086EF92E10E94B44EE2EE77
:10178000F8E0F093A713E093A61382E99BE091871A
:1017900080871386128682E08383158614860895D7
:1017A0000F931F93CF93DF93EC012196FC0184915B
:1017B000882379F004EA13E1F80162817381082E2D
:1017C000000C990B0E94B356FE0184912196811161
:1017D000F3CF6091A6137091A7138AE090E00E9466
:1017E000B35690E080E0DF91CF911F910F91089563
:1017F000EF92FF920F931F93CF93DF9300D01F922E
:10180000CDB7DEB78C01DC011396ED91FC911497F6
:10181000309799F0E680F780E114F104A1F0C80157
:10182000F70119950F900F900F900F90DF91CF91C6
:101830001F910F91FF90EF9008951196ED91FC91FB
:10184000E280F380E9CF789482E08F938DE28F93EA
:101850008CEE92E09F938F930E94E35680E090E09D
:10186000A0E4B0E089839A83AB83BC8389819A81A9
:10187000AB81BC810F900F900F900F90892B8A2B1A
:101880008B2B99F089819A81AB81BC810197A10949
:10189000B10989839A83AB83BC8389819A81AB81A7
:1018A000BC81892B8A2B8B2B69F70C940000B7CF56
:1018B0004F925F926F927F928F929F92AF92BF9260
:1018C000CF92DF92EF92FF920F931F93CF93DF930C
:1018D000CDB7DEB72C970FB6F894DEBF0FBECDBFE5
:1018E0003C01F62E4A012901DC011596AD90BC9011
:1018F000F501C084D184C114D10409F0DCC0A081F9
:10190000B181ED91FC9111976AE070E016968D918E
:101910009C9119956C01892B09F423C1D30111966F
:101920008D919C91F60191838083FF2009F41CC165
:10193000E11003C018141904BCF1789481E08F936E
:101940008EEE8F938CEE92E09F938F930E94E356DE
:1019500080E090E0A0E4B0E089879A87AB87BC87FD
:1019600089859A85AB85BC850F900F900F900F905D
:10197000892B8A2B8B2B99F089859A85AB85BC8521
:101980000197A109B10989879A87AB87BC878985A7
:101990009A85AB85BC85892B8A2B8B2B69F70C9498
:1019A0000000FF2009F4E3C0D5011A968D919C91A7
:1019B000881599050CF4C401F60193838283840C85
:1019C000951C181419040CF07DC0D5011C964D907F
:1019D0005C90840C951CF60195828482D601179642
:1019E0001C930E93169719961C921E921897F50148
:1019F00084819581892B09F472C00680F781E02DDE
:101A000080859185892BA1F1789482E08F9382E182
:101A10008F938CEE92E09F938F930E94E35680E029
:101A200090E0A0E4B0E089839A83AB83BC83898192
:101A30009A81AB81BC810F900F900F900F90892BF2
:101A40008A2B8B2B99F089819A81AB81BC8101977C
:101A5000A109B10989839A83AB83BC8389819A8167
:101A6000AB81BC81892B8A2B8B2B69F70C940000EE
:101A7000D5011696ED91FC911797D186C0861796E1
:101A8000DC92CE921697C6012C960FB6F894DEBF64
:101A90000FBECDBFDF91CF911F910F91FF90EF90BF
:101AA000DF90CF90BF90AF909F908F907F906F907E
:101AB0005F904F900895D60118968D919C919187D3
:101AC00080872CCF88248394912C7FCF90E080E076
:101AD0008114910409F050C08EEF9FEF4DC08681B4
:101AE0009781892BA1F1789482E08F938BE08F937B
:101AF0008CEE92E09F938F930E94E35680E090E0FB
:101B0000A0E4B0E08D839E83AF83B8878D819E81F2
:101B1000AF81B8850F900F900F900F90892B8A2B73
:101B20008B2B99F08D819E81AF81B8850197A1099A
:101B3000B1098D839E83AF83B8878D819E81AF81EC
:101B4000B885892B8A2B8B2B69F70C940000D50163
:101B50001796DC92CE9216971596DC92CE92149739
:101B600092CFD12CC12C8FCF18141904A4F48FEF6D
:101B70009FEFEE2009F4AACFD60113969C938E9383
:101B80001297F50184859585880E991E15969C926D
:101B90008E92149723CF8114910409F0CECEE110D8
:101BA000CCCE8EEF9FEFE8CF6F927F928F929F9275
:101BB000AF92BF92CF92DF92EF92FF920F931F935B
:101BC000CF93DF9300D01F92CDB7DEB74C017B01DE
:101BD0005A013901DC011D921C926115710509F44D
:101BE00065C0452B09F45FC0655F7F4F660F771FA7
:101BF000D801ED91FC91119716968D919C911995B4
:101C00006C01892B09F4A1C0B501660F771F6A0D1D
:101C10007B1D660F771FD801ED91FC9111971696E9
:101C20008D919C911995F60191878087892B09F4F4
:101C300088C06114710409F481C0B301660F771F75
:101C4000660D771D660F771FD801ED91FC911197F6
:101C500016968D919C911995F60197878687892B09
:101C600009F471C0F601F58AE48AB386A286718A06
:101C7000608A15861486138A128A88E0F801D601D4
:101C800001900D928A95E1F7F601769690E080E05A
:101C9000119211920196E816F906D1F7D401CD926E
:101CA000DC9281E038C0232B09F053C0789482E0A5
:101CB0008F9388EC8F938CEE92E09F938F930E948A
:101CC000E35680E090E0A0E4B0E089839A83AB83A0
:101CD000BC8389819A81AB81BC810F900F900F905A
:101CE0000F90892B8A2B8B2B99F089819A81AB815C
:101CF000BC810197A109B10989839A83AB83BC8315
:101D000089819A81AB81BC81892B8A2B8B2B69F7C6
:101D10000C94000080E00F900F900F900F90DF91D7
:101D2000CF911F910F91FF90EF90DF90CF90BF90D8
:101D3000AF909F908F907F906F9008951786168632
:101D400091CF80E0E8CF80E0E6CF80E0E4CF80E094
:101D5000E2CF655F7F4F660F771FD801ED91FC9151
:101D6000119716968D919C9119956C01892B79F399
:101D7000D60119961C921E9218975FCF4F925F92D0
:101D80006F927F928F929F92AF92BF92CF92DF928B
:101D9000EF92FF920F931F93CF93DF93CDB7DEB7F0
:101DA0002E970FB6F894DEBF0FBECDBF4C012A01AF
:101DB0003901A986BA86CB86DC86ED86FE861416A6
:101DC00015060CF06AC0DC0154968D919C91681741
:101DD000790708F062C00115110529F08B859C85F3
:101DE000892B09F45AC0660F771F7401E60EF71E9F
:101DF000F70186899789892B09F09BC06801CC0C73
:101E0000DD1CCC0CDD1CCC0CDD1CC01AD10AB601CB
:101E10006A5E7F4FD401ED91FC91119716968D91DA
:101E20009C911995009709F4BAC0FC0191828082B7
:101E300013821282158214821782168211861086EE
:101E4000538642861586148626E0FE013996DC010B
:101E50001E9601900D922A95E1F7DC0155961C9390
:101E60000E935497012BA1F09301AC014A5E5F4F92
:101E70006C0C7D1C67E0F901DA0101900D926A9506
:101E8000E1F7295F3F4F495F5F4F2615370591F70F
:101E9000F701978B868B81E035C0789483E08F9330
:101EA00080E68F938CEE92E09F938F930E94E3568F
:101EB00080E090E0A0E4B0E08D839E83AF83B8879C
:101EC0008D819E81AF81B8850F900F900F900F90FC
:101ED000892B8A2B8B2B99F08D819E81AF81B885C0
:101EE0000197A109B1098D839E83AF83B8878D8146
:101EF0009E81AF81B885892B8A2B8B2B69F70C9437
:101F0000000080E02E960FB6F894DEBF0FBECDBF66
:101F1000DF91CF911F910F91FF90EF90DF90CF90C5
:101F2000BF90AF909F908F907F906F905F904F90F9
:101F30000895789483E08F9388E68F938CEE92E0F7
:101F40009F938F930E94E35680E090E0A0E4B0E07E
:101F500089839A83AB83BC8389819A81AB81BC815D
:101F60000F900F900F900F90892B8A2B8B2B99F04D
:101F700089819A81AB81BC810197A109B1098983CB
:101F80009A83AB83BC8389819A81AB81BC81892B85
:101F90008A2B8B2B69F70C94000080E0B3CF80E094
:101FA000B1CF6F927F928F929F92AF92BF92CF925A
:101FB000DF92EF92FF920F931F93CF93DF93CDB7F2
:101FC000DEB761970FB6F894DEBF0FBECDBF6C01D0
:101FD000842F422FC114D10409F45CC001151105EE
:101FE00009F458C0D60154962D913C91559762172B
:101FF000730708F04FC0F601A484B58422853385A9
:10200000A216B30608F09DC0FB013B96EE0FFF1F22
:10201000EC0DFD1D6080718095012F5F3F4F1D9677
:102020003C932E931C974501880C991C8A0C9B1C91
:10203000880C991C18962D913C91820E931EF401E8
:1020400013830283F182E08275826482D3011E963B
:10205000ED91FC911F97309749F09501682F5296AA
:102060008D919C911995882309F461C08CEF898327
:102070009B828A821D821C827F826E828FEF9FEFFD
:10208000998788871B861A861D861C86CE01019635
:10209000AFDB37C0789483E08F938BED8F938CEE1A
:1020A00092E09F938F930E94E35680E090E0A0E43B
:1020B000B0E08E879F87A88BB98B8E859F85A88976
:1020C000B9890F900F900F900F90892B8A2B8B2B33
:1020D00099F08E859F85A889B9890197A109B109D1
:1020E0008E879F87A88BB98B8E859F85A889B98994
:1020F000892B8A2B8B2B69F70C940000AA24AA94B5
:10210000BA2CC50161960FB6F894DEBF0FBECDBFE5
:10211000DF91CF911F910F91FF90EF90DF90CF90C3
:10212000BF90AF909F908F907F906F900895F60131
:1021300084859585019795878487AA24AA94BA2CCB
:10214000E0CFAA24AA94BA2CDCCF0F931F93CF938D
:10215000DF93CDB7DEB761970FB6F894DEBF0FBE41
:10216000CDBFDC01892B09F451C04115510509F49B
:102170004DC054968D919C9155976817790708F03A
:1021800045C052960D911C91539750968D919C91FC
:1021900051970817190708F070C0C80101965396A7
:1021A0009C938E9352971E968D919C911F97F80148
:1021B000EE0FFF1FE80FF91F318320832DEF2983D6
:1021C000FB83EA831D821C82655F7F4F660F771F4A
:1021D000A60FB71F8D919C919F838E838FEF9FEFEA
:1021E000998788871B861A861D861C86CE010196D4
:1021F000FA011995C80161960FB6F894DEBF0FBEBB
:10220000CDBFDF91CF911F910F910895789484E015
:102210008F938BE58F938CEE92E09F938F930E9428
:10222000E35680E090E0A0E4B0E08E879F87A88B23
:10223000B98B8E859F85A889B9890F900F900F90D3
:102240000F90892B8A2B8B2B99F08E859F85A889DF
:10225000B9890197A109B1098E879F87A88BB98B8E
:102260008E859F85A889B989892B8A2B8B2B69F745
:102270000C9400000FEF1FEFBDCF0FEF1FEFBACF91
:102280002F923F924F925F926F927F928F929F9286
:10229000AF92BF92CF92DF92EF92FF920F931F9374
:1022A000CF93DF93CDB7DEB7A3970FB6F894DEBF19
:1022B0000FBECDBF3C018B01009739F0DC01549675
:1022C0008D919C9168177907A0F1789484E08F93A1
:1022D00083E98F938CEE92E09F938F930E94E35655
:1022E00080E090E0A0E4B0E08E8F9F8FA8A3B9A318
:1022F0008E8D9F8DA8A1B9A10F900F900F900F9078
:10230000892B8A2B8B2B99F08E8D9F8DA8A1B9A13B
:102310000197A109B1098E8F9F8FA8A3B9A38E8DB4
:102320009F8DA8A1B9A1892B8A2B8B2B69F70C94BF
:102330000000F8013B96EE0FFF1FE60DF71D008130
:10234000118101151105D9F08DE0FE013196DF01F3
:102350001D928A95E9F71F830E8388859985F80178
:10236000248935898217930708F01CC16894882452
:1023700082F8212C312C2101689446F8FAC0789417
:1023800084E08F9385E98F938CEE92E09F938F93F7
:102390000E94E35680E090E0A0E4B0E08A8F9B8F3B
:1023A000AC8FBD8F8A8D9B8DAC8DBD8D0F900F90A6
:1023B0000F900F90892B8A2B8B2B99F08A8D9B8DF8
:1023C000AC8DBD8D0197A109B1098A8F9B8FAC8F10
:1023D000BD8F8A8D9B8DAC8DBD8D892B8A2B8B2BD0
:1023E00069F70C940000B0CF02969D878C8756C089
:1023F00078948F92FCEBFF938CEE92E09F938F93F7
:102400000E94E3562E8A3F8A488E598E8E899F8974
:10241000A88DB98D0F900F900F900F90892B8A2B5C
:102420008B2B99F08E899F89A88DB98D0197A10971
:10243000B1098E8B9F8BA88FB98F8E899F89A88DAC
:10244000B98D892B8A2B8B2B69F70C9400003FC028
:10245000CE010196CDD902C00C940000D701ED91B8
:10246000FC91D6018D919C911995D501ED91FC912E
:10247000BE01665F7F4FD6018D919C911995DC015D
:10248000009709F46BC04C914983992009F4ACCFB3
:1024900012968D919C9113979D878C87F8010088E7
:1024A000F189E02D11962C91BE01625F7F4FD8011A
:1024B00052968D919C911995882381F2F301248580
:1024C00035858E859F858217930708F091CF2E85DD
:1024D0003F85C901880F991F820F931F880F991F8D
:1024E000F30120853185820F931F9B838A83DC0152
:1024F00014968D919C918017910709F4A9CF789437
:102500008F92BEECBF93ECEEF2E0FF93EF930E944C
:10251000E3562A8A3B8A4C8A5D8A8A899B89AC89E0
:10252000BD890F900F900F900F90892B8A2B8B2BCA
:1025300009F492CF8A899B89AC89BD890197A10949
:10254000B1098A8B9B8BAC8BBD8B8A899B89AC89AB
:10255000BD89892B8A2B8B2B69F77ECF888599853E
:10256000019699878887F80124893589821793070E
:10257000C8F4FC01EE0FFF1FEE0FFF1FEE0FFF1F51
:10258000E81BF90BE00FF11F948C7F016F01FAE15A
:10259000CF0ED11C570126E1A20EB11C88E1E80E36
:1025A000F11C63CFD8011296ED90FC906801B2E067
:1025B000CB0ED11CE114F10409F488C00F2EFEEFFC
:1025C0005F2EF02DAA24AA94BA2C0F2EFDEF6F2EA9
:1025D00077247A94F02D0F2EFEEF8F2E99249A9463
:1025E000F02D37C0D70118968D919C91F6019183FB
:1025F0008083D80118968D919C911997F701918746
:1026000080871996FC92EE921897D601ED90FC9077
:102610001CC0009779F4F8018485958514962D9156
:102620003C911597821B930B42F013969C928E92CD
:10263000129703C0019609F445C06701F8E0CF0E78
:10264000D11CD7011896ED90FC90E114F10409F427
:102650003DC0F701228133812D3FFFEF3F0711F28B
:10266000F80184859585D70114964D915C91841B62
:10267000950B1AF32E3F3F4F01F35982F7018081EA
:1026800091819B838A83FD82EC82B986A8861B8612
:102690001A861D861C86CE010196AAD8D7011296ED
:1026A0008D919C911397181619060CF0B2CF1496C1
:1026B0002D913C911597820F931F15969C938E93A5
:1026C0001497BBCFF70173826282B7CFF801848180
:1026D0009581892B09F443C0D6018D919C91892B5A
:1026E000A1F1789485E08F9387E48F938CEE92E04C
:1026F0009F938F930E94E35680E090E0A0E4B0E0C7
:102700008E879F87A88BB98B8E859F85A889B9896D
:102710000F900F900F900F90892B8A2B8B2B99F095
:102720008E859F85A889B9890197A109B1098E87EE
:102730009F87A88BB98B8E859F85A889B989892B9E
:102740008A2B8B2B69F70C940000F801848195810A
:10275000D6018D939C931782168215821482F801FC
:102760008485958522853385820F931F958784877D
:10277000A3960FB6F894DEBF0FBECDBFDF91CF9109
:102780001F910F91FF90EF90DF90CF90BF90AF908F
:102790009F908F907F906F905F904F903F902F9081
:1027A0000895EF920F931F93E12C8A0130E020E00F
:1027B000AB0161E07DD81F910F91EF900895EF92EA
:1027C0000F931F93E22E8A0130E020E0AB0160E01E
:1027D0006FD81F910F91EF900895EF92FF920F9392
:1027E0001F93CF93DF93CDB7DEB72C970FB6F89436
:1027F000DEBF0FBECDBF7C018B01672B09F442C049
:10280000F80182819381009709F4B2C08F3F980745
:1028100009F4BFC0029609F4AFC0789486E08F93A4
:102820008EE78F938CEE92E09F938F930E94E356F6
:1028300080E090E0A0E4B0E089879A87AB87BC870E
:1028400089859A85AB85BC850F900F900F900F906E
:10285000892B8A2B8B2B99F089859A85AB85BC8532
:102860000197A109B10989879A87AB87BC878985B8
:102870009A85AB85BC85892B8A2B8B2B69F70C94A9
:1028800000007AC0FC0180818E3F09F03CC0F70156
:10289000038114810115110509F0B2CF789482E00B
:1028A0008F938FE78F938CEE92E09F938F930E948C
:1028B000E35680E090E0A0E4B0E089839A83AB83A4
:1028C000BC8389819A81AB81BC810F900F900F905E
:1028D0000F90892B8A2B8B2B99F089819A81AB8160
:1028E000BC810197A109B10989839A83AB83BC8319
:1028F00089819A81AB81BC81892B8A2B8B2B69F7CB
:102900000C9400007DCF789482E08F938CE78F93B6
:102910008CEE92E09F938F930E94E35680E090E0CC
:10292000A0E4B0E08D839E83AF83B8878D819E81C4
:10293000AF81B8850F900F900F900F90892B8A2B45
:102940008B2B99F08D819E81AF81B8850197A1096C
:10295000B1098D839E83AF83B8878D819E81AF81BE
:10296000B885892B8A2B8B2B69F70C9400008FCFAD
:102970008EEF9FEF938382832C960FB6F894DEBF81
:102980000FBECDBFDF91CF911F910F91FF90EF90C0
:1029900008958DEF9FEFF80193838283EDCFAF927F
:1029A000BF92CF92DF92EF92FF920F931F93CF933C
:1029B000DF93CDB7DEB72C970FB6F894DEBF0FBE0E
:1029C000CDBF5C016B018A01FC01E580F680672BBD
:1029D00009F460C0141615065CF4F6018281938137
:1029E0009C012F5F3F4F22303105B0F10296A1F1DB
:1029F000789486E08F9386EB8F938CEE92E09F9392
:102A00008F930E94E35680E090E0A0E4B0E08987D5
:102A10009A87AB87BC8789859A85AB85BC850F90E3
:102A20000F900F900F90892B8A2B8B2B99F0898513
:102A30009A85AB85BC850197A109B10989879A87D9
:102A4000AB87BC8789859A85AB85BC85892B8A2B0A
:102A50008B2B69F70C940000F70184859585080F8E
:102A6000191FF6011583048382819381029609F46C
:102A700086C02C960FB6F894DEBF0FBECDBFDF9197
:102A8000CF911F910F91FF90EF90DF90CF90BF906B
:102A9000AF90089580818E3F09F03CC0F501C3805E
:102AA000D480C114D10409F06EC0789482E08F9371
:102AB0008FE78F938CEE92E09F938F930E94E35663
:102AC00080E090E0A0E4B0E089839A83AB83BC838C
:102AD00089819A81AB81BC810F900F900F900F90EC
:102AE000892B8A2B8B2B99F089819A81AB81BC81B0
:102AF0000197A109B10989839A83AB83BC8389813A
:102B00009A81AB81BC81892B8A2B8B2B69F70C9422
:102B100000006ECF789482E08F938CE78F938CEED9
:102B200092E09F938F930E94E35680E090E0A0E4B0
:102B3000B0E08D839E83AF83B8878D819E81AF8106
:102B4000B8850F900F900F900F90892B8A2B8B2BAD
:102B500099F08D819E81AF81B8850197A109B10956
:102B60008D839E83AF83B8878D819E81AF81B88529
:102B7000892B8A2B8B2B69F70C9400008FCFF601E1
:102B80001382128276CF101611060CF426CF30CFA6
:102B9000EF92FF920F931F93CF93DF93CDB7DEB7E2
:102BA00060970FB6F894DEBF0FBECDBF8C017B01DE
:102BB000DC018C918D3F09F453C0F801838194812D
:102BC000892B09F482C080818E3FA1F1789486E040
:102BD0008F9380EE8F938CEE92E09F938F930E9461
:102BE000E35680E090E0A0E4B0E089879A87AB8765
:102BF000BC8789859A85AB85BC850F900F900F9017
:102C00000F90892B8A2B8B2B99F089859A85AB8520
:102C1000BC850197A109B10989879A87AB87BC87D1
:102C200089859A85AB85BC85892B8A2B8B2B69F787
:102C30000C940000D8011396ED91FC91369680819A
:102C40009181F182E08260960FB6F894DEBF0FBEEC
:102C5000CDBFDF91CF911F910F91FF90EF9008951D
:102C6000789486E08F938BED8F938CEE92E09F9318
:102C70008F930E94E35680E090E0A0E4B0E08D875F
:102C80009E87AF87B88B8D859E85AF85B8890F905D
:102C90000F900F900F90892B8A2B8B2B99F08D859D
:102CA0009E85AF85B8890197A109B1098D879E8757
:102CB000AF87B88B8D859E85AF85B889892B8A2B88
:102CC0008B2B69F70C94000078CF80818E3F09F43C
:102CD00060C00580F681E02D0190F081E02DD801E3
:102CE00011968D919C91208531858217930778F0FC
:102CF00064857585AB01440F551F460F571F440F60
:102D0000551F240F351F8217930708F476C02685B8
:102D100037858217930748F042895389440F551F1E
:102D2000240F351F82179307A0F1789482E08F93C8
:102D30008CE48F938CEE92E09F938F930E94E356E6
:102D400080E090E0A0E4B0E089839A83AB83BC8309
:102D500089819A81AB81BC810F900F900F900F9069
:102D6000892B8A2B8B2B99F089819A81AB81BC812D
:102D70000197A109B10989839A83AB83BC838981B7
:102D80009A81AB81BC81892B8A2B8B2B69F70C94A0
:102D90000000789486E08F9389EE8F938CEE92E01A
:102DA0009F938F930E94E35680E090E0A0E4B0E010
:102DB0008D839E83AF83B8878D819E81AF81B885D7
:102DC0000F900F900F900F90892B8A2B8B2B99F0DF
:102DD0008D819E81AF81B8850197A109B1098D834D
:102DE0009E83AF83B8878D819E81AF81B885892B03
:102DF0008A2B8B2B69F70C940000D8011196ED916A
:102E0000FC9132961CCF0F931F93CF93DF9300D08A
:102E10001F92CDB7DEB78C01DC0111968D919C918C
:102E2000892B79F0D8011196ED91FC9180819181E7
:102E30000F900F900F900F90DF91CF911F910F91F6
:102E40000895789482E08F9382E68F938CEE92E0DF
:102E50009F938F930E94E35680E090E0A0E4B0E05F
:102E600089839A83AB83BC8389819A81AB81BC813E
:102E70000F900F900F900F90892B8A2B8B2B99F02E
:102E800089819A81AB81BC810197A109B1098983AC
:102E90009A83AB83BC8389819A81AB81BC81892B66
:102EA0008A2B8B2B69F70C940000BCCFFC0180812E
:102EB0000895FC0121853285FB0131832083FC01CB
:102EC0008385948508958F929F92AF92BF92CF92FF
:102ED000DF92EF92FF920F931F93CF93DF9300D077
:102EE0001F92CDB7DEB7FC0111821082411551054A
:102EF00009F4A0C0D80159017A01972E862E6C01E1
:102F0000BA016F5F7F4F660F771F660F771F660FDF
:102F1000771FED91FC91119716968D919C911995C3
:102F20008C0180E001151105C1F1A114B10409F46F
:102F300079C0F50182819381892B09F43FC086E035
:102F4000F501D80101900D928A95E1F7F801F78219
:102F5000E682882D992DA801485F5F4F30E020E080
:102F600067E0FC01DA0101900D926A95E1F7F90141
:102F7000EE0FFF1FEE0FFF1FEE0FFF1FE00FF11F01
:102F800017862F5F3F4F0796485F5F4FE216F306A5
:102F900039F7F6011183008381E00F900F900F90B5
:102FA0000F90DF91CF911F910F91FF90EF90DF90E5
:102FB000CF90BF90AF909F908F90089578941F927C
:102FC00082EB8F9386E493E09F938F930E94E35666
:102FD00080E090E0A0E4B0E089839A83AB83BC8377
:102FE00089819A81AB81BC810F900F900F900F90D7
:102FF000892B8A2B8B2B99F089819A81AB81BC819B
:103000000197A109B10989839A83AB83BC83898124
:103010009A81AB81BC81892B8A2B8B2B69F70C940D
:1030200000008DCFF8011182108213821282158266
:1030300014828CCF80E0B1CF8F929F92AF92BF92DB
:10304000CF92DF92EF92FF920F931F93CF93DF9374
:1030500000D01F92CDB7DEB75C016B01842E922E9B
:10306000FC01868197816817790708F058C0DB0159
:10307000AA0FBB1FAA0FBB1FAA0FBB1FAA0DBB1D08
:10308000FB013196EE0FFF1FEE0FFF1FEE0FFF1F2C
:10309000EA0DFB1D0190F081E02DB7011C968D918A
:1030A0009C911995009709F472C0FC01808291826D
:1030B000F601EE0FFF1FEE0FFF1FEE0FFF1FEA0DD1
:1030C000FB1D2685222309F460C0FC0182819381C7
:1030D000A701B8010E949856CC0CDD1CCC0CDD1C5D
:1030E000CC0CDD1CD501AC0DBD1D1A96ED91FC91EB
:1030F0001B971C968D919C91199581E00F900F90D4
:103100000F900F90DF91CF911F910F91FF90EF9053
:10311000DF90CF90BF90AF909F908F90089578945C
:1031200081E08F9381E68F9386E493E09F938F9362
:103130000E94E35680E090E0A0E4B0E089839A83A7
:10314000AB83BC8389819A81AB81BC810F900F9046
:103150000F900F90892B8A2B8B2B99F089819A8164
:10316000AB81BC810197A109B10989839A83AB83A3
:10317000BC8389819A81AB81BC81892B8A2B8B2B63
:1031800069F70C94000080E0B9CF0296A1CFF60158
:10319000EE0FFF1FEE0FFF1FEE0FFF1FEA0DFB1DCF
:1031A00087858F5F878780E0A9CFEF92FF920F938B
:1031B0001F93CF93DF93EC01EC81FD81309751F1A8
:1031C0008B0108961995EA80FB80C701800F911F3B
:1031D0002881398128173907D0F09B838A838C8511
:1031E0009D8501969D878C876A857B85060F171FB5
:1031F0001B870A87EE81FF81CE0108961995C701CA
:10320000DF91CF911F910F91FF90EF900895F12CD6
:10321000E12CF0CFEA80FB809701260F371F488111
:1032200059814217530718F4F12CE12CE8CF3B8366
:103230002A832C853D852F5F3F4F3D872C870A854C
:103240001B85600F711F7B876A87D9CFFC012081A6
:103250003181828193812817390728F0A901481B01
:10326000590BCA01089590E080E00895FC01828521
:1032700093850895EF92FF920F931F93CF93DF935F
:1032800000D000D0CDB7DEB7E982FA820B831C8371
:103290002D833E83460F571F9B01225F3F4F24170C
:1032A0003507D8F5E981FA810B811C81DB01139682
:1032B0003C932E9312974D935C93EF2B51F1012B7E
:1032C000D1F126E0FE013196DB01149601900D92BA
:1032D0002A95E1F72EE030E0FB013387228715863F
:1032E000148625ED38E1DC0111963C932E9326E2FD
:1032F00039E113963C932E93129726E339E1159604
:103300003C932E93149717967C936E93169781E0B7
:1033100005C0012BB1F280E001C080E026960FB617
:10332000F894DEBF0FBECDBFDF91CF911F910F91FB
:10333000FF90EF90089580E0F1CF83E090E0089552
:10334000CF93DF9300D01F92CDB7DEB70097B1F0D7
:103350006115710599F001966C5F7F4F869F900112
:10336000879F300D969F300D1124C901805F910910
:1033700081304FEF940710F0939536C0789483E036
:103380008F9387ED8F9386E993E09F938F930E94AD
:10339000E35680E090E0A0E4B0E089839A83AB83B9
:1033A000BC8389819A81AB81BC810F900F900F9073
:1033B0000F90892B8A2B8B2B99F089819A81AB8175
:1033C000BC810197A109B10989839A83AB83BC832E
:1033D00089819A81AB81BC81892B8A2B8B2B69F7E0
:1033E0000C94000090E080E00F900F900F900F90F1
:1033F000DF91CF910895FC0111821082128208950D
:10340000AF92BF92CF92DF92EF92FF920F931F93F2
:10341000CF93DF93CDB7DEB760970FB6F894DEBFDA
:103420000FBECDBF8C01CB01009709F46FC04115D1
:10343000510509F46BC0F80111821082FB0131962D
:10344000BA016C5F7F4FE69F9001E79F300DF69FBA
:10345000300D1124F801358324839801205F3F4FFC
:1034600033832283BA016CDF800F911FF801228120
:10347000338144815581240F351F8217930709F04A
:103480007CC0F801248135818CEF820F8087808594
:1034900090E00496B9010E94C754C82ED92EA82ED8
:1034A000B92EE084F12CE216F30608F09BC0F80177
:1034B00082819381E80EF91E84819581A816B90650
:1034C00008F0C5C0F701C082D1828FEF9FEFF801ED
:1034D000928781871386808590E0978386831586FF
:1034E000148616861786802F912F60960FB6F89453
:1034F000DEBF0FBECDBFDF91CF911F910F91FF9027
:10350000EF90DF90CF90BF90AF900895789484E0D3
:103510008F938FE68F9386E993E09F938F930E941A
:10352000E35680E090E0A0E4B0E08D879E87AF870F
:10353000B88B8D859E85AF85B8890F900F900F90C1
:103540000F90892B8A2B8B2B99F08D859E85AF85CB
:10355000B8890197A109B1098D879E87AF87B88B7C
:103560008D859E85AF85B889892B8A2B8B2B69F732
:103570000C94000080E090E0B8CF789484E08F93C2
:1035800083E98F9386E993E09F938F930E94E3569C
:1035900080E090E0A0E4B0E089879A87AB87BC87A1
:1035A00089859A85AB85BC850F900F900F900F9001
:1035B000892B8A2B8B2B99F089859A85AB85BC85C5
:1035C0000197A109B10989879A87AB87BC8789854B
:1035D0009A85AB85BC85892B8A2B8B2B69F70C943C
:1035E00000004FCF789481E08F938DEF8F9386E921
:1035F00093E09F938F930E94E35680E090E0A0E4D5
:10360000B0E089839A83AB83BC8389819A81AB8143
:10361000BC810F900F900F900F90892B8A2B8B2BD2
:1036200099F089819A81AB81BC810197A109B10987
:1036300089839A83AB83BC8389819A81AB81BC8166
:10364000892B8A2B8B2B69F70C94000030CF789450
:1036500082E08F9384E38F9386E993E09F938F9327
:103660000E94E35680E090E0A0E4B0E08D839E836A
:10367000AF83B8878D819E81AF81B8850F900F9001
:103680000F900F90892B8A2B8B2B99F08D819E8127
:10369000AF81B8850197A109B1098D839E83AF835E
:1036A000B8878D819E81AF81B885892B8A2B8B2B22
:1036B00069F70C94000006CFFC0171836083FB0165
:1036C0002085FC0122830895EF92FF920F931F93B0
:1036D000CF93DF9300D01F92CDB7DEB78C017B0173
:1036E000FC0180819181892BA1F1789484E08F93F2
:1036F00080EF8F9386E993E09F938F930E94E35628
:1037000080E090E0A0E4B0E089839A83AB83BC833F
:1037100089819A81AB81BC810F900F900F900F909F
:10372000892B8A2B8B2B99F089819A81AB81BC8163
:103730000197A109B10989839A83AB83BC838981ED
:103740009A81AB81BC81892B8A2B8B2B69F70C94D6
:103750000000F801F182E0820F900F900F900F901F
:10376000DF91CF911F910F91FF90EF9008952F92CD
:103770003F924F925F926F927F928F929F92AF9201
:10378000BF92CF92DF92EF92FF920F931F93CF934E
:10379000DF93CDB7DEB7E4970FB6F894DEBF0FBE68
:1037A000CDBF7C017AAB69ABDC0119968D919C9100
:1037B0000196A1F1789485E08F9384E58F9386E953
:1037C00093E09F938F930E94E35680E090E0A0E403
:1037D000B0E08DA79EA7AFA7B8AB8DA59EA5AFA55E
:1037E000B8A90F900F900F900F90892B8A2B8B2BDD
:1037F00099F08DA59EA5AFA5B8A90197A109B1091A
:103800008DA79EA7AFA7B8AB8DA59EA5AFA5B8A95C
:10381000892B8A2B8B2B69F70C940000F701838589
:1038200081117DC30190F081E02D8280912CD70120
:103830001896AC901897B12C1496ED91FC911597B1
:10384000FCABEBAB16960D911C9117971C96CD9087
:10385000DC908016910609F4B5C0A016B10661F09F
:103860000F2EF6E92F2EF3E03F2EF02D412C512C98
:103870003201689466F85DC081E0D7011B968C9395
:103880001B971796BC92AE92169790E080E0E49654
:103890000FB6F894DEBF0FBECDBFDF91CF911F9161
:1038A0000F91FF90EF90DF90CF90BF90AF909F90DF
:1038B0008F907F906F905F904F903F902F900895E2
:1038C0007894F1E0FF932DEF2F933F922F920E9477
:1038D000E3564D8E5E8E6F8E78A28D8D9E8DAF8D50
:1038E000B8A10F900F900F900F90892B8A2B8B2BE4
:1038F00099F08D8D9E8DAF8DB8A10197A109B10969
:103900008D8F9E8FAF8FB8A38D8D9E8DAF8DB8A1FB
:10391000892B8A2B8B2B69F70C94000014C00C9414
:1039200000008016910609F44CC0A016B10609F4F7
:10393000A3CFB1E0CB1AD108F70184819581081794
:10394000190708F0BDCFD70112968D919C9113975E
:10395000080F191FF8010081118114968D919C9117
:1039600008171907F0F27894F2E0FF9327E12F93FC
:103970003F922F920E94E35649A25AA26BA27CA2C8
:1039800089A19AA1ABA1BCA10F900F900F900F90AD
:10399000892B8A2B8B2B09F4C2CF89A19AA1ABA1C9
:1039A000BCA10197A109B10989A39AA3ABA3BCA3A8
:1039B00089A19AA1ABA1BCA1892B8A2B8B2B69F77A
:1039C000AECF8401D70114962D913C91C601880F8A
:1039D000991F880F991F28173907B8F1F701178326
:1039E000068384819581A816B90608F063C0D701C3
:1039F0001296ED91FC911397EA0DFB1D0081118148
:103A000014968D919C910817190708F088C069A831
:103A10007AA8B4E06B0E711C8016910608F0B4C051
:103A2000C301800F911FEBA9FCA9E817F90708F063
:103A3000B6C010E000E08614970408F0B4C0F701A7
:103A4000D586C48690E080E022CF789482E08F9380
:103A500080EA8F9386E993E09F938F930E94E356C9
:103A600080E090E0A0E4B0E089A79AA7ABA7BCA74C
:103A700089A59AA5ABA5BCA50F900F900F900F90AC
:103A8000892B8A2B8B2B99F089A59AA5ABA5BCA570
:103A90000197A109B10989A79AA7ABA7BCA789A5D6
:103AA0009AA5ABA5BCA5892B8A2B8B2B69F70C9407
:103AB000000094CF789481E08F938DEF8F9386E907
:103AC00093E09F938F930E94E35680E090E0A0E400
:103AD000B0E08D8B9E8BAF8BB88F8D899E89AF891F
:103AE000B88D0F900F900F900F90892B8A2B8B2BF6
:103AF00099F08D899E89AF89B88D0197A109B10987
:103B00008D8B9E8BAF8BB88F8D899E89AF89B88D39
:103B1000892B8A2B8B2B69F70C94000068CF789443
:103B200082E08F9387E18F9386E993E09F938F9351
:103B30000E94E35680E090E0A0E4B0E0898F9A8F85
:103B4000AB8FBC8F898D9A8DAB8DBC8D0F900F90F4
:103B50000F900F90892B8A2B8B2B99F0898D9A8D42
:103B6000AB8DBC8D0197A109B109898F9A8FAB8F5D
:103B7000BC8F898D9A8DAB8DBC8D892B8A2B8B2B1D
:103B800069F70C94000043CF0815190508F057CFCA
:103B9000C301800F911F8816990608F450CF0F3F7C
:103BA000100709F44CCFD70114968D919C91A8165B
:103BB000B90608F06EC0F70182819381A80EB91E84
:103BC000848195810817190708F098C0D5010D93D5
:103BD0001C93600E711EEBA9FCA953016E167F06A3
:103BE00030F0B12CA12CE615F70509F0BCC0D701C7
:103BF00014968D919C910817190708F0EBC0F701F6
:103C000042805380400E511E84819581A816B906CA
:103C100018F4A114B10421F0A614B70408F40FC1DC
:103C2000D2011196BC92AE92E9A9FAA91396FC931F
:103C3000EE931297C6010196D7011D969C938E9321
:103C40001C971E968C911E978C151D0409F018F474
:103C5000C3941E96CC92A818B9080AF425C1D701BE
:103C60001F968C911F978A151B0410F41F96AC9217
:103C7000F70112870187848195810817190708F0D9
:103C800019C1D70112968D919C91800F911F0496B6
:103C9000FECD789481E08F938DEF8F9386E993E04A
:103CA0009F938F930E94E35680E090E0A0E4B0E001
:103CB0008D879E87AF87B88B8D859E85AF85B889A8
:103CC0000F900F900F900F90892B8A2B8B2B99F0D0
:103CD0008D859E85AF85B8890197A109B1098D872A
:103CE0009E87AF87B88B8D859E85AF85B889892BD8
:103CF0008A2B8B2B69F70C9400005DCF789482E0BF
:103D00008F9384E38F9386E993E09F938F930E9430
:103D1000E35680E090E0A0E4B0E0898B9A8BAB8B17
:103D2000BC8B89899A89AB89BC890F900F900F90C1
:103D30000F90892B8A2B8B2B99F089899A89AB89D3
:103D4000BC890197A109B109898B9A8BAB8BBC8B7C
:103D500089899A89AB89BC89892B8A2B8B2B69F736
:103D60000C94000033CF789482E08F9382EE8F938F
:103D700086E993E09F938F930E94E35680E090E062
:103D8000A0E4B0E08DA39EA3AFA3B8A78DA19EA190
:103D9000AFA1B8A50F900F900F900F90892B8A2B91
:103DA0008B2B99F08DA19EA1AFA1B8A50197A10978
:103DB000B1098DA39EA3AFA3B8A78DA19EA1AFA16A
:103DC000B8A5892B8A2B8B2B69F70C940000B12C9A
:103DD000A12C0DCF789481E08F938DEF8F9386E99E
:103DE00093E09F938F930E94E35680E090E0A0E4DD
:103DF000B0E08D839E83AF83B8878D819E81AF8134
:103E0000B8850F900F900F900F90892B8A2B8B2BDA
:103E100099F08D819E81AF81B8850197A109B10983
:103E20008D839E83AF83B8878D819E81AF81B88556
:103E3000892B8A2B8B2B69F70C940000E0CE7894A9
:103E400082E08F9388E58F9386E993E09F938F9329
:103E50000E94E35680E090E0A0E4B0E089879A8772
:103E6000AB87BC8789859A85AB85BC850F900F9001
:103E70000F900F90892B8A2B8B2B99F089859A852F
:103E8000AB85BC850197A109B10989879A87AB8762
:103E9000BC8789859A85AB85BC85892B8A2B8B2B22
:103EA00069F70C940000BCCEF70184819581A80EBF
:103EB000B91ED5CE789481E08F938DEF8F9386E9EC
:103EC00093E09F938F930E94E35680E090E0A0E4FC
:103ED000B0E089839A83AB83BC8389819A81AB816B
:103EE000BC810F900F900F900F90892B8A2B8B2BFA
:103EF00099F089819A81AB81BC810197A109B109AF
:103F000089839A83AB83BC8389819A81AB81BC818D
:103F1000892B8A2B8B2B69F70C940000B2CE90E092
:103F200080E0B5CC0F931F93CF93DF9300D01F9207
:103F3000CDB7DEB78C01FC0181859285019681F0B9
:103F4000F801818580878FEF9FEF928781870F909F
:103F50000F900F900F90DF91CF911F910F910895C7
:103F6000789485E08F9388E68F9386E993E09F931A
:103F70008F930E94E35680E090E0A0E4B0E0898354
:103F80009A83AB83BC8389819A81AB81BC810F907A
:103F90000F900F900F90892B8A2B8B2B99F0898192
:103FA0009A81AB81BC810197A109B10989839A8368
:103FB000AB83BC8389819A81AB81BC81892B8A2B9D
:103FC0008B2B69F70C940000BBCFAF92BF92CF92BE
:103FD000DF92EF92FF920F931F93CF93DF93CDB7B2
:103FE000DEB72C970FB6F894DEBF0FBECDBFFC0135
:103FF0002281C22ED12C00811181F8013085231736
:1040000009F4DCC07B015C0184819581C816D90666
:10401000B0F5F80182819381C80ED91EF601C080E7
:10402000D180F80184819581C816D90608F05CC05A
:10403000F501C282F80184819581C816D90608F07D
:1040400088C0F80182819381C80ED91EC6010496EA
:10405000F60122813381F701318320832C960FB63C
:10406000F894DEBF0FBECDBFDF91CF911F910F91AE
:10407000FF90EF90DF90CF90BF90AF90089578942D
:1040800081E08F938DEF8F9386E993E09F938F93D9
:104090000E94E35680E090E0A0E4B0E089839A8338
:1040A000AB83BC8389819A81AB81BC810F900F90D7
:1040B0000F900F90892B8A2B8B2B99F089819A81F5
:1040C000AB81BC810197A109B10989839A83AB8334
:1040D000BC8389819A81AB81BC81892B8A2B8B2BF4
:1040E00069F70C94000095CF789482E08F9387E174
:1040F0008F9386E993E09F938F930E94E35680E02D
:1041000090E0A0E4B0E08D839E83AF83B8878D817B
:104110009E81AF81B8850F900F900F900F90892BE3
:104120008A2B8B2B99F08D819E81AF81B885019769
:10413000A109B1098D839E83AF83B8878D819E814C
:10414000AF81B885892B8A2B8B2B69F70C940000E3
:104150006FCF789481E08F938DEF8F9386E993E012
:104160009F938F930E94E35680E090E0A0E4B0E03C
:1041700089879A87AB87BC8789859A85AB85BC85FB
:104180000F900F900F900F90892B8A2B8B2B99F00B
:1041900089859A85AB85BC850197A109B109898775
:1041A0009A87AB87BC8789859A85AB85BC85892B27
:1041B0008A2B8B2B69F70C94000043CFFB011182F3
:1041C000108290E080E04ACF0895EF92FF920F9323
:1041D0001F93CF93DF9300D000D0CDB7DEB77B0124
:1041E000BE016F5F7F4FF1DE8C01892B51F0898119
:1041F0009A810297A0F089819A810297F7019183B1
:104200008083C80126960FB6F894DEBF0FBECDBFDF
:10421000DF91CF911F910F91FF90EF9008957894C7
:104220001F928EE88F9381EF93E09F938F930E946C
:10423000E35680E090E0A0E4B0E08B839C83AD8304
:10424000BE838B819C81AD81BE810F900F900F90BA
:104250000F90892B8A2B8B2B99F08B819C81AD81C0
:10426000BE810197A109B1098B839C83AD83BE8375
:104270008B819C81AD81BE81892B8A2B8B2B69F729
:104280000C940000B8CF4ECE08956E5F7F4F6FCA7A
:1042900008950F931F93CF93DF93EC018B014DD8BB
:1042A0000097E9F0D801ED91FC911197BC011696A9
:1042B0008D919C9119950097A1F09DD81E8225EEB5
:1042C00030E23983288324EE30E23B832A839D83C6
:1042D0008C8381E0DF91CF911F910F91089580E051
:1042E000F9CF80E0F7CFCF92DF92EF92FF920F935A
:1042F0001F93CF93DF938C016B017901EA01229622
:10430000BE01C6011DD8009721F1D701ED91FC91A6
:104310001197BC0116968D919C9119950097D9F033
:10432000AE01B6016DD825E431E2F8013183208376
:1043300023E431E23383228395838483168281E0F0
:10434000DF91CF911F910F91FF90EF90DF90CF9071
:10435000089580E0F5CF80E0F3CF6F927F928F9247
:104360009F92AF92BF92CF92DF92EF92FF920F9304
:104370001F93CF936C015B014A013901B80189DFBA
:10438000C82F81110FC08C2FCF911F910F91FF90DB
:10439000EF90DF90CF90BF90AF909F908F907F90E5
:1043A0006F9008959701A301B401C5019CDFC82F48
:1043B000882349F3F50164817581F6018481958133
:1043C0007BD9F60164817581F501848195817CD961
:1043D000DACFCF93DF9300D000D01F921F92CDB7DA
:1043E000DEB78115904809F059C08091F00B90918B
:1043F000F10BA091F20BB091F30B0196A11DB11D31
:104400008093F00B9093F10BA093F20BB093F30B0E
:104410000E945B3941E360E080E090E40E94F30891
:10442000892B19F778941F9284EF8F9388E494E096
:104430009F938F930E94E35680E090E0A0E4B0E069
:1044400089839A83AB83BC8389819A81AB81BC8148
:104450000F900F900F900F90892B8A2B8B2B99F038
:1044600089819A81AB81BC810197A109B1098983B6
:104470009A83AB83BC8389819A81AB81BC81892B70
:104480008A2B8B2B69F70C94000028960FB6F894B2
:10449000DEBF0FBECDBFDF91CF91089578941F92FC
:1044A00089EE8F9388E494E09F938F930E94E35664
:1044B00080E090E0A0E4B0E08D839E83AF83B88776
:1044C0008D819E81AF81B8850F900F900F900F90D6
:1044D000892B8A2B8B2B99F08D819E81AF81B8859A
:1044E0000197A109B1098D839E83AF83B8878D8120
:1044F0009E81AF81B885892B8A2B8B2B69F70C9411
:10450000000073CFCF93DF9300D000D01F921F9293
:10451000CDB7DEB78115904809F059C08091F40BF2
:104520009091F50BA091F60BB091F70B0196A11DA0
:10453000B11D8093F40B9093F50BA093F60BB09301
:10454000F70B0E94513945E060E080E090E40E9462
:10455000F308892B19F778941F9284ED8F9388E4E0
:1045600094E09F938F930E94E35680E090E0A0E454
:10457000B0E089839A83AB83BC8389819A81AB81C4
:10458000BC810F900F900F900F90892B8A2B8B2B53
:1045900099F089819A81AB81BC810197A109B10908
:1045A00089839A83AB83BC8389819A81AB81BC81E7
:1045B000892B8A2B8B2B69F70C94000028960FB659
:1045C000F894DEBF0FBECDBFDF91CF9108957894F0
:1045D0001F9289EC8F9388E494E09F938F930E94BD
:1045E000E35680E090E0A0E4B0E08D839E83AF834B
:1045F000B8878D819E81AF81B8850F900F900F9005
:104600000F90892B8A2B8B2B99F08D819E81AF8106
:10461000B8850197A109B1098D839E83AF83B887BF
:104620008D819E81AF81B885892B8A2B8B2B69F771
:104630000C94000073CF0F931F93CF93DF9300D0A0
:1046400000D01F921F92CDB7DEB78115904809F0B8
:1046500063C007E010E08091F80B9091F90BA091F6
:10466000FA0BB091FB0B0196A11DB11D8093F80BC5
:104670009093F90BA093FA0BB093FB0B0E945F4150
:104680000E949A55B8010E94DB5441E0480F60E057
:1046900080E090E80E94F308892BE9F678941F9255
:1046A00084EB8F9388E494E09F938F930E94E3566A
:1046B00080E090E0A0E4B0E089839A83AB83BC8380
:1046C00089819A81AB81BC810F900F900F900F90E0
:1046D000892B8A2B8B2B99F089819A81AB81BC81A4
:1046E0000197A109B10989839A83AB83BC8389812E
:1046F0009A81AB81BC81892B8A2B8B2B69F70C9417
:10470000000028960FB6F894DEBF0FBECDBFDF9134
:10471000CF911F910F91089578941F928CE98F93F8
:1047200088E494E09F938F930E94E35680E090E0AA
:10473000A0E4B0E08D839E83AF83B8878D819E8196
:10474000AF81B8850F900F900F900F90892B8A2B17
:104750008B2B99F08D819E81AF81B8850197A1093E
:10476000B1098D839E83AF83B8878D819E81AF8190
:10477000B885892B8A2B8B2B69F70C94000069CFA5
:10478000AF92CF92EF92FF920F931F9380E895E242
:104790000E94B70B86EE91E00E94D00B0E94943CE1
:1047A00061E08DE00E94D04C0E94983CA12CC12C6D
:1047B000E12C6894FF24F7F800E011E020EF3AE0E4
:1047C00042E06BE173E280E00E94A10920EF39E052
:1047D00041E062E872E281E00E94A10920EF38E046
:1047E00040E069EE71E282E00E94A1090E94414727
:1047F0000E94FA351F910F91FF90EF90CF90AF90EC
:104800000895CF92DF92EF92FF920F931F93CF9371
:10481000DF93C3E061E08DE00E94114D66E970E036
:1048200080E090E00E94E74B60E08DE00E94114D37
:1048300066E970E080E090E00E94E74BC15051F7DC
:1048400062E573E080E090E00E94E74B8FE994E03E
:104850000E94F7560E94B8058093070260910702F4
:1048600070E090E080E00E948F5320E030E040E074
:104870005FE30E9455549F938F937F936F938FEACA
:1048800094E09F938F930E94E3560091F00B109158
:10489000F10B2091F20B3091F30B4091F40B5091FE
:1048A000F50B6091F60B7091F70B8091F80B9091DE
:1048B000F90BA091FA0BB091FB0B3F932F931F9331
:1048C0000F937F936F935F934F93BF93AF939F9398
:1048D0008F9382EC94E09F938F930E94E3562DB7C1
:1048E0003EB72C5E3F4F0FB6F8943EBF0FBE2DBFB4
:1048F000D0E0C0E00AEF14E060E08C2F0E946E0967
:10490000F82E8C2F0E9488091F92FF929F938F93FD
:10491000DF93CF931F930F930E94E35621962DB7F9
:104920003EB7285F3F4F0FB6F8943EBF0FBE2DBF76
:10493000C330D10509F7F894C8E0D2E08C8199859D
:104940002C893091F30F4091F40F78944F933F935B
:104950001F922F931F929F931F928F9383E395E053
:104960009F938F930E94E356F8946F89788D898D79
:104970000F8118850980DA81C02D78942DB73EB754
:10498000265F3F4F0FB6F8943EBF0FBE2DBF81305C
:1049900009F462C090E080E00E948F5320E030E094
:1049A00040E052E40E94555420E034E244EF58E4E1
:1049B0000E9453520E945E536B017C01BE0190E045
:1049C00080E00E948F532DEC3CEC4CEC5DE30E94A8
:1049D00055540E945E537F936F93B801110F880B5B
:1049E000990B0E94915320E030E040E05FE30E9489
:1049F00055540E945E537F936F93C701B6012FED0C
:104A000032E040E050E00E9410555F934F933F9397
:104A10002F93C701B60128EE33E040E050E00E943A
:104A200010555F934F933F932F9382E995E09F93A7
:104A30008F930E94E3568DB79EB70E960FB6F894EB
:104A40009EBF0FBE8DBFDF91CF911F910F91FF9041
:104A5000EF90DF90CF90089583EC95E00E94F75699
:104A6000F2CF0F931F93CF93DF9300D01F92CDB758
:104A7000DEB70E9403178C018827987F892B81F469
:104A800030E020E0602F712F822F932F9F770F90BF
:104A90000F900F900F90DF91CF911F910F9108957C
:104AA00078941F9284E58F938AE096E09F938F938A
:104AB0000E94E35680E090E0A0E4B0E089839A830E
:104AC000AB83BC8389819A81AB81BC810F900F90AD
:104AD0000F900F90892B8A2B8B2B99F089819A81CB
:104AE000AB81BC810197A109B10989839A83AB830A
:104AF000BC8389819A81AB81BC81892B8A2B8B2BCA
:104B000069F70C940000BCCFFC018081A8E0B2E002
:104B10008C93418150E070E060E0762F652F542F38
:104B2000442744275F70662777278281482B762F9A
:104B3000652F542F44278381482B689413F876956A
:104B40006795579547951694D1F712965C934E93B7
:104B50001197818182958F7013968C930895FC0133
:104B60008081A8E0B2E015968C93159781818F70B3
:104B700016968C93169792818381880F991F95952D
:104B8000879595958795959587959595879595950D
:104B9000879518969C938E9317970895FC01A8E02B
:104BA000B2E0808190E095958795959587958F7077
:104BB0001A968C931A97428150E070E060E0762F4D
:104BC000652F542F44274427537066277727818108
:104BD000482B762F652F542F44278081482B6894CB
:104BE00015F876956795579547951694D1F71C96C5
:104BF0005C934E931B97838190E0982F882788279A
:104C00009F732281822B96958795969587951E9600
:104C10009C938E931D9784811F968C931F978581FB
:104C20009681892798278927880F892F881F990BB4
:104C3000919551969C938E935097868190E0982FF2
:104C4000882788279F732781822B96958795929531
:104C500082958F7089279F70892753969C938E9396
:104C600052970895CF93DF93FC0186E0DF011D92F8
:104C70008A95E9F7C8E0D2E08D8980832E892F706C
:104C80008181282B21838F89988DB0E0A0E0880F47
:104C9000991FAA1FBB1F880F991FAA1FBB1F880F30
:104CA000991FAA1FBB1F880F991FAA1FBB1F880F20
:104CB000991FAA1FBB1F282B218392839A2F9F70B5
:104CC0008381892B8383898D982F96958795882753
:104CD00087952581822B858393708481892B84839A
:104CE000DF91CF910895CF93DF93FC01118212825F
:104CF0001482C8E0D2E09B8D8C8D90838770818375
:104D00002D8D3E8D220F331F220F331F220F331F95
:104D1000822B8183232F2F7322838F8D98A1B0E064
:104D2000A0E0880F991FAA1FBB1F880F991FAA1FF9
:104D3000BB1F880F991FAA1FBB1F880F991FAA1F8F
:104D4000BB1F880F991FAA1FBB1F880F991FAA1F7F
:104D5000BB1F282B228393839A2F9170948389A160
:104D6000880F892B84838AA18583DF91CF91089551
:104D7000FC011082A8E0B2E094968C919497877021
:104D8000808395969C919597990F990F990F982BE1
:104D9000908396968C9196978295807F982B90839E
:104DA00097968C9197978295880F807E892B808328
:104DB00098969C919295990F990F907C892B80835E
:104DC0000895CF93DF9300D01F92CDB7DEB70E9436
:104DD00056178E3FA1F1789482E08F938FE08F93E6
:104DE00086E496E09F938F930E94E35680E090E0E4
:104DF000A0E4B0E089839A83AB83BC8389819A81E4
:104E0000AB81BC810F900F900F900F90892B8A2B54
:104E10008B2B99F089819A81AB81BC810197A10983
:104E2000B10989839A83AB83BC8389819A81AB81E1
:104E3000BC81892B8A2B8B2B69F70C940000E8E04E
:104E4000F2E08185826081870F900F900F900F9024
:104E5000DF91CF910895CF93DF9300D01F92CDB70C
:104E6000DEB70E9456178E3FA1F1789481E08F93B0
:104E70008DEF8F9386E496E09F938F930E94E35685
:104E800080E090E0A0E4B0E089839A83AB83BC83A8
:104E900089819A81AB81BC810F900F900F900F9008
:104EA000892B8A2B8B2B99F089819A81AB81BC81CC
:104EB0000197A109B10989839A83AB83BC83898156
:104EC0009A81AB81BC81892B8A2B8B2B69F70C943F
:104ED0000000E8E0F2E08481826084830F900F900C
:104EE0000F900F90DF91CF9108950F931F93CF9361
:104EF000DF9300D000D01F921F92CDB7DEB78C0198
:104F00000E9456178D3FD1F420E041EE58E261E057
:104F100070E0C8010E94DF139093000C8093FF0B98
:104F2000892B09F440C028960FB6F894DEBF0FBE57
:104F3000CDBFDF91CF911F910F910895789483E0B9
:104F40008F938EE98F9386E496E09F938F930E94D0
:104F5000E35680E090E0A0E4B0E08D839E83AF83D1
:104F6000B8878D819E81AF81B8850F900F900F908B
:104F70000F90892B8A2B8B2B99F08D819E81AF818D
:104F8000B8850197A109B1098D839E83AF83B88746
:104F90008D819E81AF81B885892B8A2B8B2B69F7F8
:104FA0000C940000B1CF789483E08F9387EA8F93BD
:104FB00086E496E09F938F930E94E35680E090E012
:104FC000A0E4B0E089839A83AB83BC8389819A8112
:104FD000AB81BC810F900F900F900F90892B8A2B83
:104FE0008B2B99F089819A81AB81BC810197A109B2
:104FF000B10989839A83AB83BC8389819A81AB8110
:10500000BC81892B8A2B8B2B69F70C9400008BCFEA
:105010000F931F93CF93DF93CDB7DEB72C970FB6C7
:10502000F894DEBF0FBECDBF8C010E9456178D3F96
:1050300049F520E047E35AE261E070E0C8010E94D0
:10504000DF139093020C8093010C892B09F44FC05D
:1050500020E04AEA59E268EE73E0C8010E94DF13DB
:105060009093040C8093030C892B09F475C02C9643
:105070000FB6F894DEBF0FBECDBFDF91CF911F9169
:105080000F910895789483E08F9389E78F9386E456
:1050900096E09F938F930E94E35680E090E0A0E417
:1050A000B0E089879A87AB87BC8789859A85AB856D
:1050B000BC850F900F900F900F90892B8A2B8B2B14
:1050C00099F089859A85AB85BC850197A109B109BD
:1050D00089879A87AB87BC8789859A85AB85BC858C
:1050E000892B8A2B8B2B69F70C940000A2CF789424
:1050F00083E08F9385E88F9386E496E09F938F9368
:105100000E94E35680E090E0A0E4B0E08D839E83AF
:10511000AF83B8878D819E81AF81B8850F900F9046
:105120000F900F90892B8A2B8B2B99F08D819E816C
:10513000AF81B8850197A109B1098D839E83AF83A3
:10514000B8878D819E81AF81B885892B8A2B8B2B67
:1051500069F70C9400007CCF789483E08F938EE8FD
:105160008F9386E496E09F938F930E94E35680E0AE
:1051700090E0A0E4B0E089839A83AB83BC8389810B
:105180009A81AB81BC810F900F900F900F90892B6B
:105190008A2B8B2B99F089819A81AB81BC810197F5
:1051A000A109B10989839A83AB83BC8389819A81E0
:1051B000AB81BC81892B8A2B8B2B69F70C94000067
:1051C00056CF0F931F93CF93DF9300D000D000D022
:1051D000CDB7DEB78C010E9456178E3FE9F445E04B
:1051E00050E06CE272E088E392E00E948B56892BDB
:1051F00009F047C041E050E070E060E0C8010E9463
:10520000CF1429960FB6F894DEBF0FBECDBFDF9145
:10521000CF911F910F910895789482E08F938AEE39
:105220008F9386E496E09F938F930E94E35680E0ED
:1052300090E0A0E4B0E08D839E83AF83B8878D813A
:105240009E81AF81B8850F900F900F900F90892BA2
:105250008A2B8B2B99F08D819E81AF81B885019728
:10526000A109B1098D839E83AF83B8878D819E810B
:10527000AF81B885892B8A2B8B2B69F70C940000A2
:10528000AECFC8010E9456178E3F61F541E066E03F
:105290008CE292E0D8D785E0ECE2F2E0A8E3B2E05D
:1052A00001900D928A95E1F7CE01099661DDC80162
:1052B000D8DB362F272F41E0BE01675F7F4F832F5A
:1052C000922F0E94BB48811142C081E0809331023D
:1052D0006091FF0B7091000C44E150E0C8010E9406
:1052E000CF148FCF789482E08F9381E98F9386E4F7
:1052F00096E09F938F930E94E35680E090E0A0E4B5
:10530000B0E089839A83AB83BC8389819A81AB8126
:10531000BC810F900F900F900F90892B8A2B8B2BB5
:1053200099F089819A81AB81BC810197A109B1096A
:1053300089839A83AB83BC8389819A81AB81BC8149
:10534000892B8A2B8B2B69F70C9400009FCF10922E
:105350003102BECF0F931F93CF93DF9300D000D0C5
:1053600000D01F92CDB7DEB78C010E9456178E3F3A
:1053700009F045C04EE761E089E292E064D788E039
:10538000E3E2F2E0ADE3B2E001900D928A95E1F73D
:10539000CE010196A8DC21E745E066E0CE0101964A
:1053A000C8D7C8015EDB362F272F46E0BE016F5FEE
:1053B0007F4F832F922F0E94BB48811155C081E0FF
:1053C00080932B026091010C7091020C42E350E03B
:1053D000C8010E94CF146091030C7091040C48EE38
:1053E00053E0C8010E94CF142A960FB6F894DEBF8E
:1053F0000FBECDBFDF91CF911F910F91089578948B
:1054000082E08F938FE48F9386E496E09F938F934F
:105410000E94E35680E090E0A0E4B0E08F8398879C
:10542000A987BA878F819885A985BA850F900F9033
:105430000F900F90892B8A2B8B2B99F08F81988559
:10544000A985BA850197A109B1098F839887A98792
:10545000BA878F819885A985BA85892B8A2B8B2B52
:1054600069F70C94000086CF10922B02ABCF0F93FC
:105470001F93CF93DF9300D01F92CDB7DEB78C017F
:105480000E9456178E3FD9F448E050E063E272E084
:105490008DE392E00E948B56892B09F045C041E0D4
:1054A00050E070E060E0C8010E94CF140F900F90B0
:1054B0000F900F90DF91CF911F910F9108957894E5
:1054C00082E08F9382EC8F9386E496E09F938F9394
:1054D0000E94E35680E090E0A0E4B0E089839A83E4
:1054E000AB83BC8389819A81AB81BC810F900F9083
:1054F0000F900F90892B8A2B8B2B99F089819A81A1
:10550000AB81BC810197A109B10989839A83AB83DF
:10551000BC8389819A81AB81BC81892B8A2B8B2B9F
:1055200069F70C940000B0CFC80114DFBFCF0F9310
:105530001F93CF93DF9300D000D01F921F92CDB75F
:10554000DEB78C010E9456178D3FA9F445E25BE25D
:105550006EE170E0C8010E94D113892B09F440C0AC
:1055600028960FB6F894DEBF0FBECDBFDF91CF9166
:105570001F910F910895789483E08F938FE58F9317
:1055800086E496E09F938F930E94E35680E090E03C
:10559000A0E4B0E08D839E83AF83B8878D819E8128
:1055A000AF81B8850F900F900F900F90892B8A2BA9
:1055B0008B2B99F08D819E81AF81B8850197A109D0
:1055C000B1098D839E83AF83B8878D819E81AF8122
:1055D000B885892B8A2B8B2B69F70C940000B6CFEA
:1055E000789483E08F9389E68F9386E496E09F9387
:1055F0008F930E94E35680E090E0A0E4B0E08983BE
:105600009A83AB83BC8389819A81AB81BC810F90E3
:105610000F900F900F90892B8A2B8B2B99F08981FB
:105620009A81AB81BC810197A109B10989839A83D1
:10563000AB83BC8389819A81AB81BC81892B8A2B06
:105640008B2B69F70C9400008BCF0F931F93CF9394
:10565000DF9300D000D000D01F92CDB7DEB78C0111
:105660000E9456178E3F51F54EE060E08EE192E0C9
:10567000EAD5CE010196F6DA20E740E066E0CE01F9
:10568000019657D6C801EDD9362F272F46E0BE0127
:105690006F5F7F4F832F922F0E94BB48811143C0C1
:1056A00081E0809322022A960FB6F894DEBF0FBEE7
:1056B000CDBFDF91CF911F910F910895789482E033
:1056C0008F9383E28F9386E496E09F938F930E945B
:1056D000E35680E090E0A0E4B0E08F839887A9874C
:1056E000BA878F819885A985BA850F900F900F9002
:1056F0000F90892B8A2B8B2B99F08F819885A98508
:10570000BA850197A109B1098F839887A987BA87BC
:105710008F819885A985BA85892B8A2B8B2B69F770
:105720000C940000A1CF10922202BDCF0F931F93C3
:10573000CF93DF9300D01F92CDB7DEB78C010E94CC
:1057400056178C3FA1F1789483E08F938CE48F936C
:1057500086E496E09F938F930E94E35680E090E06A
:10576000A0E4B0E089839A83AB83BC8389819A816A
:10577000AB81BC810F900F900F900F90892B8A2BDB
:105780008B2B99F089819A81AB81BC810197A1090A
:10579000B10989839A83AB83BC8389819A81AB8168
:1057A000BC81892B8A2B8B2B69F70C94000065E157
:1057B0007DE2C8010E94C8150F900F900F900F90C6
:1057C000DF91CF911F910F9108950F931F93CF9366
:1057D000DF9300D000D01F921F92CDB7DEB78C01AF
:1057E0000E9456178C3FF9F46FEA7DE2C8010E94CF
:1057F000C81520E041EE56E26AEF70E0C8010E9451
:10580000DF139093060C8093050C892B09F440C09C
:1058100028960FB6F894DEBF0FBECDBFDF91CF91B3
:105820001F910F910895789483E08F9380E38F9375
:1058300086E496E09F938F930E94E35680E090E089
:10584000A0E4B0E08D839E83AF83B8878D819E8175
:10585000AF81B8850F900F900F900F90892B8A2BF6
:105860008B2B99F08D819E81AF81B8850197A1091D
:10587000B1098D839E83AF83B8878D819E81AF816F
:10588000B885892B8A2B8B2B69F70C940000ACCF41
:10589000789483E08F938CE38F9386E496E09F93D4
:1058A0008F930E94E35680E090E0A0E4B0E089830B
:1058B0009A83AB83BC8389819A81AB81BC810F9031
:1058C0000F900F900F90892B8A2B8B2B99F0898149
:1058D0009A81AB81BC810197A109B10989839A831F
:1058E000AB83BC8389819A81AB81BC81892B8A2B54
:1058F0008B2B69F70C9400008BCF0F931F93CF93E2
:10590000DF9300D000D01F921F92CDB7DEB78C017D
:105910000E9456178C3FF9F463E57EE2C8010E94AD
:10592000C81520E04BE257E264E670E0C8010E942F
:10593000DF139093080C8093070C892B09F440C067
:1059400028960FB6F894DEBF0FBECDBFDF91CF9182
:105950001F910F910895789483E08F9384E18F9342
:1059600086E496E09F938F930E94E35680E090E058
:10597000A0E4B0E08D839E83AF83B8878D819E8144
:10598000AF81B8850F900F900F900F90892B8A2BC5
:105990008B2B99F08D819E81AF81B8850197A109EC
:1059A000B1098D839E83AF83B8878D819E81AF813E
:1059B000B885892B8A2B8B2B69F70C940000ACCF10
:1059C000789483E08F9380E28F9386E496E09F93B0
:1059D0008F930E94E35680E090E0A0E4B0E08983DA
:1059E0009A83AB83BC8389819A81AB81BC810F9000
:1059F0000F900F900F90892B8A2B8B2B99F0898118
:105A00009A81AB81BC810197A109B10989839A83ED
:105A1000AB83BC8389819A81AB81BC81892B8A2B22
:105A20008B2B69F70C9400008BCFFF920F931F9381
:105A3000CF93DF9300D000D0CDB7DEB78C010E94AA
:105A40005617823021F5E8E0F2E0F4888F2D8E7F42
:105A5000848BBE016F5F7F4FC8010E9459178C0174
:105A600089819A81089709F447C0E8E0F2E08489C7
:105A7000837F8061848B26960FB6F894DEBF0FBEBD
:105A8000CDBFDF91CF911F910F91FF900895789432
:105A900081E08F938AEA8F9386E496E09F938F93B9
:105AA0000E94E35680E090E0A0E4B0E08B839C830A
:105AB000AD83BE838B819C81AD81BE810F900F90A1
:105AC0000F900F90892B8A2B8B2B99F08B819C81C7
:105AD000AD81BE810197A109B1098B839C83AD8300
