:1000000081C10000ABC10000A9C10000A7C1000070
:10001000A5C10000A3C10000A1C100009FC1000054
:100020009DC100009BC1000099C1000097C1000064
:1000300095C1000093C1000091C100000C948E0C8A
:100040008DC100008BC1000089C1000087C1000084
:1000500085C1000083C1000081C100000C94E91E2D
:100060007DC100000C94E9200C94E52177C10000CB
:1000700075C1000073C1000071C100006FC10000B4
:100080006DC100006BC1000069C1000067C10000C4
:100090000C9428210C94242261C100005FC100004F
:1000A0005DC100005BC1000059C1000057C10000E4
:1000B00055C1000053C1000051C100004FC10000F4
:1000C0004DC100004BC1000049C100000C946721E4
:1000D0000C94632243C100000C94A6210C94A2222C
:1000E0003DC100000D525475696E4F5320312E30C2
:1000F00020666F722041726475696E6F20312E30F8
:100100002E360A436F707972696768742028432914
:1001100020323031322D32303136205065746572E4
:10012000205672616E6B656E20286D61696C746F0C
:100130003A50657465725F5672616E6B656E4059B8
:1001400061686F6F2E6465290A546869732069734A
:10015000206672656520736F6674776172653B20F7
:100160007365652074686520736F757263652066BA
:100170006F7220636F7079696E6720636F6E646958
:1001800074696F6E732E20546865726520697320E0
:100190004E4F0A77617272616E74793B206E6F7494
:1001A000206576656E20666F72204D45524348414A
:1001B0004E544142494C495459206F72204649548B
:1001C0004E45535320464F522041205041525449EE
:1001D00043554C415220505552504F53452E00002C
:1001E000002100240027002A002D003000330001E8
:1001F000010000040107010A010000220025002877
:10020000002B002E0031003400020100000501081F
:10021000010B01000020002300260029002C002FE4
:100220000032000001000003010601090105050577
:1002300005070508080808020202020A0A0808045D
:10024000040404010101010101010103030303038B
:10025000030303040707070C0C0C0C0C0C0C0C021A
:1002600002020206060606060606060B0B0B0B0B21
:100270000B0B0B010210202008081020401020401A
:10028000800201020108040201010204081020405A
:100290008080402010080402018004020180402078
:1002A00010080402010804020101020408102040A1
:1002B0008001020408102040800000090A02080B97
:1002C0000C0D070603040100000000000000000000
:1002D000000000000000000000000000000000001E
:1002E000000000000011100F0000000000000000DE
:1002F00000000000000000000000000000000000FE
:100300001F1B122411241FBECFEFD1E2DEBFCDBFD1
:1003100000E00CBF16E0A0E0B2E0E6E3F0E500E0AC
:100320000BBF02C007900D92A431B107D9F71BBED5
:1003300010E1A4E1B6E001C01D92A93DB107E1F7CB
:1003400013E0C4E0D3E004C02297FE010E94C3275B
:10035000C030D107C9F7FED30C94192851CEA0E0C4
:10036000B0E0E5EBF1E00C94EA27EC01A880B9805D
:10037000CA80DB80A114B104C104D10441F484E239
:10038000A82E89EDB82E8BE5C82E87E0D82EC601A1
:10039000B5012DE133EF41E050E00E94C72727EA85
:1003A00031E440E050E00E9459277B018C01C601F6
:1003B000B5012DE133EF41E050E00E94C727CA01AB
:1003C000B9012CEE34EF4FEF5FEF0E9459276E0D0D
:1003D0007F1D801F911F97FF04C0615070408040B7
:1003E0009048688379838A839B839B013F77C90107
:1003F000CDB7DEB7EAE00C940628B1CF83EC94E0E9
:10040000AECFA0E0B0E08093C3049093C404A09367
:10041000C504B093C604089581E090E0F8940C946C
:100420001928FB01DC0102C001900D92415050409F
:10043000D8F70895DC0101C06D9341505040E0F7BA
:1004400008950F931F93CF93DF938C01EB018B8162
:1004500081FF1BC082FF0DC02E813F818C819D8159
:100460002817390764F4E881F9810193F983E88357
:1004700006C0E885F985802F1995892B31F48E8186
:100480009F8101969F838E8302C00FEF1FEFC801EB
:10049000DF91CF911F910F910895A0E0B0E0E3E5C7
:1004A000F2E00C94F227FE013696619171918091F1
:1004B000D5109091D610AF015CD02096E2E00C945C
:1004C0000E280F931F93CF93DF938C01E091D510EB
:1004D000F091D610838181FF21C0C0E0D0E00DC033
:1004E000E091D510F091D61020853185BF01F9013A
:1004F0001995892B11F0CFEFDFEFF80181918F0172
:10050000882371F7E091D510F091D61020853185C0
:100510008AE0BF01F9011995892B11F0CFEFDFEFC8
:10052000CE01DF91CF911F910F910895AEE0B0E021
:10053000ECE9F2E00C94F0270E891F8986E08C83A9
:100540001A8309838FEF9FE79E838D839E01265E2A
:100550003F4FCE010196688D798DA9010AD02F8178
:100560003885020F131FF80110822E96E4E00C94D8
:100570000C28ABE0B0E0EFEBF2E00C94E2273C019A
:100580002B015A01FC0117821682838181FD03C071
:100590006FEF7FEFB9C19AE0892E1E010894211CEC
:1005A000311CF3012381F20123FD859123FF819109
:1005B0002F01882309F4A5C1853239F423FD8591E3
:1005C00023FF81912F01853221F490E0B30139DFBF
:1005D000E8CF982FFF24EE249924FFE1FF15D0F0F7
:1005E0009B3269F09C3228F4903259F0933291F4A6
:1005F0000EC09D3249F0903369F441E024C052E0CE
:10060000F52A84E0F82A28C098E0F92A25C0E0E11C
:10061000FE2A22C0F7FC29C0892F80538A3070F44B
:10062000F6FE05C0989C902C1124980E15C0E89CED
:10063000E02C1124E80EF0E2FF2A0EC09E3229F4CD
:10064000F6FC5FC140E4F42A07C09C3619F450E878
:10065000F52A02C0983649F4F20123FD959123FF53
:1006600091912F01992309F0B8CF892F85548330B8
:1006700018F08052833038F444E050E0A40EB51EE8
:100680005FE359830FC0933631F0933779F0933598
:1006900009F052C01FC0F5018081898342E050E01B
:1006A000A40EB51E610101E010E011C0F501C0808B
:1006B000D180F6FC03C06FEF7FEF02C0692D70E0C0
:1006C00042E050E0A40EB51EC6012ED18C015FE7BA
:1006D000F52213C0F501C080D180F6FC03C06FEF96
:1006E0007FEF02C0692D70E042E050E0A40EB51E1D
:1006F000C6010FD18C0150E8F52AF3FE06C018C0E0
:1007000080E290E0B3019DDEEA948E2D90E0081720
:100710001907B0F30DC0F601F7FC8591F7FE819142
:100720006F0190E0B3018DDEE110EA9401501040BA
:100730000115110581F7E2C0943611F0993661F583
:10074000F7FE08C0F501208131814281538184E0A8
:1007500090E00AC0F501808191819C01442737FD1A
:100760004095542F82E090E0A80EB91E9FE6F92232
:1007700057FF09C050954095309521953F4F4F4FF9
:100780005F4FE0E8FE2ACA01B901A1012AE030E08A
:10079000D6D0D82ED2183FC0953729F41F2D1F7EF2
:1007A0002AE030E01DC01F2D197F9F3661F0903781
:1007B00020F4983509F0A5C00FC0903739F098376C
:1007C00009F09FC004C028E030E00AC0106114FDA9
:1007D000146020E130E004C014FD166020E132E036
:1007E00017FF08C0F501608171818281938144E027
:1007F00050E008C0F50180819181BC0180E090E06B
:1008000042E050E0A40EB51EA10199D0D82ED21816
:100810008FE7F82EF122F6FE0BC05EEFF522D91419
:1008200038F4F4FE07C0F2FC05C08FEEF82202C0D7
:100830001D2D01C0192DF4FE0DC0FE01ED0DF11DA1
:100840008081803319F499EEF92208C01F5FF2FE0F
:1008500005C003C08F2D867809F01F5F0F2DF3FCB4
:1008600013C0F0FE0EC01E1510F09D2C0AC09D2C6A
:100870009E0C911A1E2D05C080E290E0B301E1DDCF
:100880001F5F1E15C8F304C01E1510F4E11A01C045
:10089000EE2404FF0EC080E390E0B301D2DD02FF3E
:1008A0001BC001FD03C088E790E00EC088E590E022
:1008B0000BC0802F867881F001FF02C08BE201C05F
:1008C00080E2F7FC8DE290E0B301BBDD05C080E380
:1008D00090E0B301B6DD9A94D914C8F3DA94F1012B
:1008E000ED0DF11D808190E0B301ABDDDD20B1F7AE
:1008F00005C080E290E0B301A4DDEA94EE20C9F7E0
:1009000050CEF30166817781CB012B96E2E10C9406
:10091000FE27FC010590615070400110D8F78095CA
:1009200090958E0F9F1F0895FC01615070400190BB
:100930000110D8F7809590958E0F9F1F0895FA01AA
:10094000AA27283051F1203181F1E8946F936E7F0E
:100950006E5F7F4F8F4F9F4FAF4FB1E03ED0B4E0FF
:100960003CD0670F781F891F9A1FA11D680F791F40
:100970008A1F911DA11D6A0F711D811D911DA11D51
:1009800020D009F468943F912AE0269F1124301961
:10099000305D3193DEF6CF010895462F4770405DFC
:1009A0004193B3E00FD0C9F7F6CF462F4F70405DAB
:1009B0004A3318F0495D31FD4052419302D0A9F706
:1009C000EACFB4E0A6959795879577956795BA9500
:1009D000C9F700976105710508959B01AC010A2EC6
:1009E00006945795479537952795BA95C9F7620F9D
:1009F000731F841F951FA01D08954F925F926F92E1
:100A00007F929F92AF92BF92CF92DF92EF92FF922E
:100A10000F931F93DF93CF9300D00F92CDB7DEB724
:100A20000E94311F2B013C0138EEE32E33E0F32E00
:100A3000012D112DE60EF71E081F191F99249394FE
:100A400086E79EE30E94981F0E94311F5B016C01A4
:100A50006E157F058007910790F38FE3891508F4E1
:100A600041C086017501E418F50806091709892DAA
:100A700090E082959295907F9827807F98275C01DF
:100A8000CC24DD24C601B50128EC30E040E050E084
:100A90000E945927E616F7060807190708F5AE144D
:100AA000BF04C006D106D0F4A80197010E949F2779
:100AB00088EC821B0F900F900F900F90CF91DF91D9
:100AC0001F910F91FF90EF90DF90CF90BF90AF906C
:100AD0009F907F906F905F904F90089580E0EACF55
:100AE00088ECE8CF789400D00F9280E092E0EDB7E8
:100AF000FEB7928381838EE790E094838383CDDC7D
:100B000080E090E0A0E4B0E089839A83AB83BC836B
:100B100089819A81AB81BC810F900F900F900F90CB
:100B20000097A105B10599F089819A81AB81BC81BB
:100B30000197A109B10989839A83AB83BC83898119
:100B40009A81AB81BC810097A105B10569F70C942E
:100B5000000087CF0E94A21FBAD380E090E00895E2
:100B6000E0E7F0E08081816080830895662399F456
:100B700090E0FC01EE0FFF1F9F01220F331F220F99
:100B8000331F220F331FE20FF31FE80FF91FEA5E36
:100B9000F94F82890895282F30E0F894C901880F11
:100BA000991FFC01EE0FFF1FEE0FFF1FEE0FFF1F3F
:100BB000E80FF91FE20FF31FEA5EF94F8289128AEC
:100BC0007894089590E0FC01EE0FFF1F9F01220F23
:100BD000331F220F331F220F331FE20FF31FE80FC3
:100BE000F91FEA5EF94FA781B0858C91893251F4E3
:100BF000FD01319680818932E1F39F012A1B3B0B75
:100C0000C901089520E030E0FBCFEF92FF920F93EF
:100C10001F93DF93CF9300D00F92CDB7DEB77C0147
:100C20008070907C892B09F0BFC01091B606A0E0BF
:100C300000E0011708F05BC0E02FF0E0EE0FFF1FAF
:100C4000E655F94F40815181FA0185859685678582
:100C50007089970126233723282B392B3687258740
:100C60008217930709F457C08189882309F050C07F
:100C7000C901862797279F73892B39F06070707C94
:100C800062237323672B09F446C0DA011296EC91B4
:100C9000129716968C9116971C968C93F0E0DF01B4
:100CA000A955B94F8C91EE0FFF1FE80FF11DEE0F04
:100CB000FF1FE556F94F518340838F5F8C9311508E
:100CC000011788F4202FE22FF0E0EE0FFF1FDF0165
:100CD000A455B94F8D919C91E655F94F918380832E
:100CE0002F5F211780F3A1E0011708F4A5CF10931F
:100CF000B606AA2391F440E0842F0F900F900F9036
:100D00000F90CF91DF911F910F91FF90EF90089579
:100D1000232B09F0BACF0F5F8CCF8091A9068823CF
:100D200009F07EC08091A806882309F096C08091C2
:100D3000A706882309F094C0789400D00F928EE320
:100D400092E0EDB7FEB7928381838EEC92E09483BC
:100D50008383A3DB80E090E0A0E4B0E089839A8302
:100D6000AB83BC8389819A81AB81BC810F900F904A
:100D70000F900F900097A105B10599F089819A8194
:100D8000AB81BC810197A109B10989839A83AB83A7
:100D9000BC8389819A81AB81BC810097A105B10593
:100DA00069F70C940000A7CF789400D00F928EE3DF
:100DB00092E0ADB7BEB712969C938E9311978EECCE
:100DC00093E014969C938E93139767DB80E090E0FA
:100DD000A0E4B0E089839A83AB83BC8389819A8144
:100DE000AB81BC810F900F900F900F900097A105E1
:100DF000B10599F089819A81AB81BC810197A109E4
:100E0000B10989839A83AB83BC8389819A81AB8141
:100E1000BC810097A105B10569F70C94000005CFCE
:100E2000E2E0F0E02091C8043091C9043093150647
:100E300020931406EE0FFF1FEE0FFF1FE556F94F2C
:100E4000808191819093C9048093C80440E0281761
:100E5000390749F081E048274FCFE1E0F0E0E2CFE9
:100E6000E0E0F0E0DFCF41E0F5CFF8940F920FB66D
:100E70000F921F922F923F924F925F926F927F92AA
:100E80008F929F92AF92BF92CF92DF92EF92FF929A
:100E90000F931F932F933F934F935F936F937F9382
:100EA000AF93BF93CF93DF93EF93FF938F939F9372
:100EB000ACDE882309F435C0A091C804B091C90400
:100EC0008D919C9111979093D2108093D1100DB673
:100ED0000092CF100EB60092D0100090D1100DBE2F
:100EE0000090D2100EBE8091CF109091D010E09162
:100EF0001406F0911506918380831D968D919C9127
:100F00001E97009771F09093D2108093D1101E9687
:100F10001C921E921D970090D1100F920090D2103B
:100F20000F929F918F91FF91EF91DF91CF91BF91A0
:100F3000AF917F916F915F914F913F912F911F9151
:100F40000F91FF90EF90DF90CF90BF90AF909F9068
:100F50008F907F906F905F904F903F902F901F9059
:100F60000F900FBE0F901895AF92BF92CF92DF9265
:100F7000EF92FF920F931F93DF93CF9300D00F92C6
:100F8000CDB7DEB76C01A62EB42E0091C804109127
:100F9000C90426E00838120709F4CCC0F8018281A0
:100FA000482F50E0FA01E955F94F90819150908314
:100FB0009923F9F060E070E021E030E07A01EE0C76
:100FC000FF1C492F50E04F5F5F4FF701E60FF71FFF
:100FD000EE0FFF1FDF01A356B94F8D919C91E5568F
:100FE000F94F91838083B9012F5F3F4F2417350755
:100FF00061F7C114D10469F0C6018070907C805003
:10100000904C39F0AA2009F43BC0C6019F73892B8C
:10101000B9F5789400D00F928EE392E0EDB7FEB769
:101020009283818381E495E09483838336DA80E040
:1010300090E0A0E4B0E089839A83AB83BC8389818C
:101040009A81AB81BC810F900F900F900F90009709
:10105000A105B10599F089819A81AB81BC81019785
:10106000A109B10989839A83AB83BC8389819A8161
:10107000AB81BC810097A105B10569F70C94000014
:10108000D6FE4BC0F80185818B0D85839091C704F6
:10109000891B18160CF047C0F801D08AC786118A40
:1010A000AA2011F481E0818B8091B606E82FF0E050
:1010B000EE0FFF1FE655F94F118300838F5F80937A
:1010C000B6068091C8049091C90490931506809348
:1010D000140688E896E09093C9048093C804809130
:1010E000A906882309F062C08091A806882309F028
:1010F0006CC08091A706882309F06AC00F900F90FA
:101100000F900F90CF91DF911F910F91FF90EF9073
:10111000DF90CF90BF90AF900895FFEFBF12B394D0
:10112000F801B386B9CF82898F3F09F4B5CF8F5FBD
:10113000828BB2CF789400D00F928EE392E0EDB71D
:10114000FEB79283818387EE95E094838383A5D94C
:1011500080E090E0A0E4B0E089839A83AB83BC8315
:1011600089819A81AB81BC810F900F900F900F9075
:101170000097A105B10599F089819A81AB81BC8165
:101180000197A109B10989839A83AB83BC838981C3
:101190009A81AB81BC810097A105B10569F70C94D8
:1011A00000000091C8041091C904F8CEE2E0F0E01C
:1011B000EE0FFF1FEE0FFF1FE556F94F8081918163
:1011C0009093C9048093C80499CFE1E0F0E0F0CF98
:1011D000E0E0F0E0EDCFF8940F920FB60F921F927F
:1011E0002F923F924F925F926F927F928F929F9237
:1011F000AF92BF92CF92DF92EF92FF920F931F9325
:101200002F933F934F935F936F937F93AF93BF93CE
:10121000CF93DF93EF93FF93A7DEA091C804B09123
:10122000C9048D919C9111979093D2108093D11005
:101230000DB60092CF100EB60092D0100090D110D3
:101240000DBE0090D2100EBE8091CF109091D010A4
:10125000E0911406F0911506918380831D968D917F
:101260009C911E97009771F09093D2108093D110AB
:101270001E961C921E921D970090D1100F92009006
:10128000D2100F929F918F91FF91EF91DF91CF91AB
:10129000BF91AF917F916F915F914F913F912F914E
:1012A0001F910F91FF90EF90DF90CF90BF90AF9084
:1012B0009F908F907F906F905F904F903F902F9076
:1012C0001F900F900FBE0F90189580E090E02F9226
:1012D0003F924F925F926F927F928F929F92AF92C6
:1012E000BF92CF92DF92EF92FF920F931F93DF9303
:1012F000CF9300D00F92CDB7DEB706E116E085E8B8
:10130000D8011D928A95E9F7AED66AEAE62E66E024
:10131000F62E5EE3A52E52E0B52E4FED842E47E06B
:10132000942E412C512C30E4632E712C20E8322E67
:1013300099E2292ED02EC12EF80183819481009745
:1013400061F0678170856115710539F00184F2855E
:10135000E02DE233F10508F03EC0789400D00F9202
:10136000ADB7BEB71296BC92AE92119714969C92EE
:101370008E92139792D849825A826B827C8289819D
:101380009A81AB81BC810F900F900F900F900097C6
:10139000A105B10599F089819A81AB81BC81019742
:1013A000A109B10989839A83AB83BC8389819A811E
:1013B000AB81BC810097A105B10569F70C940000D1
:1013C000F801678170850184F285E02DD8011396BC
:1013D0008D919C9114973197E60FF71F1082DF01D2
:1013E0001E921E928E939C01442737FD4095542FE8
:1013F0003E93252F3327442755272E931E923E9246
:101400001E92CD010197DC017F971C921197AE17B8
:10141000BF07D9F74697FC011082DC011E92FD013F
:101420001292DF011E92FD011292DF011E921197AE
:10143000A617B70730F0FD0120823197E617F707AE
:10144000D8F7F801B183A083148616861586128A10
:10145000D701DC921196CC920D5E1F4FE2E0F0E0D6
:10146000EE0EFF1EF6E008381F0709F063CF86E096
:101470008093B606D80111961C921E9215961C9266
:1014800015971B961C921B971C961C921C971E96D8
:101490001C921E921D9750961C921E921F9781E0DF
:1014A00051968C93519752961C921092A7061092C7
:1014B000A8061092A9061093C9040093C8041093BB
:1014C0001506009314064CDB2DD3FECF6F927F924E
:1014D0008F92AF92BF92CF92DF92EF92FF920F93D3
:1014E0001F93DF93CF9300D00F92CDB7DEB7B22E0C
:1014F000360193E1899F6001112486E196E0C80ED0
:10150000D91EF6017483638310870783F286E18610
:1015100042836114710409F476C0F60113861582C2
:10152000C3018070907C8050904C39F0AA2009F45F
:101530003CC0C3019F73892BC1F50EE312E0789480
:1015400000D00F92EDB7FEB71283018381E495E0DE
:10155000948383830E944D0280E090E0A0E4B0E099
:1015600089839A83AB83BC8389819A81AB81BC8157
:101570000F900F900F900F900097A105B10599F073
:1015800089819A81AB81BC810197A109B1098983C5
:101590009A83AB83BC8389819A81AB81BC8100979C
:1015A000A105B10569F70C94000076FE26C0F6018E
:1015B0008581880D85839091C704891B18160CF0CE
:1015C0005EC0F601708A6786118AAA2011F481E054
:1015D000818BF601B6820F900F900F900F90CF91F4
:1015E000DF911F910F91FF90EF90DF90CF90BF9010
:1015F000AF908F907F906F900895FFEF8F1283943C
:10160000F6018386DECF789400D00F920EE312E0CD
:10161000EDB7FEB7128301838DE897E0948383834F
:101620000E944D0280E090E0A0E4B0E089839A83BC
:10163000AB83BC8389819A81AB81BC810F900F9071
:101640000F900F900097A105B10599F089819A81BB
:10165000AB81BC810197A109B10989839A83AB83CE
:10166000BC8389819A81AB81BC810097A105B105BA
:1016700069F70C940000F6011386158260CF828909
:101680008F3F09F49ECF8F5F828B9BCFEF92FF92AB
:101690000F931F93DF93CF9300D00F92CDB7DEB798
:1016A000F090C704F394F092C7041091B606EE24AC
:1016B00000E0011708F074C0A02FB0E0AA0FBB1F14
:1016C000FD01E655F94F0190F081E02D2585368525
:1016D000A9018581F81609F4F3C08385882361F098
:1016E00081508387882341F4878590898070907822
:1016F000282B392B368725872417350709F4DEC0B8
:10170000A655B94F2D913C91D9011D964D915C91F3
:101710001E9751968C91882369F4F9016785708929
:10172000CB01842795279F73892B39F046235723B4
:101730004070507C452B09F4C1C0D9011296EC9140
:10174000129716968C9116971C968C93F0E0DF01F9
:10175000A955B94F8C91EE0FFF1FE80FF11DEE0F49
:10176000FF1FE556F94F318320838F5F8C93115013
:10177000011788F4202FE22FF0E0EE0FFF1FDF01AA
:10178000A455B94F8D919C91E655F94F9183808373
:101790002F5F211780F3EE24E394011708F48CCF18
:1017A0001093B6066091C8047091C904FB0184854A
:1017B000882309F48FC081508487882309F08AC068
:1017C000868184878281482F50E0FA01E955F94FDC
:1017D000E081E23008F47EC03E2F3150DA01AA0FDA
:1017E000BB1FAA0FBB1FA556B94F21E012968D91C2
:1017F0009C9113978D939D932F5F2E17B9F7440FEC
:10180000551F430F511D440F551F4556594FDA01BF
:101810006D937C938091A906882309F077C080910D
:10182000A806882309F075C08091A706882309F0CF
:1018300054C0789400D00F928EE392E0EDB7FEB7DB
:10184000928381838EEC92E0948383830E944D0285
:1018500080E090E0A0E4B0E089839A83AB83BC830E
:1018600089819A81AB81BC810F900F900F900F906E
:101870000097A105B10599F089819A81AB81BC815E
:101880000197A109B10989839A83AB83BC838981BC
:101890009A81AB81BC810097A105B10569F70C94D1
:1018A000000020E0822F0F900F900F900F90CF91AB
:1018B000DF911F910F91FF90EF9008950F5FF9CE88
:1018C0008785908980709074822B932B968785876B
:1018D0009C0103CFEE2029F39DCFE0E0F0E0709370
:1018E000150660931406EE0FFF1FEE0FFF1FE5565F
:1018F000F94F808191819093C9048093C80420E0BE
:101900006817790749F081E02827CCCFE2E0F0E0C2
:10191000E6CFE1E0F0E0E3CF21E0F5CF0F920FB6A4
:101920000F921F922F923F924F925F926F927F92EF
:101930008F929F92AF92BF92CF92DF92EF92FF92DF
:101940000F931F932F933F934F935F936F937F93C7
:10195000AF93BF93CF93DF93EF93FF938F939F93B7
:10196000112494DE882309F435C0A091C804B091F5
:10197000C9048D919C9111979093D2108093D110AE
:101980000DB60092CF100EB60092D0100090D1107C
:101990000DBE0090D2100EBE8091CF109091D0104D
:1019A000E0911406F0911506918380831D968D9128
:1019B0009C911E97009771F09093D2108093D11054
:1019C0001E961C921E921D970090D1100F920090AF
:1019D000D2100F929F918F91FF91EF91DF91CF9154
:1019E000BF91AF917F916F915F914F913F912F91F7
:1019F0001F910F91FF90EF90DF90CF90BF90AF902D
:101A00009F908F907F906F905F904F903F902F901E
:101A10001F900F900FBE0F901895CF93DF93FC018E
:101A20008491882381F0EF0121966091D510709107
:101A3000D610992787FD90950E942102FE012196DC
:101A40008491882391F76091D5107091D6108AE027
:101A500090E00E94210280E090E0DF91CF91089514
:101A6000AC0160E070E087E490E10E94E12287EB46
:101A700096E09093D6108093D5108FE49DE09093DC
:101A8000C0068093BF061092C2061092C10682E083
:101A90008093BA061092C4061092C30608951F934D
:101AA000182F8A3089F0612F772767FD709587E4BA
:101AB00090E10E94D22320E030E0019711F021E074
:101AC00030E0C9011F91089587E490E16DE00E9424
:101AD000D223E9CFDC016115710511F18C91E82F5A
:101AE000F0E08FEF90E0E827F92720E030E008C031
:101AF000FD01E20FF31F8081E82FF0E0E427F527D6
:101B0000E451FB4F8081482F50E02F5F3F4F261755
:101B1000370770F38FEF90E048275927842F0895F7
:101B200080E008952F923F924F925F926F927F9242
:101B30008F929F92AF92BF92CF92DF92EF92FF92DD
:101B40000F931F93DF93CF93CDB7DEB76C970FB68C
:101B5000F894DEBF0FBECDBF8DE061E00E94B720DC
:101B600066E970E080E090E00E943F1F8DE060E059
:101B70000E94B72066E970E080E090E00E943F1F7D
:101B80008DE061E00E94B72066E970E080E090E0BF
:101B90000E943F1F8DE060E00E94B72066E970E080
:101BA00080E090E00E943F1F8DE061E00E94B7203E
:101BB00066E970E080E090E00E943F1F8DE060E009
:101BC0000E94B72066E970E080E090E00E943F1F2D
:101BD00062E573E080E090E00E943F1F82E792E0C0
:101BE0000E9461020E94FD048093CA040E94FD04C9
:101BF0008093CA040E94FD048093CA048091CA04A1
:101C000000D00F9223E832E0ADB7BEB712963C93F6
:101C10002E93119790E001969595879514969C9335
:101C20008E9313970E944D02F894E090C506F090B1
:101C3000C6060091C7061091C806A090C906B090CC
:101C4000CA06C090CB06D090CC066090CD067090AE
:101C5000CE068090CF069090D0062090D10630908E
:101C6000D2064090D3065090D4062091D5063091EC
:101C7000D6064091D7065091D8068091D90690910A
:101C8000DA06A091DB06B091DC06898F9A8FAB8FC4
:101C9000BC8F8091DD069091DE06A091DF06B091A9
:101CA000E0068D8B9E8BAF8BB88F8091E106909173
:101CB000E206A091E306B091E406898B9A8BAB8B88
:101CC000BC8B8091E5069091E606A091E706B09165
:101CD000E8068D879E87AF87B88B8091E906909143
:101CE000EA06A091EB06B091EC0689879A87AB874C
:101CF000BC878091ED069091EE06A091EF06B09121
:101D0000F0068D839E83AF83B8878091F106909112
:101D1000F206A091F306B091F40689839A83AB830F
:101D2000BC837894ADB7BEB752970FB6F894BEBFD8
:101D30000FBEADBFEDB7FEB7319684E992E01296C3
:101D40009C938E931197E282F382048315832683FA
:101D5000378340875187A286B386C486D586668638
:101D60007786808A918A228A338A448A558A0E9499
:101D70004D022091CB04EDB7FEB73A970FB6F89419
:101D8000FEBF0FBEEDBF31968BE093E0ADB7BEB79F
:101D900012969C938E931197332727FD30953383AA
:101DA0002283898D9A8DAB8DBC8D84839583A68388
:101DB000B7838D899E89AF89B88D80879187A287E7
:101DC000B38789899A89AB89BC8984879587A687D7
:101DD000B7878D859E85AF85B889808B918BA28BC7
:101DE000B38B89859A85AB85BC85848B958BA68BB7
:101DF000B78B8D819E81AF81B885808F918FA28FA7
:101E0000B38F89819A81AB81BC81848F958FA68F96
:101E1000B78F0E944D02ADB7BEB790960FB6F8943B
:101E2000BEBF0FBEADBF80E00E94E2058C0180E026
:101E300060E00E94B605EDB7FEB738970FB6F8948C
:101E4000FEBF0FBEEDBF319693ECE92E93E0F92E65
:101E5000ADB7BEB71296FC92EE9211971382128222
:101E600015830483868317820E944D02EDB7FEB767
:101E700038960FB6F894FEBF0FBEEDBF81E00E940A
:101E8000E2058C0181E060E00E94B6052DB73EB707
:101E9000285030400FB6F8943EBF0FBE2DBFEDB7AF
:101EA000FEB73196ADB7BEB71296FC92EE9211977F
:101EB00021E030E0338322831583048386831782F5
:101EC0000E944D02EDB7FEB738960FB6F894FEBFEC
:101ED0000FBEEDBF82E00E94E2058C0182E060E06F
:101EE0000E94B6052DB73EB7285030400FB6F89483
:101EF0003EBF0FBE2DBFEDB7FEB73196ADB7BEB733
:101F00001296FC92EE92119722E030E03383228306
:101F100015830483868317820E944D02EDB7FEB7B6
:101F200038960FB6F894FEBF0FBEEDBF83E00E9457
:101F3000E2058C0183E060E00E94B6052DB73EB754
:101F4000285030400FB6F8943EBF0FBE2DBFEDB7FE
:101F5000FEB73196ADB7BEB71296FC92EE921197CE
:101F600023E030E033832283158304838683178242
:101F70000E944D02EDB7FEB738960FB6F894FEBF3B
:101F80000FBEEDBF84E00E94E2058C0184E060E0BA
:101F90000E94B6052DB73EB7285030400FB6F894D2
:101FA0003EBF0FBE2DBFEDB7FEB73196ADB7BEB782
:101FB0001296FC92EE92119724E030E03383228354
:101FC00015830483868317820E944D02EDB7FEB706
:101FD00038960FB6F894FEBF0FBEEDBF85E00E94A5
:101FE000E2058C0185E060E00E94B6052DB73EB7A2
:101FF000285030400FB6F8943EBF0FBE2DBFEDB74E
:10200000FEB73196ADB7BEB71296FC92EE9211971D
:1020100025E030E03383228315830483868317828F
:102020000E944D02EDB7FEB738960FB6F894FEBF8A
:102030000FBEEDBF6C960FB6F894DEBF0FBECDBFDE
:10204000CF91DF911F910F91FF90EF90DF90CF9094
:10205000BF90AF909F908F907F906F905F904F90C8
:102060003F902F9008958F92AF92CF92DF92EF9290
:10207000FF920F931F9380E895E2F2DC84EE90E0EC
:10208000CCDC0E941C1B8DE061E00E9404200E94B9
:10209000D81C80E068E775E142E020E001ED1CE03B
:1020A0005CE2E52E51E0F52EC12C30E8D32EAA24B7
:1020B00088240CDA81E06FE471E140E020E005EA79
:1020C0001BE091E0C92ED12C01DA82E060EA77E1D1
:1020D00042E020E009E71AE0B2E0CB2ED12CF6D99D
:1020E00083E062E773E141E021E00DE419E0C12CF7
:1020F000A0E8DA2EF3E08F2EE9D984E06FE776E1ED
:1021000041E021E001E218E0E4E0CE2ED12C882469
:10211000DDD985E06FE970E140E020E005EF16E0F1
:10212000C12C50E8D52E3AE0832ED0D91F910F91C3
:10213000FF90EF90DF90CF90AF908F9008950F9326
:102140001F93DF93CF9300D00F92CDB7DEB78050AF
:10215000904809F06BC00CEF13E0F8942091C90689
:102160003091CA064091CB065091CC066091D106C1
:102170007091D2068091D3069091D4067894620F24
:10218000731F841F951F0E944B1B8091CB049927BE
:1021900087FD90950E94D41B8091CA040E94541C14
:1021A00080E090E460E042E616D8892BB1F678949E
:1021B00000D00F92EDB7FEB71283018387E493E05E
:1021C000948383830E944D0280E090E0A0E4B0E01D
:1021D00089839A83AB83BC8389819A81AB81BC81DB
:1021E0000F900F900F900F900097A105B10599F0F7
:1021F00089819A81AB81BC810197A109B109898349
:102200009A83AB83BC8389819A81AB81BC8100971F
:10221000A105B10569F70C9400000F900F900F9085
:102220000F90CF91DF911F910F910895789400D076
:102230000F920CEF13E0EDB7FEB71283018387E333
:1022400093E0948383830E944D0280E090E0A0E4B9
:10225000B0E089839A83AB83BC8389819A81AB8107
:10226000BC810F900F900F900F900097A105B105C2
:1022700099F089819A81AB81BC810197A109B1094B
:1022800089839A83AB83BC8389819A81AB81BC812A
:102290000097A105B10569F70C9400005ECFEF929D
:1022A000FF920F931F93DF93CF9300D00F92CDB780
:1022B000DEB7EDB6FEB680FFDEC08091010E9091D4
:1022C000020E892B09F4D7C00CEF13E085E090E0F3
:1022D0006DE070E041E050E00E94751D2DB73EB703
:1022E000281B390B0FB6F8943EBF0FBE2DBF8DB71C
:1022F0009EB7019665E070E04DE050E021E030E0EF
:102300000E942C1D9093000E8093FF0D82E090E0C0
:102310000E943507F8948091D5069091D606A09139
:10232000D706B091D8060196A11DB11D8093D506A0
:102330009093D606A093D706B093D8067894809150
:10234000030E9091040E892B31F18091010E909132
:10235000020E0E94A51DAC01009709F43DC08091BA
:10236000030E9091040E9C01D901FA018DE00190B9
:102370000D928150E1F78091FF0D9091000E0E9427
:102380004B1E1092040E1092030E8091030E90913A
:10239000040E892BD1F68091FF0D9091000E0E94C2
:1023A000A61E9093040E8093030E009771F6F89486
:1023B0008091E5069091E606A091E706B091E806C7
:1023C0000196A11DB11D8093E5069093E606A093AA
:1023D000E706B093E806789480E090E460E041E19D
:1023E0000E94EB08892B09F095CF789400D00F92CA
:1023F000EDB7FEB71283018389E892E0948383836B
:102400000E944D0280E090E0A0E4B0E089839A83CE
:10241000AB83BC8389819A81AB81BC810F900F9083
:102420000F900F900097A105B10599F089819A81CD
:10243000AB81BC810197A109B10989839A83AB83E0
:10244000BC8389819A81AB81BC810097A105B105CC
:1024500069F70C9400000FB6F894FEBE0FBEEDBEF7
:102460000F900F900F900F90CF91DF911F910F91D0
:10247000FF90EF900895789400D00F920CEF13E046
:10248000EDB7FEB71283018381E692E094838383E4
:102490000E944D0280E090E0A0E4B0E089839A833E
:1024A000AB83BC8389819A81AB81BC810F900F90F3
:1024B0000F900F900097A105B10599F089819A813D
:1024C000AB81BC810197A109B10989839A83AB8350
:1024D000BC8389819A81AB81BC810097A105B1053C
:1024E00069F70C940000F2CEDF93CF9300D00F92E7
:1024F000CDB7DEB78091FD0D9091FE0D0E94201D9D
:10250000089708F0B2C08091ED069091EE06A09178
:10251000EF06B091F0060097A105B10509F063C080
:102520008091CE04882309F44BC00E94FE01809361
:10253000D1040E94FE018093D2040E94FE01809388
:10254000D3040E94FE018093D4040E94FE01809374
:10255000D5040E94FE018093D6040E94FE01809360
:10256000D7040E94FE018093D8040E94FE0180934C
:10257000D9040E94FE018093DA048091CF049091E7
:10258000D00401969093D0048093CF048FEC94E014
:102590006CE070E09FDA482F8093DB042091CC043C
:1025A0003091CD042115310559F0C901937001977F
:1025B00009F494C0215030403093CD042093CC04D2
:1025C0008091FD0D9091FE0D6FEC74E04DE050E0B8
:1025D0000E94CF1D8093CE040F900F900F900F900C
:1025E000CF91DF9108958091FD0D9091FE0D0E9495
:1025F000201D079709F494CF789400D00F928CEFA8
:1026000093E0EDB7FEB79283818380EB91E09483F2
:1026100083830E944D0280E090E0A0E4B0E08983D3
:102620009A83AB83BC8389819A81AB81BC810F90F3
:102630000F900F900F900097A105B10599F0898137
:102640009A81AB81BC810197A109B10989839A83E1
:10265000AB83BC8389819A81AB81BC810097A10542
:10266000B10569F70C9400005BCF789400D00F920D
:102670008CEF93E0EDB7FEB7928381838DEA91E012
:10268000948383830E944D0280E090E0A0E4B0E058
:1026900089839A83AB83BC8389819A81AB81BC8116
:1026A0000F900F900F900F900097A105B10599F032
:1026B00089819A81AB81BC810197A109B109898384
:1026C0009A83AB83BC8389819A81AB81BC8100975B
:1026D000A105B10569F70C94000015CF4F5F409339
:1026E000DB0468CFEF92FF920F931F93DF93CF939A
:1026F00000D00F92CDB7DEB7EDB6FEB68050904851
:1027000009F0BFC00CEF13E087E090E06DE070E0EF
:1027100041E050E00E94751D2DB73EB7281B390BD4
:102720000FB6F8943EBF0FBE2DBF8DB79EB7019672
:1027300067E070E04DE050E021E030E00E942C1DA9
:102740009093FE0D8093FD0D84E090E00E9435078C
:102750001DC0F8948091E9069091EA06A091EB06DD
:10276000B091EC060196A11DB11D8093E9069093EE
:10277000EA06A093EB06B093EC06789480E090E82C
:1027800060E041E00E94EB08892BA9F1F894809168
:10279000CD069091CE06A091CF06B091D0060196BD
:1027A000A11DB11D8093CD069093CE06A093CF06B8
:1027B000B093D006789498DE882359F6F8948091E7
:1027C000ED069091EE06A091EF06B091F00601960D
:1027D000A11DB11D8093ED069093EE06A093EF0628
:1027E000B093F006789480E090E860E041E00E94C9
:1027F000EB08892B59F6789400D00F92EDB7FEB70D
:10280000128301838CEF92E0948383830E944D02B4
:1028100080E090E0A0E4B0E089839A83AB83BC833E
:1028200089819A81AB81BC810F900F900F900F909E
:102830000097A105B10599F089819A81AB81BC818E
:102840000197A109B10989839A83AB83BC838981EC
:102850009A81AB81BC810097A105B10569F70C9401
:1028600000000FB6F894FEBE0FBEEDBE0F900F90A5
:102870000F900F90CF91DF911F910F91FF90EF90EC
:102880000895789400D00F920CEF13E0EDB7FEB7E7
:102890001283018382EC92E0948383830E944D0231
:1028A00080E090E0A0E4B0E089839A83AB83BC83AE
:1028B00089819A81AB81BC810F900F900F900F900E
:1028C0000097A105B10599F089819A81AB81BC81FE
:1028D0000197A109B10989839A83AB83BC8389815C
:1028E0009A81AB81BC810097A105B10569F70C9471
:1028F00000000ACFDF93CF9300D00F92CDB7DEB7A1
:102900008091010E9091020E0E94201D099708F0FF
:10291000B2C08091DD069091DE06A091DF06B091F5
:10292000E0060097A105B10509F063C08091DE04BF
:10293000882309F44BC00E94FE018093E1040E94A9
:10294000FE018093E2040E94FE018093E3040E9452
:10295000FE018093E4040E94FE018093E5040E943E
:10296000FE018093E6040E94FE018093E7040E942A
:10297000FE018093E8040E94FE018093E9040E9416
:10298000FE018093EA048091DF049091E0040196B7
:102990009093E0048093DF048FED94E06CE070E0AE
:1029A00099D8482F8093EB042091DC043091DD040A
:1029B0002115310559F0C9019370019709F494C0AC
:1029C000215030403093DD042093DC048091010ECF
:1029D0009091020E6FED74E04DE050E00E94CF1D2B
:1029E0008093DE040F900F900F900F90CF91DF91A6
:1029F00008958091010E9091020E0E94201D08976B
:102A000009F494CF789400D00F928CEF93E0EDB757
:102A1000FEB79283818382EF90E0948383830E9448
:102A20004D0280E090E0A0E4B0E089839A83AB831C
:102A3000BC8389819A81AB81BC810F900F900F90EC
:102A40000F900097A105B10599F089819A81AB811A
:102A5000BC810197A109B10989839A83AB83BC83A7
:102A600089819A81AB81BC810097A105B10569F785
:102A70000C9400005BCF789400D00F928CEF93E021
:102A8000EDB7FEB7928381838FEE90E094838383CA
:102A90000E944D0280E090E0A0E4B0E089839A8338
:102AA000AB83BC8389819A81AB81BC810F900F90ED
:102AB0000F900F900097A105B10599F089819A8137
:102AC000AB81BC810197A109B10989839A83AB834A
:102AD000BC8389819A81AB81BC810097A105B10536
:102AE00069F70C94000015CF4F5F4093EB0468CF5B
:102AF000EF92FF920F931F93DF93CF9300D00F922B
:102B0000CDB7DEB7EDB6FEB68050904809F0BEC036
:102B10000CEF13E088E090E06DE070E041E050E001
:102B2000E4D72DB73EB7281B390B0FB6F8943EBF3C
:102B30000FBE2DBF8DB79EB7019668E070E04DE0E7
:102B400050E021E030E088D79093020E8093010E90
:102B500081E090E00E94350724C0F8948091D90666
:102B60009091DA06A091DB06B091DC060196A11DDA
:102B7000B11D8093D9069093DA06A093DB06B0933B
:102B8000DC0678940E94FE016AE070E00E948C27C7
:102B9000482F4F5F80E090E860E00E94EB08892BAF
:102BA00079F1F8948091C5069091C606A091C70668
:102BB000B091C8060196A11DB11D8093C5069093E2
:102BC000C606A093C706B093C806789493DE882300
:102BD00009F0C3CFF8948091DD069091DE06A091B4
:102BE000DF06B091E0060196A11DB11D8093DD06C0
:102BF0009093DE06A093DF06B093E0067894C2CFF0
:102C0000789400D00F92EDB7FEB7128301838DE464
:102C100092E0948383830E944D0280E090E0A0E4E0
:102C2000B0E089839A83AB83BC8389819A81AB812D
:102C3000BC810F900F900F900F900097A105B105E8
:102C400099F089819A81AB81BC810197A109B10971
:102C500089839A83AB83BC8389819A81AB81BC8150
:102C60000097A105B10569F70C9400000FB6F89420
:102C7000FEBE0FBEEDBE0F900F900F900F90CF9144
:102C8000DF911F910F91FF90EF900895789400D0FD
:102C90000F920CEF13E0EDB7FEB7128301838DE1C5
:102CA00092E0948383830E944D0280E090E0A0E450
:102CB000B0E089839A83AB83BC8389819A81AB819D
:102CC000BC810F900F900F900F900097A105B10558
:102CD00099F089819A81AB81BC810197A109B109E1
:102CE00089839A83AB83BC8389819A81AB81BC81C0
:102CF0000097A105B10569F70C9400000BCFCF92A6
:102D0000DF92EF92FF921F93DF93CF9300D00F9249
:102D1000CDB7DEB782FFD9C02091FD0D3091FE0DF9
:102D20002115310509F4D1C07CEFC72E73E0D72EF1
:102D3000F8948091D1069091D206A091D306B091DB
:102D4000D4060196A11DB11D8093D1069093D206A1
:102D5000A093D306B093D4067894C901F6D67C012B
:102D6000009709F43CC0FC011485F8948091F106A9
:102D70009091F206A091F306B091F4060196A11D80
:102D8000B11D8093F1069093F206A093F306B093E1
:102D9000F4067894C7016CE070E00E946A0D181781
:102DA00091F1F8948091CB048F3729F08091CB0476
:102DB0008F5F8093CB0478948091050E9091060EDE
:102DC00001969093060E8093050E2091FD0D309193
:102DD000FE0DC901BAD67C01009709F0C4CF0E944C
:102DE000FE016FE070E00E948C27482F4F5F80E06B
:102DF00090E860E00E94EB08892B29F12091FD0DFD
:102E00003091FE0D95CFF701208131818091050E23
:102E10009091060E2817390759F0F8948091CB0449
:102E20008F3729F08091CB048F5F8093CB04789407
:102E30002F5F3F4F3093060E2093050E2091FD0D1E
:102E40003091FE0D8ACF789400D00F92EDB7FEB787
:102E5000D282C18282E293E0948383830E944D02F6
:102E600080E090E0A0E4B0E089839A83AB83BC83E8
:102E700089819A81AB81BC810F900F900F900F9048
:102E80000097A105B10599F089819A81AB81BC8138
:102E90000197A109B10989839A83AB83BC83898196
:102EA0009A81AB81BC810097A105B10569F70C94AB
:102EB00000000F900F900F900F90CF91DF911F9116
:102EC000FF90EF90DF90CF900895789400D00F920C
:102ED0006CEFC62E63E0D62EEDB7FEB7D282C1826C
:102EE00081E193E0948383830E944D0280E090E02F
:102EF000A0E4B0E089839A83AB83BC8389819A8103
:102F0000AB81BC810F900F900F900F900097A1059F
:102F1000B10599F089819A81AB81BC810197A109A2
:102F2000B10989839A83AB83BC8389819A81AB8100
:102F3000BC810097A105B10569F70C9400005ECF34
:102F4000CF92DF92EF92FF921F93DF93CF9300D047
:102F50000F92CDB7DEB781FFD9C02091FF0D309120
:102F6000000E2115310509F4D1C0FCEFCF2EF3E09E
:102F7000DF2EF8948091C9069091CA06A091CB06E5
:102F8000B091CC060196A11DB11D8093C906909306
:102F9000CA06A093CB06B093CC067894C901D5D5C8
:102FA0007C01009709F43CC0FC011485F8948091E1
:102FB000E1069091E206A091E306B091E406019645
:102FC000A11DB11D8093E1069093E206A093E30654
:102FD000B093E4067894C7016CE070E00E946A0D3B
:102FE000181791F1F8948091CB048F3729F08091D4
:102FF000CB048F5F8093CB0478948091070E9091DF
:10300000080E01969093080E8093070E2091FF0DF5
:103010003091000EC90199D57C01009709F0C4CF09
:103020000E94FE016EE070E00E948C27482F4F5FE7
:1030300080E090E860E00E94EB08892B29F1209164
:10304000FF0D3091000E95CFF701208131818091E5
:10305000070E9091080E2817390759F0F8948091BF
:10306000CB048F3729F08091CB048F5F8093CB0402
:1030700078942F5F3F4F3093080E2093070E2091D6
:10308000FF0D3091000E8ACF789400D00F92EDB7EB
:10309000FEB7D282C18281EB92E0948383830E9447
:1030A0004D0280E090E0A0E4B0E089839A83AB8396
:1030B000BC8389819A81AB81BC810F900F900F9066
:1030C0000F900097A105B10599F089819A81AB8194
:1030D000BC810197A109B10989839A83AB83BC8321
:1030E00089819A81AB81BC810097A105B10569F7FF
:1030F0000C9400000F900F900F900F90CF91DF91E4
:103100001F91FF90EF90DF90CF900895789400D0BA
:103110000F92ECEFCE2EE3E0DE2EEDB7FEB7D282BB
:10312000C1828FE992E0948383830E944D0280E004
:1031300090E0A0E4B0E089839A83AB83BC8389816B
:103140009A81AB81BC810F900F900F900F900097E8
:10315000A105B10599F089819A81AB81BC81019764
:10316000A109B10989839A83AB83BC8389819A8140
:10317000AB81BC810097A105B10569F70C940000F3
:103180005ECFEF92FF920F931F93DF93CF93CDB754
:10319000DEB765970FB6F894DEBF0FBECDBFF82E31
:1031A000E92E00D000D0EDB7FEB731968E010B5F4F
:1031B0001F4FADB7BEB712961C930E93119789EAB5
:1031C00094E0938382838FEA94E0958384830E94C2
:1031D0009602EDB7FEB736960FB6F894FEBF0FBE57
:1031E000EDBF813191050CF0EAC18F2D9E2D60E07D
:1031F00040E00E9450268F2D9E2DB8010E948E2502
:103200001D8AC80160E270E040E150E00E941A02AD
:10321000D801EFEBF4E083E001900D928150E1F7EB
:103220008F2D9E2D60E041E00E9450268F2D9E2D17
:10323000B8010E948E256DE471E080E090E01FD619
:10324000C80160E270E040E150E00E941A02DE0135
:103250001696EFEBF4E083E001900D928150E1F7D8
:103260008F2D9E2D60E041E00E9450268F2D9E2DD7
:10327000B8010E948E256DE471E080E090E0FFD5FA
:10328000C80160E270E040E150E00E941A02DE01F5
:103290001796EFEBF4E083E001900D928150E1F797
:1032A0008F2D9E2D60E041E00E9450268F2D9E2D97
:1032B000B8010E948E256DE471E080E090E0DFD5DA
:1032C000C80160E270E040E150E00E941A02DE01B5
:1032D0001896EFEBF4E083E001900D928150E1F756
:1032E0008F2D9E2D60E041E00E9450268F2D9E2D57
:1032F000B8010E948E256DE471E080E090E0BFD5BA
:10330000C80160E270E040E150E00E941A02DE0174
:103310001996EFEBF4E083E001900D928150E1F714
:103320008F2D9E2D60E041E00E9450268F2D9E2D16
:10333000B8010E948E256DE471E080E090E09FD599
:10334000C80160E270E040E150E00E941A02DE0134
:103350001A96EFEBF4E083E001900D928150E1F7D3
:103360008F2D9E2D60E041E00E9450268F2D9E2DD6
:10337000B8010E948E256DE471E080E090E07FD579
:10338000C80160E270E040E150E00E941A02DE01F4
:103390001B96EFEBF4E083E001900D928150E1F792
:1033A0008F2D9E2D60E041E00E9450268F2D9E2D96
:1033B000B8010E948E256DE471E080E090E05FD559
:1033C000C80160E270E040E150E00E941A02DE01B4
:1033D0001C96EFEBF4E083E001900D928150E1F751
:1033E0008F2D9E2D60E041E00E9450268F2D9E2D56
:1033F000B8010E948E256DE471E080E090E03FD539
:10340000C80160E270E040E150E00E941A02DE0173
:103410001D96EFEBF4E083E001900D928150E1F70F
:103420008F2D9E2D60E041E00E9450268F2D9E2D15
:10343000B8010E948E256DE471E080E090E01FD518
:10344000C80160E270E040E150E00E941A02DE0133
:103450001E96EFEBF4E083E001900D928150E1F7CE
:103460008F2D9E2D60E041E00E9450268F2D9E2DD5
:10347000B8010E948E256DE471E080E090E0FFD4F9
:10348000C80160E270E040E150E00E941A02DE01F3
:103490001F96EFEBF4E083E001900D928150E1F78D
:1034A0008F2D9E2D60E041E00E9450268F2D9E2D95
:1034B000B8010E948E256DE471E080E090E0DFD4D9
:1034C000C80160E270E040E150E00E941A02DE01B3
:1034D0005096EFEBF4E083E001900D928150E1F71C
:1034E0008F2D9E2D60E041E00E9450268F2D9E2D55
:1034F000B8010E948E256DE471E080E090E0BFD4B9
:10350000C80160E270E040E150E00E941A02DE0172
:103510005196EFEBF4E083E001900D928150E1F7DA
:103520008F2D9E2D60E041E00E9450268F2D9E2D14
:10353000B8010E948E256DE471E080E090E09FD498
:10354000C80160E270E040E150E00E941A02DE0132
:103550005296EFEBF4E083E001900D928150E1F799
:103560008F2D9E2D60E041E00E9450268F2D9E2DD4
:10357000B8010E948E256DE471E080E090E07FD478
:10358000C80160E270E040E150E00E941A028F2D15
:103590009E2D60E041E00E9450268F2D9E2DB801A7
:1035A0000E948E2565960FB6F894DEBF0FBECDBF84
:1035B000CF91DF911F910F91FF90EF900895789434
:1035C00000D00F9284E494E0ADB7BEB712969C93FE
:1035D0008E93119785E890E014969C938E931397A1
:1035E0000E944D0280E090E0A0E4B0E089839A83DD
:1035F000AB83BC8389819A81AB81BC810F900F9092
:103600000F900F900097A105B10599F089819A81DB
:10361000AB81BC810197A109B10989839A83AB83EE
:10362000BC8389819A81AB81BC810097A105B105DA
:1036300069F70C940000D9CD89E09EE0A2CDAF924D
:10364000BF92CF92EF920F93B9E0AB2EBEE0BB2EAC
:10365000C50168E049E024E005E0A6E0EA2EF7E0D5
:10366000CF2E0E94212780EF95E090930A0E809341
:10367000090EC50160E142E020E00E948326C501F9
:103680000E943C26C5010E9442260F91EF90CF90E8
:10369000BF90AF9008950F931F93DF93CF93CDB753
:1036A000DEB72F970FB6F894DEBF0FBECDBF2DB794
:1036B0003EB7285030400FB6F8943EBF0FBE2DBF26
:1036C000EDB7FEB731968E010B5F1F4FADB7BEB79A
:1036D00012961C930E93119720E834E033832283D3
:1036E00064837583868397830E949602EDB7FEB745
:1036F00038960FB6F894FEBF0FBEEDBF8B30910524
:10370000B4F489E09EE066E040E00E94502689E043
:103710009EE0B8010E948E252F960FB6F894DEBF6A
:103720000FBECDBFCF91DF911F910F910895789477
:1037300000D00F9284E494E0ADB7BEB712969C938C
:103740008E93119785E191E014969C938E93139735
:103750000E944D0280E090E0A0E4B0E089839A836B
:10376000AB83BC8389819A81AB81BC810F900F9020
:103770000F900F900097A105B10599F089819A816A
:10378000AB81BC810197A109B10989839A83AB837D
:10379000BC8389819A81AB81BC810097A105B10569
:1037A00069F70C940000ADCF0F931F93DF93CF9375
:1037B000CDB7DEB72A970FB6F894DEBF0FBECDBFE8
:1037C00000D000D0EDB7FEB731968E010B5F1F4FD2
:1037D000ADB7BEB712961C930E9311972CE734E049
:1037E00033832283958384830E949602EDB7FEB7CC
:1037F00036960FB6F894FEBF0FBEEDBF863091052A
:10380000B4F489E09EE064E041E00E94502689E043
:103810009EE0B8010E948E252A960FB6F894DEBF6E
:103820000FBECDBFCF91DF911F910F910895789476
:1038300000D00F9284E494E0ADB7BEB712969C938B
:103840008E9311978AE391E014969C938E9313972D
:103850000E944D0280E090E0A0E4B0E089839A836A
:10386000AB83BC8389819A81AB81BC810F900F901F
:103870000F900F900097A105B10599F089819A8169
:10388000AB81BC810197A109B10989839A83AB837C
:10389000BC8389819A81AB81BC810097A105B10568
:1038A00069F70C940000ADCF0F931F93DF93CF9374
:1038B000CDB7DEB728970FB6F894DEBF0FBECDBFE9
:1038C00000D000D0EDB7FEB731968E010F5F1F4FCD
:1038D000ADB7BEB712961C930E93119720E434E057
:1038E0003383228390E00196959587959583848311
:1038F0000E949602EDB7FEB736960FB6F894FEBF5B
:103900000FBEEDBF84309105B4F489E09EE06CE019
:1039100041E00E94502689E09EE0B8010E948E2579
:1039200028960FB6F894DEBF0FBECDBFCF91DF91C2
:103930001F910F910895789400D00F9284E494E041
:10394000ADB7BEB712969C938E9311978BE891E01A
:1039500014969C938E9313970E944D0280E090E002
:10396000A0E4B0E08D839E83AF83B8878D819E8174
:10397000AF81B8850F900F900F900F900097A10521
:10398000B10599F08D819E81AF81B8850197A1091C
:10399000B1098D839E83AF83B8878D819E81AF816E
:1039A000B8850097A105B10569F70C940000ADCF6B
:1039B0000F931F93DF93CF93CDB7DEB761970FB609
:1039C000F894DEBF0FBECDBF8E010F5F1F4FD80131
:1039D000E6E8F4E081E101900D928150E1F789E0A1
:1039E0009EE060E040E00E94502689E09EE0B80141
:1039F0000E948E2500D00F92EDB7FEB7128301838F
:103A000087E994E0948383830E9496020F900F903D
:103A10000F900F9089E09EE060E041E00E94502608
:103A200089E09EE0B8010E948E2561960FB6F89459
:103A3000DEBF0FBECDBFCF91DF911F910F910895D3
:103A4000FC0126813781828193812817390710F480
:103A5000C90108950E940C02CF92DF92EF92FF926B
:103A60000F931F93CF93DF93FC018B016A01E90150
:103A700079010894E108F108C701822B932B019684
:103A8000220F331F8217930771F50F5F1F4F1383A8
:103A9000028301501040CE010D96BE010E9478278E
:103AA0006C9FC0016D9F900D7C9F900D11248E0F17
:103AB0009F1F918380838E219F21892BA1F41583E1
:103AC000048317821682D186C086138612861486D6
:103AD0001586CF01DF91CF911F910F91FF90EF904D
:103AE000DF90CF9008950E940C020F931F93CF9305
:103AF000DF93EC018B01FA01CA010197842B952B0E
:103B000001969A01220F331F82179307E1F4CF0128
:103B10000D96BF010E9478276E9F90016F9F300D18
:103B20007E9F300D112421960C9FC0010D9F900D9A
:103B30001C9F900D1124280F391FC901DF91CF91CF
:103B40001F910F9108950E940C02FC018485282F7B
:103B500030E0858590E082179307E9F02F5F3F4FB3
:103B6000828193812817390790F4822F848780857A
:103B70009185AC01249FC001259F900D349F900D2D
:103B8000112420813181280F391FC901089520E0B7
:103B900030E080E0EBCF20E030E0C9010895EF9203
:103BA000FF920F931F93CF93DF93EC017A01488527
:103BB00059854E155F0540F480E0DF91CF911F914C
:103BC0000F91FF90EF9008958C85A82FB0E02C8185
:103BD0003D8114C02F5F3F4F3D832C8301969B870F
:103BE0008A87EA81FB818E179F0720F01B861A8641
:103BF0002C813D812E173F0708F04BC08A859B859D
:103C0000A817B90739F7232BB9F28D85082F10E0D3
:103C10000F5F1F4F8A819B810817190790F100E001
:103C200010E080E090E028813981280F391F2115AC
:103C3000310511F2C901A7010E9411028A859B85F5
:103C40008017910731F10D878C819D8101979D83AC
:103C50008C832A813B8182179307D8F4215030400E
:103C6000281B390B8E819F818217930710F43F83A5
:103C70002E8381E0DF91CF911F910F91FF90EF9004
:103C80000895049FC001059F900D149F900D11246D
:103C9000CACF0E940C02FC018485682F70E0248149
:103CA000358114C02F5F3F4F35832483019693875E
:103CB0008287428153818417950720F013861286EC
:103CC000248135812417350708F03EC0828593850D
:103CD0006817790739F7232BB9F18585282F30E04C
:103CE0002F5F3F4F828193812817390718F120E019
:103CF00030E040E050E080819181840F951F892B56
:103D000019F18285938582179307F1F025878481C5
:103D1000958101979583848322813381215030409E
:103D2000281B390B868197818217930710F43783FC
:103D30002683089580859185289FA001299F500D95
:103D4000389F500D1124D7CF0E940C02FC018485AE
:103D5000682F70E02481358113C02F5F3F4F35837A
:103D60002483019693878287428153818417950724
:103D700020F013861286248135812417350738F503
:103D8000828593856817790741F7232B91F0858504
:103D9000282F30E02F5F3F4F82819381281739070A
:103DA00060F040E050E020813181240F351FC901CF
:103DB000089520E030E0C901089580859185289F0D
:103DC000A001299F500D389F500D1124ECCF0E9467
:103DD0000C021F920F920FB60F9211242F933F9354
:103DE0008F939F93AF93BF938091220E9091230E58
:103DF000A091240EB091250E3091260E0196A11DA2
:103E0000B11D232F2D5F2D3720F02D570196A11DB9
:103E1000B11D2093260E8093220E9093230EA09323
:103E2000240EB093250E80911E0E90911F0EA0912E
:103E3000200EB091210E0196A11DB11D80931E0E82
:103E400090931F0EA093200EB093210EBF91AF91BF
:103E50009F918F913F912F910F900FBE0F901F90C8
:103E600018958FB7F8942091220E3091230E40912F
:103E7000240E5091250E8FBFB901CA0108959B01F0
:103E8000AC017FB7F89480911E0E90911F0EA09107
:103E9000200EB091210E66B5A89B05C06F3F19F0AA
:103EA0000196A11DB11D7FBFBA2FA92F982F88277A
:103EB000860F911DA11DB11D62E0880F991FAA1FD9
:103EC000BB1F6A95D1F7BC012DC0FFB7F894809154
:103ED0001E0E90911F0EA091200EB091210EE6B5FE
:103EE000A89B05C0EF3F19F00196A11DB11DFFBFB2
:103EF000BA2FA92F982F88278E0F911DA11DB11DB4
:103F0000E2E0880F991FAA1FBB1FEA95D1F7861B15
:103F1000970B885E9340C8F221503040404050409B
:103F200068517C4F211531054105510571F6089501
:103F3000019739F0880F991F880F991F02970197F1
:103F4000F1F70895789484B5826084BD84B581606A
:103F500084BD85B5826085BD85B5816085BDEEE691
:103F6000F0E0808181608083E1E8F0E01082808170
:103F700082608083808181608083E0E8F0E08081DE
:103F800081608083E1EBF0E0808184608083E0EBFE
:103F9000F0E0808181608083E1E9F0E080818260EF
:103FA0008083808181608083E0E9F0E080818160AE
:103FB0008083E1EAF0E0808182608083808181609B
:103FC0008083E0EAF0E0808181608083E1E2F1E0DB
:103FD000808182608083808181608083E0E2F1E083
:103FE000808181608083EAE7F0E080818460808363
:103FF000808182608083808181608083808180680D
:1040000080831092C1000895CF93DF93482F50E032
:10401000CA018D589D4FFC013491435D5D4FFA01FB
:104020008491882369F190E0880F991FFC01E15287
:10403000FE4FA591B491FC01E750FE4FC591D4917C
:10404000662351F42FB7F8948C91932F9095892380
:104050008C93888189230BC0623061F42FB7F89468
:104060008C91932F909589238C938881832B8883BF
:104070002FBF06C09FB7F8948C91832B8C939FBF62
:10408000DF91CF910895893009F449C08A30A0F4B6
:10409000843051F1853040F4823079F1833000F57D
:1040A000813009F063C026C0873079F1883098F5F7
:1040B000863009F05BC025C08D3009F442C08E30D7
:1040C00028F48B30B1F18C30C0F52DC0803109F46B
:1040D00042C0813109F445C08F3009F047C037C074
:1040E000809180008F7703C0809180008F7D8093C6
:1040F0008000089584B58F7702C084B58F7D84BD1C
:1041000008958091B0008F7703C08091B0008F7DBB
:104110008093B0000895809190008F7707C08091C0
:1041200090008F7D03C080919000877F80939000E6
:1041300008958091A0008F7707C08091A0008F7DA7
:1041400003C08091A000877F8093A0000895809194
:1041500020018F7703C0809120018F7D8093200103
:10416000089580912001877F809320010895FF9218
:104170000F931F93F62E482F50E0CA0187549D4F8E
:10418000FC012491CA018D589D4FFC011491435D9F
:104190005D4FFA0104910023C1F0222311F0822F18
:1041A00072DFE02FF0E0EE0FFF1FE750FE4FA5910A
:1041B000B4919FB7F894FF2021F48C91109581233E
:1041C00002C08C91812B8C939FBF1F910F91FF9008
:1041D00008951F920F920FB60F920BB60F921124F3
:1041E0002F933F934F938F939F93EF93FF938091E0
:1041F000C00082FD1DC04091C6002091670E309125
:10420000680E2F5F3F4F2F7330708091690E909131
:104210006A0E2817390771F0E091670EF091680E69
:10422000E95DF14F40833093680E2093670E02C022
:104230008091C600FF91EF919F918F914F913F9197
:104240002F910F900BBE0F900FBE0F901F901895DF
:104250001F920F920FB60F920BB60F9211242F934D
:104260003F934F938F939F93EF93FF938091C80059
:1042700082FD1DC04091CE002091EF0E3091F00ED6
:104280002F5F3F4F2F7330708091F10E9091F20E9F
:104290002817390771F0E091EF0EF091F00EE1551B
:1042A000F14F40833093F00E2093EF0E02C08091C7
:1042B000CE00FF91EF919F918F914F913F912F9160
:1042C0000F900BBE0F900FBE0F901F9018951F926E
:1042D0000F920FB60F920BB60F9211242F933F93AC
:1042E0004F938F939F93EF93FF938091D00082FD24
:1042F0001DC04091D6002091770F3091780F2F5F2D
:104300003F4F2F7330708091790F90917A0F28175B
:10431000390771F0E091770FF091780FE95CF04F79
:1043200040833093780F2093770F02C08091D6009E
:10433000FF91EF919F918F914F913F912F910F900E
:104340000BBE0F900FBE0F901F9018951F920F92EB
:104350000FB60F920BB60F9211242F933F934F93EA
:104360008F939F93EF93FF938091300182FD1DC047
:10437000409136012091FF0F309100102F5F3F4F89
:104380002F73307080910110909102102817390717
:1043900071F0E091FF0FF0910010E154F04F408375
:1043A000309300102093FF0F02C080913601FF91DF
:1043B000EF919F918F914F913F912F910F900BBE55
:1043C0000F900FBE0F901F9018951F920F920FB66F
:1043D0000F920BB60F9211242F933F938F939F93BD
:1043E000EF93FF932091AB0E3091AC0E8091AD0E08
:1043F0009091AE0E2817390731F48091C1008F7D5E
:104400008093C10014C0E091AD0EF091AE0EE5595D
:10441000F14F20818091AD0E9091AE0E01968F7379
:1044200090709093AE0E8093AD0E2093C600FF91D6
:10443000EF919F918F913F912F910F900BBE0F9015
:104440000FBE0F901F9018951F920F920FB60F92EC
:104450000BB60F9211242F933F938F939F93EF935B
:10446000FF932091330F3091340F8091350F90914D
:10447000360F2817390731F48091C9008F7D80935A
:10448000C90014C0E091350FF091360FED50F14F97
:1044900020818091350F9091360F01968F73907027
:1044A0009093360F8093350F2093CE00FF91EF91BC
:1044B0009F918F913F912F910F900BBE0F900FBE48
:1044C0000F901F9018951F920F920FB60F920BB678
:1044D0000F9211242F933F938F939F93EF93FF930A
:1044E0002091BB0F3091BC0F8091BD0F9091BE0FFA
:1044F0002817390731F48091D1008F7D8093D10046
:1045000014C0E091BD0FF091BE0FE558F04F20812F
:104510008091BD0F9091BE0F01968F739070909314
:10452000BE0F8093BD0F2093D600FF91EF919F9116
:104530008F913F912F910F900BBE0F900FBE0F9058
:104540001F9018951F920F920FB60F920BB60F92F5
:1045500011242F933F938F939F93EF93FF93209179
:1045600043103091441080914510909146102817C7
:10457000390731F4809131018F7D8093310114C06E
:10458000E0914510F0914610ED5FFF4E2081809143
:1045900045109091461001968F739070909346103D
:1045A0008093451020933601FF91EF919F918F9159
:1045B0003F912F910F900BBE0F900FBE0F901F9049
:1045C0001895AF92BF92DF92EF92FF920F931F93D5
:1045D000CF93DF93EC017A018B01DD24403081EE33
:1045E000580780E0680780E0780711F0DD24D39455
:1045F00091E0A92EB12CEC89FD89DD2069F0C5017F
:1046000008A002C0880F991F0A94E2F7808360E037
:1046100079E08DE390E005C0108260E874E88EE1F7
:1046200090E0A80197018BD4215030404040504089
:10463000569547953795279580E12030380720F02B
:10464000DD2011F0DD24D7CFE889F9893083EA89AC
:10465000FB89208319A2EE89FF89408121E030E0A7
:10466000C9010C8C02C0880F991F0A94E2F7482BED
:104670004083EE89FF894081C9010D8C02C0880FFB
:10468000991F0A94E2F7482B4083EE89FF89408105
:10469000C9010E8C02C0880F991F0A94E2F7482BBB
:1046A0004083EE89FF8980810F8C02C0220F331F67
:1046B0000A94E2F7209528232083DF91CF911F9160
:1046C0000F91FF90EF90DF90BF90AF900895DC01C5
:1046D0001C96ED91FC911D97E05CFF4F81919191AB
:1046E00020813181805C9F4F821B930B60E470E0DE
:1046F00013C4DC011C96ED91FC911D97E05CFF4F0B
:1047000020813181E054F040DF01AE5BBF4F8D91DD
:104710009C9111972817390719F42FEF3FEF07C025
:104720008D919C91E80FF91F8081282F30E0C901FD
:104730000895DC011C96ED91FC911D97E05CFF4F04
:1047400020813181E054F040DF01AE5BBF4F8D919D
:104750009C9111972817390719F42FEF3FEF10C0DC
:104760008D919C911197E80FF91F20818D919C915B
:10477000119701968F73907011969C938E9330E0F1
:10478000C9010895DC0191968C919197882339F0A5
:104790005496ED91FC915597808186FFF9CF9196C3
:1047A0001C920895CF93DF93EC01EE85FF85E05CCA
:1047B000FF4F20813181E054F0402F5F3F4F2F7336
:1047C0003070DF01AE5BBF4F8D919C911197281720
:1047D0003907D1F3E05CFF4F80819181E054F040D4
:1047E000E80FF91F6083EE85FF85E05CFF4F3183A2
:1047F0002083EE89FF89208181E090E00F8C02C048
:10480000880F991F0A94E2F7282B208381E089A35F
:10481000EC89FD8980818064808381E090E0DF9174
:10482000CF9108951F9310924A101092491028EECC
:1048300033E040E050E020934B1030934C10409315
:104840004D1050934E1068EF75E0709348106093D0
:10485000471087E29EE090935410809353108BE6AC
:104860009EE0909356108093551085EC90E09093C5
:1048700058108093571084EC90E090935A108093D6
:10488000591080EC90E090935C1080935B1081EC69
:1048900090E090935E1080935D1082EC90E0909396
:1048A000601080935F1086EC90E09093621080938C
:1048B000611014E010936310B3E0B0936410A7E0AC
:1048C000A0936510F5E0F0936610E1E0E0936710C7
:1048D00010926C1010926B1020936D1030936E102C
:1048E00040936F105093701070936A10609369102A
:1048F0008FEA9EE0909376108093751083EF9EE090
:1049000090937810809377108DEC90E090937A10CC
:10491000809379108CEC90E090937C1080937B10C6
:1049200088EC90E090937E1080937D1089EC90E06D
:104930009093801080937F108AEC90E09093821087
:10494000809381108EEC90E090938410809383107C
:1049500010938510B0938610A0938710F093881061
:10496000E093891010928E1010928D1020938F106A
:1049700030939010409391105093921070938C103C
:1049800060938B1087E39FE090939810809397102B
:104990008BE79FE090939A108093991085ED90E0BB
:1049A00090939C1080939B1084ED90E090939E10C8
:1049B00080939D1080ED90E09093A01080939F10C5
:1049C00081ED90E09093A2108093A11082ED90E091
:1049D0009093A4108093A31086ED90E09093A6107E
:1049E0008093A5101093A710B093A810A093A910BE
:1049F000F093AA10E093AB101092B0101092AF1089
:104A00002093B1103093B2104093B3105093B41070
:104A10007093AE106093AD108FEB9FE09093BA103F
:104A20008093B91083E090E19093BC108093BB1009
:104A300085E391E09093BE108093BD1084E391E0F4
:104A40009093C0108093BF1080E391E09093C210C8
:104A50008093C11081E391E09093C4108093C310C0
:104A600082E391E09093C6108093C51086E391E0B5
:104A70009093C8108093C7101093C910B093CA10B8
:104A8000A093CB10F093CC10E093CD101F9108951C
:104A9000CF92DF92EF92FF920F931F93CF93DF930A
:104AA0007C016B018A01C0E0D0E00FC0D6016D919E
:104AB0006D01D701ED91FC910190F081E02DC701CE
:104AC0001995C80FD91F015010400115110571F734
:104AD000CE01DF91CF911F910F91FF90EF90DF906A
:104AE000CF900895CF93DF93EC016115710519F410
:104AF00020E030E00FC0DB010D900020E9F71197B6
:104B0000A61BB70BE881F9810280F381E02DAD018E
:104B100019959C01C901DF91CF910895E3CF0895C4
:104B20000F931F938C01FC01868160E020DB81E004
:104B300090E0FED9F801868161E019DB81E090E028
:104B4000F7D9F801868160E012DB84E690E0F0D9C5
:104B50001F910F910895CF92DF92EF92FF920F93E2
:104B60001F93CF93DF93D82EC92E282F392FC90139
:104B70008C01C0E0D0E0E62EFF24F801878161E0DF
:104B800043DAB7010C2E02C0759567950A94E2F7D7
:104B90006170F8018781EBDA21960F5F1F4FC830F3
:104BA000D10559F78D2D9C2DBBDFDF91CF911F9142
:104BB0000F91FF90EF90DF90CF900895CF92DF920A
:104BC000EF92FF920F931F93CF93DF93D82EC92EAE
:104BD000282F392FC9018C01C0E0D0E0E62EFF2438
:104BE000F801878161E010DAB7010C2E02C07595DB
:104BF00067950A94E2F76170F8018781B8DA219627
:104C00000F5F1F4FC430D10559F78D2D9C2D88DFC4
:104C1000DF91CF911F910F91FF90EF90DF90CF9098
:104C200008951F93CF93DF93EC01162F8C81642F8F
:104C30009EDA8D818F3F11F060E099DA8F8584FFD5
:104C400004C0CE01612F87DF0CC0612F70E084E0CB
:104C5000759567958A95E1F7CE01B0DFCE01612F9A
:104C6000ADDFDF91CF911F91089541E0DADF81E060
:104C700090E0089540E0D5CFFC0160896E7F608BA5
:104C80006860F8CFFC0160896D7F608B6860F2CF4F
:104C9000FC016089862F8460808B6C60CF01EACF35
:104CA000DF93CF93CDB7DEB728970FB6F894DEBF6A
:104CB0000FBECDBF9C01FE013196ACE0B6E088E0AE
:104CC0000D9001928150E1F7F9018389481710F0A6
:104CD000482F4150E42FF0E0EE0FFF1FEC0FFD1FB7
:104CE0008181680F6068C901C5DF28960FB6F89406
:104CF000DEBF0FBECDBFCF91DF91089561E0BADF77
:104D000080ED97E015C9CF93DF93EC01423018F0A6
:104D10008F8588608F874B8B1C8A222329F0413036
:104D200019F48F8584608F8780E593EC01D98C819D
:104D300060E01DDA8E8160E01ADA8D818F3F11F01C
:104D400060E015DA6F8564FD16C0CE0163E036DFE2
:104D500084E991E1EDD8CE0163E030DF84E991E1AF
:104D6000E7D8CE0163E02ADF86E990E0E1D8CE0102
:104D700062E024DF11C06062CE017CDF84E991E152
:104D8000D7D86F856062CE0175DF86E990E0D0D814
:104D90006F856062CE016EDF6F856062CE016ADF73
:104DA00084E0888BCE0174DFCE01A8DF82E0898B9E
:104DB000CE0166E05FDFDF91CF9108956F927F9221
:104DC0008F92AF92CF92EF920F931F93DF93CF9377
:104DD000CDB7DEB73C01162F842FF3014483258322
:104DE0000683E782C086A18682869E8593879F85FB
:104DF0009487988995879989968761E005D9F30109
:104E000085818F3F11F061E0FFD8F301868161E079
:104E1000FBD8112319F0F301178603C080E1F301D9
:104E20008787C30160E141E020E06DDFCF91DF9132
:104E30001F910F91EF90CF90AF908F907F906F90D8
:104E400008958F92AF92CF92EF920F931F93CF93CB
:104E5000DF93DC01362F542F722F102FAE2C8C2CA9
:104E600013961C921E92129788E096E011969C93DE
:104E70008E9300D00F92EDB7FEB73196CDB7DEB767
:104E80001982118212821382CD0161E0432F2FEF2C
:104E9000052FE72EC12E92DF0F900F900F900F90ED
:104EA000DF91CF911F910F91EF90CF90AF908F90A6
:104EB0000895629FD001739FF001829FE00DF11D64
:104EC000649FE00DF11D929FF00D839FF00D749F84
:104ED000F00D659FF00D9927729FB00DE11DF91F30
:104EE000639FB00DE11DF91FBD01CF01112408958D
:104EF000AA1BBB1B51E107C0AA1FBB1FA617B70700
:104F000010F0A61BB70B881F991F5A95A9F780951B
:104F10009095BC01CD01089597FB092E07260AD074
:104F200077FD04D0E5DF06D000201AF47095619576
:104F30007F4F0895F6F7909581959F4F0895A1E2D0
:104F40001A2EAA1BBB1BFD010DC0AA1FBB1FEE1F03
:104F5000FF1FA217B307E407F50720F0A21BB30B4E
:104F6000E40BF50B661F771F881F991F1A9469F7CA
:104F700060957095809590959B01AC01BD01CF0126
:104F80000895EE0FFF1F0590F491E02D199497FB03
:104F9000092E05260ED057FD04D0D1DF0AD0001C03
:104FA00038F450954095309521953F4F4F4F5F4FC6
:104FB0000895F6F790958095709561957F4F8F4F86
:104FC0009F4F08952F923F924F925F926F927F92E0
:104FD0008F929F92AF92BF92CF92DF92EF92FF9209
:104FE0000F931F93CF93DF93CDB7DEB7CA1BDB0BB5
:104FF0000FB6F894DEBF0FBECDBF19942A8839884A
:1050000048885F846E847D848C849B84AA84B98460
:10501000C884DF80EE80FD800C811B81AA81B9816C
:10502000CE0FD11D0FB6F894DEBF0FBECDBFED0180
:065030000895F894FFCF83
:10503600417373657274696F6E206661696C65642D
:1050460020696E2066696C6520636F64652F525413
:105056004F532F67736C5F73797374656D4C6F6113
:10506600642E632C206C696E652025750A004173D9
:1050760073657274696F6E206661696C6564206918
:105086006E2066696C6520636F64652F52544F53BA
:105096002F72746F732E632C206C696E65202575D4
:1050A6000A000A525475696E4F5320697320696469
:1050B6006C6500435055206C6F61643A202575205D
:1050C60025250A005461736B20636F756E74733AFD
:1050D6000A202050726F647563657220486967689C
:1050E6003A20256C750A202052656C61793A202099
:1050F60020202020202020256C750A2020436F6E5A
:1051060073756D657220486967683A20256C750A63
:10511600202050726F6475636572204D65643A2075
:1051260020256C750A2020436F6E73756D6572209D
:105136004D65643A2020256C750A004576656E74C7
:10514600733A0A202044617461206572726F72732B
:105156003A2020202025690A202057726974746538
:105166006E2048324C3A20202020256C750A2020DB
:1051760051756575652066756C6C2048324C3A2011
:10518600256C750A202052656164204C32483A200D
:10519600202020202020256C750A20205175657559
:1051A600652066756C6C204C32483A20256C750A71
:1051B60020205772697474656E204D324D3A202056
:1051C6002020256C750A2020517565756520667549
:1051D6006C6C204D324D3A20256C750A20205265A4
:1051E6006164204D324D3A20202020202020256C5D
:1051F600750A005461736B2025753A20556E7573D8
:10520600656420737461636B206172656120257526
:1052160020427974652C206F76657272756E2063F4
:105226006F756E7465723A2025750A004173736551
:105236007274696F6E206661696C656420696E20A0
:1052460066696C6520636F64652F7474715F74653D
:1052560073744F665468726561645361666551750F
:105266006575652E632C206C696E652025750A00B0
:1052760025337500417373657274696F6E206661BC
:10528600696C656420696E2066696C6520636F646D
:10529600652F6470795F646973706C61792E6370D1
:1052A600702C206C696E652025750A00253569000D
:1052B6002531306C75004379633A20202020202068
:1052C600202020202030004572723A2020202030F5
:1052D60020433A202030252500252D3136730054F1
:1052E6006872656164536166655175657565002A06
:1052F6002A2A0001000000FF8806C8ECFF230116D9
:10530600000000000000000000000000FF2701FF71
:10531600FF0000000000000000000000001D3A270A
:1053260074694E53E8F5D2CF9C81A6BBCDD0F7EA7F
:10533600B9A4839E25381F02514C6B76879ABDA06F
:10534600F3EEC9D46F7255481B06213C4A57706D5F
:105356003E230419A2BF9885D6CBECF1130E29344F
:10536600677A5D40FBE6C1DC8F92B5A8DEC3E4F93F
:10537600AAB7908D362B0C11425F78659489AEB32F
:10538600E0FDDAC77C61465B0815322F5944637E1F
:105396002D30170AB1AC8B96C5D8FFE2263B1C010F
:1053A600524F6875CED3F4E9BAA7809DEBF6D1CCFF
:1053B6009F82A5B8031E3924776A4D50A1BC9B86EF
:1053C600D5C8EFF24954736E3D20071A6C71564BDF
:1053D6001805223F8499BEA3F0EDCAD735280F12CF
:1053E600415C7B66DDC0E7FAA9B4938EF8E5C2DFBF
:1053F6008C91B6AB100D2A3764795E43B2AF8895AF
:10540600C6DBFCE15A47607D2E3314097F6245589E
:105416000B16312C978AADB0E3FED9C4000000000C
:105426003526482500000000D22348256723992306
:105436007923C223000000003526482500004000DD
:0454460014005400FA
:00000001FF
