:1000000081C10000ABC10000A9C10000A7C1000070
:10001000A5C10000A3C10000A1C100009FC1000054
:100020009DC100009BC1000099C1000097C1000064
:1000300095C1000093C1000091C100002FC60000CF
:100040008DC100008BC1000089C1000087C1000084
:1000500085C1000083C1000081C100000C94DC1543
:100060007DC100000C94DC170C94D81877C10000F7
:1000700075C1000073C1000071C100006FC10000B4
:100080006DC100006BC1000069C1000067C10000C4
:100090000C941B180C94171961C100005FC100007B
:1000A0005DC100005BC1000059C1000057C10000E4
:1000B00055C1000053C1000051C100004FC10000F4
:1000C0004DC100004BC1000049C100000C945A18FA
:1000D0000C94561943C100000C9499180C9495196E
:1000E0003DC100000D525475696E4F5320312E30C2
:1000F00020666F722041726475696E6F20312E30F8
:100100002E360A436F707972696768742028432914
:1001100020323031322D32303136205065746572E4
:10012000205672616E6B656E20286D61696C746F0C
:100130003A50657465725F5672616E6B656E4059B8
:1001400061686F6F2E6465290A546869732069734A
:10015000206672656520736F6674776172653B20F7
:100160007365652074686520736F757263652066BA
:100170006F7220636F7079696E6720636F6E646958
:1001800074696F6E732E20546865726520697320E0
:100190004E4F0A77617272616E74793B206E6F7494
:1001A000206576656E20666F72204D45524348414A
:1001B0004E544142494C495459206F72204649548B
:1001C0004E45535320464F522041205041525449EE
:1001D00043554C415220505552504F53452E00002C
:1001E000002100240027002A002D003000330001E8
:1001F000010000040107010A010000220025002877
:10020000002B002E0031003400020100000501081F
:10021000010B01000020002300260029002C002FE4
:100220000032000001000003010601090105050577
:1002300005070508080808020202020A0A0808045D
:10024000040404010101010101010103030303038B
:10025000030303040707070C0C0C0C0C0C0C0C021A
:1002600002020206060606060606060B0B0B0B0B21
:100270000B0B0B010210202008081020401020401A
:10028000800201020108040201010204081020405A
:100290008080402010080402018004020180402078
:1002A00010080402010804020101020408102040A1
:1002B0008001020408102040800000090A02080B97
:1002C0000C0D070603040100000000000000000000
:1002D000000000000000000000000000000000001E
:1002E000000000000011100F0000000000000000DE
:1002F00000000000000000000000000000000000FE
:10030000FE13051B11241FBECFEFD1E2DEBFCDBF10
:1003100000E00CBF15E0A0E0B2E0ECE1FEE300E09D
:100320000BBF02C007900D92A632B107D9F71BBED2
:100330001FE0A6E2B5E001C01D92AB3EB107E1F7B8
:1003400013E0C4E0D3E004C02297FE010E94B61E71
:10035000C030D107C9F7A9D30C940C1F51CEA0E02F
:10036000B0E0E5EBF1E00C94DD1EEC01A880B98073
:10037000CA80DB80A114B104C104D10441F484E239
:10038000A82E89EDB82E8BE5C82E87E0D82EC601A1
:10039000B5012DE133EF41E050E00E94BA1E27EA9B
:1003A00031E440E050E00E944C1E7B018C01C6010C
:1003B000B5012DE133EF41E050E00E94BA1ECA01C1
:1003C000B9012CEE34EF4FEF5FEF0E944C1E6E0D23
:1003D0007F1D801F911F97FF04C0615070408040B7
:1003E0009048688379838A839B839B013F77C90107
:1003F000CDB7DEB7EAE00C94F91EB1CF85ED93E0FE
:10040000AECFA0E0B0E08093D5039093D603A09345
:10041000D703B093D8030895FB01DC0102C001901B
:100420000D9241505040D8F70895DC0101C06D9302
:1004300041505040E0F708950F931F93CF93DF93FF
:100440008C01EB018B8181FF1BC082FF0DC02E81CF
:100450003F818C819D812817390764F4E881F981F7
:100460000193F983E88306C0E885F985802F199503
:10047000892B31F48E819F8101969F838E8302C0E8
:100480000FEF1FEFC801DF91CF911F910F910895DA
:10049000A0E0B0E0EEE4F2E00C94E51EFE0136963A
:1004A000619171918091E70F9091E80FAF015CD05D
:1004B0002096E2E00C94011F0F931F93CF93DF93DC
:1004C0008C01E091E70FF091E80F838181FF21C05B
:1004D000C0E0D0E00DC0E091E70FF091E80F20857B
:1004E0003185BF01F9011995892B11F0CFEFDFEFAD
:1004F000F80181918F01882371F7E091E70FF09166
:10050000E80F208531858AE0BF01F9011995892B13
:1005100011F0CFEFDFEFCE01DF91CF911F910F915F
:100520000895AEE0B0E0E7E9F2E00C94E31E0E8936
:100530001F8986E08C831A8309838FEF9FE79E8350
:100540008D839E01265E3F4FCE010196688D798D89
:10055000A9010AD02F813885020F131FF8011082DC
:100560002E96E4E00C94FF1EABE0B0E0EAEBF2E084
:100570000C94D51E3C012B015A01FC0117821682F6
:10058000838181FD03C06FEF7FEFB9C19AE0892EAF
:100590001E010894211C311CF3012381F20123FD6B
:1005A000859123FF81912F01882309F4A5C185320C
:1005B00039F423FD859123FF81912F01853221F4A8
:1005C00090E0B30139DFE8CF982FFF24EE2499247F
:1005D000FFE1FF15D0F09B3269F09C3228F4903295
:1005E00059F0933291F40EC09D3249F0903369F482
:1005F00041E024C052E0F52A84E0F82A28C098E0BF
:10060000F92A25C0E0E1FE2A22C0F7FC29C0892F83
:1006100080538A3070F4F6FE05C0989C902C11240B
:10062000980E15C0E89CE02C1124E80EF0E2FF2A99
:100630000EC09E3229F4F6FC5FC140E4F42A07C0E4
:100640009C3619F450E8F52A02C0983649F4F201B4
:1006500023FD959123FF91912F01992309F0B8CFA4
:10066000892F8554833018F08052833038F444E069
:1006700050E0A40EB51E5FE359830FC0933631F0EE
:10068000933779F0933509F052C01FC0F50180818E
:10069000898342E050E0A40EB51E610101E010E044
:1006A00011C0F501C080D180F6FC03C06FEF7FEF71
:1006B00002C0692D70E042E050E0A40EB51EC601F4
:1006C0002ED18C015FE7F52213C0F501C080D180E7
:1006D000F6FC03C06FEF7FEF02C0692D70E042E0CF
:1006E00050E0A40EB51EC6010FD18C0150E8F52ACA
:1006F000F3FE06C018C080E290E0B3019DDEEA94EC
:100700008E2D90E008171907B0F30DC0F601F7FC25
:100710008591F7FE81916F0190E0B3018DDEE110CC
:10072000EA94015010400115110581F7E2C094369A
:1007300011F0993661F5F7FE08C0F501208131818D
:100740004281538184E090E00AC0F501808191816B
:100750009C01442737FD4095542F82E090E0A80E7D
:10076000B91E9FE6F92257FF09C050954095309574
:1007700021953F4F4F4F5F4FE0E8FE2ACA01B90174
:10078000A1012AE030E0D6D0D82ED2183FC095374C
:1007900029F41F2D1F7E2AE030E01DC01F2D197F78
:1007A0009F3661F0903720F4983509F0A5C00FC04E
:1007B000903739F0983709F09FC004C028E030E046
:1007C0000AC0106114FD146020E130E004C014FD83
:1007D000166020E132E017FF08C0F50160817181E9
:1007E0008281938144E050E008C0F50180819181CD
:1007F000BC0180E090E042E050E0A40EB51EA101F3
:1008000099D0D82ED2188FE7F82EF122F6FE0BC021
:100810005EEFF522D91438F4F4FE07C0F2FC05C0EF
:100820008FEEF82202C01D2D01C0192DF4FE0DC05F
:10083000FE01ED0DF11D8081803319F499EEF9224E
:1008400008C01F5FF2FE05C003C08F2D867809F037
:100850001F5F0F2DF3FC13C0F0FE0EC01E1510F02D
:100860009D2C0AC09D2C9E0C911A1E2D05C080E265
:1008700090E0B301E1DD1F5F1E15C8F304C01E1533
:1008800010F4E11A01C0EE2404FF0EC080E390E0F2
:10089000B301D2DD02FF1BC001FD03C088E790E079
:1008A0000EC088E590E00BC0802F867881F001FFB4
:1008B00002C08BE201C080E2F7FC8DE290E0B30160
:1008C000BBDD05C080E390E0B301B6DD9A94D91496
:1008D000C8F3DA94F101ED0DF11D808190E0B301D0
:1008E000ABDDDD20B1F705C080E290E0B301A4DD0F
:1008F000EA94EE20C9F750CEF30166817781CB01EF
:100900002B96E2E10C94F11EFC01059061507040C1
:100910000110D8F7809590958E0F9F1F0895FC01C8
:100920006150704001900110D8F7809590958E0F1E
:100930009F1F0895FA01AA27283051F1203181F133
:10094000E8946F936E7F6E5F7F4F8F4F9F4FAF4FD7
:10095000B1E03ED0B4E03CD0670F781F891F9A1FEA
:10096000A11D680F791F8A1F911DA11D6A0F711D9E
:10097000811D911DA11D20D009F468943F912AE0AA
:10098000269F11243019305D3193DEF6CF01089592
:10099000462F4770405D4193B3E00FD0C9F7F6CFC3
:1009A000462F4F70405D4A3318F0495D31FD40528B
:1009B000419302D0A9F7EACFB4E0A6959795879521
:1009C00077956795BA95C9F7009761057105089500
:1009D0009B01AC010A2E06945795479537952795AC
:1009E000BA95C9F7620F731F841F951FA01D089544
:1009F0008F929F92AF92BF92CF92DF92EF92FF922F
:100A00000F931F930E9424164B015C0138EEE32ED6
:100A100033E0F32E012D112DE60EF71E081F191FCE
:100A2000DD24D39486E79EE30E948B160E94241651
:100A30006E157F0580079107A0F37B018C01E818F4
:100A4000F9080A091B098D2D90E082959295907FF7
:100A50009827807F98275C01CC24DD24C601B5014E
:100A600028EC30E040E050E00E944C1EE616F7060D
:100A700008071907C0F4AE14BF04C006D10688F4F5
:100A8000A80197010E94921E88EC821B1F910F9172
:100A9000FF90EF90DF90CF90BF90AF909F908F909E
:100AA000089580E0F3CF88ECF1CF0E94951639D4F9
:100AB00080E090E00895E0E7F0E08081816080834D
:100AC00008951F93CF93DF931091D9031F5F109365
:100AD000D9036091C805A0E070E0761708F060C007
:100AE000E72FF0E0EE0FFF1FE454FA4FC081D181F1
:100AF0002D853E85A9018D81181709F49DC08B8530
:100B0000882361F081508B87882341F48F859889F1
:100B100080709078282B392B3E872D872417350736
:100B200009F488C08989882361F44F855889CA01EE
:100B3000822793279F73892B39F024233523207034
:100B4000307C232B09F476C0EA818E818C87F0E01B
:100B5000DF01A754BA4F8C91EE0FFF1FE80FF11D74
:100B6000EE0FFF1FE355FA4FD183C0838F5F8C9345
:100B70006150761788F4272FE22FF0E0EE0FFF1F69
:100B8000DF01A254BA4F8D919C91E454FA4F9183A6
:100B900080832F5F261780F3A1E0761708F4A0CF9B
:100BA0006093C8054091DA035091DB03FA01848514
:100BB000882309F44BC081508487882309F046C0FC
:100BC000868184878281C82FD0E0FE01E754FA4FE6
:100BD000E081E230D8F13E2F3150DE01AA0FBB1F79
:100BE000AA0FBB1FA355BA4F21E012968D919C917D
:100BF00013978D939D932F5F2E17B9F7CC0FDD1FA1
:100C0000C30FD11DCC0FDD1FC355DA4F5983488365
:100C10008091BB058823D1F58091BA058823C9F559
:100C20008091B9058823C9F420E0822FDF91CF910C
:100C30001F9108957F5F51CF8F8598898070907440
:100C4000822B932B9E878D879C0159CFAA2361F31A
:100C50008091BB05882301F319C0E0E0F0E05093D8
:100C6000270540932605EE0FFF1FEE0FFF1FE355EC
:100C7000FA4F808191819093DB038093DA0320E027
:100C80004817590749F081E02827CFCFE2E0F0E08C
:100C9000E6CFE1E0F0E0E3CF21E0F5CF0F920FB631
:100CA0000F921F922F923F924F925F926F927F927C
:100CB0008F929F92AF92BF92CF92DF92EF92FF926C
:100CC0000F931F932F933F934F935F936F937F9354
:100CD000AF93BF93CF93DF93EF93FF938F939F9344
:100CE0001124EFDE882309F435C0A091DA03B09116
:100CF000DB038D919C9111979093E40F8093E30F08
:100D00000DB60092E10F0EB60092E20F0090E30FD5
:100D10000DBE0090E40F0EBE8091E10F9091E20FA6
:100D2000E0912605F0912705918380831D968D9192
:100D30009C911E97009771F09093E40F8093E30FBE
:100D40001E961C921E921D970090E30F0F9200902A
:100D5000E40F0F929F918F91FF91EF91DF91CF91CF
:100D6000BF91AF917F916F915F914F913F912F9183
:100D70001F910F91FF90EF90DF90CF90BF90AF90B9
:100D80009F908F907F906F905F904F903F902F90AB
:100D90001F900F900FBE0F9018950F931F93CF9336
:100DA000DF938C016091C805A0E070E0761708F031
:100DB00054C0E72FF0E0EE0FFF1FE454FA4FC0815C
:100DC000D1818D859E854F855889980124233523AF
:100DD000282B392B3E872D878217930709F457C09C
:100DE0008989882309F050C0C901842795279F73FA
:100DF000892B39F04070507C42235323452B09F452
:100E000046C0EA818E818C87F0E0DF01A754BA4F9B
:100E10008C91EE0FFF1FE80FF11DEE0FFF1FE35542
:100E2000FA4FD183C0838F5F8C936150761788F41B
:100E3000272FE22FF0E0EE0FFF1FDF01A254BA4F81
:100E40008D919C91E454FA4F918380832F5F2617F4
:100E500080F3A1E0761708F4ACCF6093C805AA230D
:100E600061F08091BB05882389F58091BA058823BC
:100E700081F58091B905882361F440E0842FDF91EA
:100E8000CF911F910F910895232B09F0BACF7F5F67
:100E90008DCFE0E0F0E02091DA033091DB03309376
:100EA000270520932605EE0FFF1FEE0FFF1FE355CA
:100EB000FA4F808191819093DB038093DA0340E0C5
:100EC0002817390749F081E04827D8CFE2E0F0E061
:100ED000E2CFE1E0F0E0DFCF41E0F5CFF8940F9210
:100EE0000FB60F921F922F923F924F925F926F9286
:100EF0007F928F929F92AF92BF92CF92DF92EF92AA
:100F0000FF920F931F932F933F934F935F936F9392
:100F10007F93AF93BF93CF93DF93EF93FF938F9321
:100F20009F933BDF882309F435C0A091DA03B09189
:100F3000DB038D919C9111979093E40F8093E30FC5
:100F40000DB60092E10F0EB60092E20F0090E30F93
:100F50000DBE0090E40F0EBE8091E10F9091E20F64
:100F6000E0912605F0912705918380831D968D9150
:100F70009C911E97009771F09093E40F8093E30F7C
:100F80001E961C921E921D970090E30F0F920090E8
:100F9000E40F0F929F918F91FF91EF91DF91CF918D
:100FA000BF91AF917F916F915F914F913F912F9141
:100FB0001F910F91FF90EF90DF90CF90BF90AF9077
:100FC0009F908F907F906F905F904F903F902F9069
:100FD0001F900F900FBE0F901895EF92FF920F93F6
:100FE0001F93CF93DF937C01062F142FC091DA0358
:100FF000D091DB038A81A82FB0E0FD01E754FA4FBE
:101000009081915090839923F1F0E0E0F0E021E0AD
:1010100030E0BD01660F771F492F50E04F5F5F4FF3
:10102000E60FF71FEE0FFF1FDF01A155BA4F8D919D
:101030009C91E355FA4F91838083F9012F5F3F4FD5
:101040002417350769F7F6FE39C08D81810F8D832E
:101050009091D903891B1816B4F5F88AEF86198A7E
:10106000002311F481E0898B8091C805E82FF0E01E
:10107000EE0FFF1FE454FA4FD183C0838F5F80933C
:10108000C805D0932705C09326058AE995E090937B
:10109000DB038093DA038091BB058823D1F4809130
:1010A000BA05882359F58091B905882351F5DF9158
:1010B000CF911F910F91FF90EF9008951F3F09F07E
:1010C0001F5F1B87CACF8A898F3F39F28F5F8A8B58
:1010D000C4CFE2E0F0E0EE0FFF1FEE0FFF1FE3557D
:1010E000FA4F808191819093DB038093DA03DF9143
:1010F000CF911F910F91FF90EF900895E1E0F0E004
:10110000EACFE0E0F0E0E7CFF8940F920FB60F924D
:101110001F922F923F924F925F926F927F928F9287
:101120009F92AF92BF92CF92DF92EF92FF920F9376
:101130001F932F933F934F935F936F937F93AF933F
:10114000BF93CF93DF93EF93FF9347DFA091DA0331
:10115000B091DB038D919C9111979093E40F809354
:10116000E30F0DB60092E10F0EB60092E20F009071
:10117000E30F0DBE0090E40F0EBE8091E10F909141
:10118000E20FE0912605F0912705918380831D965B
:101190008D919C911E97009771F09093E40F80932E
:1011A000E30F1E961C921E921D970090E30F0F9264
:1011B0000090E40F0F929F918F91FF91EF91DF913B
:1011C000CF91BF91AF917F916F915F914F913F917F
:1011D0002F911F910F91FF90EF90DF90CF90BF90D4
:1011E000AF909F908F907F906F905F904F903F90C7
:1011F0002F901F900F900FBE0F90189580E090E0F9
:10120000662399F490E0FC01EE0FFF1F9F01220F6F
:10121000331F220F331F220F331FE20FF31FE80F7C
:10122000F91FE85DFA4F82890895282F30E0F8947D
:10123000C901880F991FFC01EE0FFF1FEE0FFF1F62
:10124000EE0FFF1FE80FF91FE20FF31FE85DFA4FE3
:101250008289128A7894089590E0FC01EE0FFF1FB6
:101260009F01220F331F220F331F220F331FE20F64
:10127000F31FE80FF91FE85DFA4FA781B0858C9145
:10128000893251F4FD01319680818932E1F39F0169
:101290002A1B3B0BC901089520E030E0FBCF8F9261
:1012A000AF92CF92DF92EF92FF920F931F93DF9353
:1012B000CF93CDB7DEB7382D93E1899FF00111248C
:1012C000E85DFA4F7483638310870783F286E186B3
:1012D000428313861582D6FE19C085828091D90378
:1012E000381B1316C4F4D08AC786118AAA2011F4B9
:1012F00081E0818B2683CF91DF911F910F91FF9029
:10130000EF90DF90CF90AF908F9008953F3F09F01E
:101310003F5F3387E8CF82898F3F29F38F5F828BCE
:10132000E2CFCF92DF92EF92FF920F931F93CF9372
:10133000DF937DD3C8E2D5E00CEB15E060E8D62E54
:1013400059E2C52EFC2EED2E6F8178854B815C8194
:1013500029853A8521503040260F371FF901108228
:1013600012921292CA018293AA2797FDA095BA2FD2
:1013700092938B2F9927AA27BB2782931292D292FE
:1013800012923197DF012F5130401C921197A21712
:10139000B307D9F776971082129212921292129294
:1013A00012923197E617F70730F0DF01CC921197D0
:1013B000A617B707D8F7F983E8831C861E861D8613
:1013C0001A8AF801F082E18263960E5F1F4FF5E002
:1013D000CA39DF0709F0B6CF86E08093C8051982C5
:1013E00018821D821B861C861E861D86188A1F86F3
:1013F00081E0898B1A8A1092B9051092BA05109271
:10140000BB05D093DB03C093DA03D0932705C093C9
:10141000260551DB7AD0FECFCF93DF93FC01849178
:10142000882379F0EF0121966091E70F7091E80F22
:10143000992787FD909500D8FE01219684918823F5
:1014400099F76091E70F7091E80F8AE090E00E94B1
:101450001C0280E090E0DF91CF910895AC0160E044
:1014600070E089E59FE00E94D41989EC95E09093A3
:10147000E80F8093E70F8DE49AE09093D205809374
:10148000D1051092D4051092D30582E08093CC054B
:101490001092D6051092D50508951F93182F8A3003
:1014A00089F0612F772767FD709589E59FE00E949D
:1014B000C51A20E030E0019711F021E030E0C901C9
:1014C0001F91089589E59FE06DE00E94C51AE9CF5C
:1014D000AC0161157105B9F0AFEFB0E020E030E08C
:1014E000FA01E20FF31F808190E0A827B927A250EC
:1014F000BC4F8C91A82FB0E02F5F3F4F26173707C6
:1015000078F38095089580E008952F923F924F924E
:101510005F926F927F928F929F92AF92BF92CF9283
:10152000DF92EF92FF920F931F93DF93CF93CDB78C
:10153000DEB76C970FB6F894DEBF0FBECDBF8DE05F
:1015400061E00E94AA1766E970E080E090E00E94E6
:1015500032168DE060E00E94AA1766E970E080E034
:1015600090E00E9432168DE061E00E94AA1766E9C1
:1015700070E080E090E00E9432168DE060E00E9412
:10158000AA1766E970E080E090E00E9432168DE0D4
:1015900061E00E94AA1766E970E080E090E00E9496
:1015A00032168DE060E00E94AA1766E970E080E0E4
:1015B00090E00E94321662E573E080E090E00E94C5
:1015C000321680E092E00E945C0212DA8093DC0323
:1015D0000FDA8093DC030CDA8093DC038091DC0368
:1015E00000D00F9221E132E0ADB7BEB712963C9326
:1015F0002E93119790E001969595879514969C935C
:101600008E9313970E944802F894E090D705F090CB
:10161000D8050091D9051091DA05A090DB05B090AE
:10162000DC05C090DD05D090DE056090DF05709090
:10163000E0058090E1059090E2052090E305309070
:10164000E4054090E5055090E6052091E7053091CE
:10165000E8054091E9055091EA058091EB059091EC
:10166000EC05A091ED05B091EE05898F9A8FAB8FB7
:10167000BC8F8091EF059091F005A091F105B0919C
:10168000F2058D8B9E8BAF8BB88F8091F305909177
:10169000F405A091F505B091F605898B9A8BAB8B7B
:1016A000BC8B8091F7059091F805A091F905B09158
:1016B000FA058D879E87AF87B88B8091FB05909147
:1016C000FC05A091FD05B091FE0589879A87AB873F
:1016D000BC878091FF0590910006A0910106B09112
:1016E00002068D839E83AF83B88780910306909115
:1016F0000406A0910506B091060689839A83AB8300
:10170000BC837894ADB7BEB752970FB6F894BEBFFE
:101710000FBEADBFEDB7FEB7319682E292E01296F2
:101720009C938E931197E282F38204831583268320
:10173000378340875187A286B386C486D58666865E
:101740007786808A918A228A338A448A558A0E94BF
:1017500048022091DD03EDB7FEB73A970FB6F89433
:10176000FEBF0FBEEDBF319689E992E0ADB7BEB7BF
:1017700012969C938E931197332727FD30953383D0
:101780002283898D9A8DAB8DBC8D84839583A683AE
:10179000B7838D899E89AF89B88D80879187A2870D
:1017A000B38789899A89AB89BC8984879587A687FD
:1017B000B7878D859E85AF85B889808B918BA28BED
:1017C000B38B89859A85AB85BC85848B958BA68BDD
:1017D000B78B8D819E81AF81B885808F918FA28FCD
:1017E000B38F89819A81AB81BC81848F958FA68FBD
:1017F000B78F0E944802ADB7BEB790960FB6F89467
:10180000BEBF0FBEADBF80E027DD8C0180E060E091
:10181000F7DCEDB7FEB738970FB6F894FEBF0FBEF2
:10182000EDBF319691E5E92E93E0F92EADB7BEB745
:101830001296FC92EE921197138212821583048302
:10184000868317820E944802EDB7FEB738960FB61E
:10185000F894FEBF0FBEEDBF81E0FEDC8C0181E09D
:1018600060E0CEDC2DB73EB7285030400FB6F8947C
:101870003EBF0FBE2DBFEDB7FEB73196ADB7BEB7B9
:101880001296FC92EE92119721E030E0338322838E
:1018900015830483868317820E944802EDB7FEB742
:1018A00038960FB6F894FEBF0FBEEDBF82E0D4DCD1
:1018B0008C0182E060E0A4DC2DB73EB728503040B8
:1018C0000FB6F8943EBF0FBE2DBFEDB7FEB73196F1
:1018D000ADB7BEB71296FC92EE92119722E030E0BF
:1018E0003383228315830483868317820E944802F0
:1018F000EDB7FEB738960FB6F894FEBF0FBEEDBF3A
:1019000083E0AADC8C0183E060E07ADC2DB73EB78F
:10191000285030400FB6F8943EBF0FBE2DBFEDB734
:10192000FEB73196ADB7BEB71296FC92EE92119704
:1019300023E030E033832283158304838683178278
:101940000E944802EDB7FEB738960FB6F894FEBF76
:101950000FBEEDBF84E080DC8C0184E060E050DCF1
:101960002DB73EB7285030400FB6F8943EBF0FBE9B
:101970002DBFEDB7FEB73196ADB7BEB71296FC924C
:10198000EE92119724E030E03383228315830483A1
:10199000868317820E944802EDB7FEB738960FB6CD
:1019A000F894FEBF0FBEEDBF85E056DC8C0185E0EC
:1019B00060E026DC2DB73EB7285030400FB6F894D3
:1019C0003EBF0FBE2DBFEDB7FEB73196ADB7BEB768
:1019D0001296FC92EE92119725E030E03383228339
:1019E00015830483868317820E944802EDB7FEB7F1
:1019F00038960FB6F894FEBF0FBEEDBF6C960FB6CB
:101A0000F894DEBF0FBECDBFCF91DF911F910F9134
:101A1000FF90EF90DF90CF90BF90AF909F908F900E
:101A20007F906F905F904F903F902F9008958F928E
:101A3000AF92CF92DF92EF92FF920F931F9380E8C5
:101A400095E20CDD84EE90E0E7DC02D68DE061E00B
:101A50000E94F716FFD680E063E47FE042E020E0DA
:101A600003EE1BE05CE2E52E51E0F52EC12C30E8E0
:101A7000D32EAA24882413DC81E069EA7DE040E0CB
:101A800020E007EB1AE091E0C92ED12C08DC82E0BF
:101A900063EC7EE042E020E00BE819E0B2E0CB2E00
:101AA000D12CFDDB83E067E270E141E021E00FE54E
:101AB00018E0C12CA0E8DA2EF3E08F2EF0DB84E0F2
:101AC00063E47EE041E021E003E317E0E4E0CE2EB2
:101AD000D12C8824E4DB85E061E87DE040E020E073
:101AE00007E016E0C12C50E8D52E3AE0832ED7DB74
:101AF0001F910F91FF90EF90DF90CF90AF908F905C
:101B00000895F8942091DB053091DC054091DD05C6
:101B10005091DE056091E3057091E4058091E50543
:101B20009091E6057894620F731F841F951FD4D59A
:101B30008091DD03992787FD90958DD58091DC03F9
:101B40001AD680E090E460E042E6DEDA892BC9F63E
:101B500008950F931F93DF93CF93CDB7DEB70DB7E3
:101B60001EB785E090E06DE070E041E050E0BAD64D
:101B70002DB73EB7281B390B0FB6F8943EBF0FBEEA
:101B80002DBF8DB79EB7019665E070E04DE050E047
:101B900021E030E0C7D69093120D8093110D82E0C2
:101BA00090E09CD9F8948091E7059091E805A09188
:101BB000E905B091EA050196A11DB11D8093E705E5
:101BC0009093E805A093E905B093EA057894809195
:101BD000150D9091160D892B21F18091130D909187
:101BE000140D0ED7AC01009709F43BC08091150D80
:101BF0009091160D9C01D901FA018DE001900D9292
:101C00008150E1F78091110D9091120D23D7109220
:101C1000160D1092150D8091150D9091160D892BB2
:101C2000E1F68091110D9091120DA9D69093160DA9
:101C30008093150D009789F6F8948091F70590919F
:101C4000F805A091F905B091FA050196A11DB11D05
:101C50008093F7059093F805A093F905B093FA05E2
:101C6000789480E090E460E041E14EDA892B09F05D
:101C700099CF0FB6F8941EBF0FBE0DBFCF91DF9165
:101C80001F910F9108951F93CF93DF93F894809144
:101C9000E3059091E405A091E505B091E605019674
:101CA000A11DB11D8093E3059093E405A093E50584
:101CB000B093E605789480910F0D9091100DA0D609
:101CC000EC01009709F44CC01C85F8948091030640
:101CD00090910406A0910506B09106060196A11DFB
:101CE000B11D8093030690930406A0930506B0935C
:101CF00006067894CE016CE070E0EADB1817A9F0D4
:101D0000F8948091DD038F3729F08091DD038F5F98
:101D10008093DD0378948091170D9091180D0196B2
:101D20009093180D8093170DC6CF2881398180912B
:101D3000170D9091180D2817390759F0F8948091D4
:101D4000DD038F3729F08091DD038F5F8093DD0302
:101D500078942F5F3F4F3093180D2093170DABCF22
:101D60000E94FE016FE070E00E947F1E482F4F5FCF
:101D700080E090E860E0C8D9892B09F087CFDF9137
:101D8000CF911F9108951F93CF93DF93F894809183
:101D9000DB059091DC05A091DD05B091DE05019693
:101DA000A11DB11D8093DB059093DC05A093DD059B
:101DB000B093DE0578948091110D9091120D20D68C
:101DC000EC01009709F44CC01C85F8948091F30550
:101DD0009091F405A091F505B091F6050196A11D2D
:101DE000B11D8093F3059093F405A093F505B0938E
:101DF000F6057894CE016CE070E06ADB1817A9F064
:101E0000F8948091DD038F3729F08091DD038F5F97
:101E10008093DD0378948091190D90911A0D0196AD
:101E200090931A0D8093190DC6CF28813981809126
:101E3000190D90911A0D2817390759F0F8948091CF
:101E4000DD038F3729F08091DD038F5F8093DD0301
:101E500078942F5F3F4F30931A0D2093190DABCF1D
:101E60000E94FE016EE070E00E947F1E482F4F5FCF
:101E700080E090E860E048D9892B09F087CFDF91B6
:101E8000CF911F9108950F931F93DF93CF93CDB7F9
:101E9000DEB70DB71EB788E090E06DE070E041E07E
:101EA00050E020D52DB73EB7281B390B0FB6F8945C
:101EB0003EBF0FBE2DBF8DB79EB7019668E070E0A4
:101EC0004DE050E021E030E02DD59093140D80934B
:101ED000130D81E090E002D824C0F8948091EB05C6
:101EE0009091EC05A091ED05B091EE050196A11D34
:101EF000B11D8093EB059093EC05A093ED05B09395
:101F0000EE0578940E94FE016AE070E00E947F1E58
:101F1000482F4F5F80E090E860E0F6D8892B09F405
:101F200088C0F8948091D7059091D805A091D905E3
:101F3000B091DA050196A11DB11D8093D70590934C
:101F4000D805A093D905B093DA0578948091F00371
:101F5000882309F44AC00E94FE018093F3030E9483
:101F6000FE018093F4030E94FE018093F5030E941A
:101F7000FE018093F6030E94FE018093F7030E9406
:101F8000FE018093F8030E94FE018093F9030E94F2
:101F9000FE018093FA030E94FE018093FB030E94DE
:101FA000FE018093FC038091F1039091F20301966E
:101FB0009093F2038093F10381EF93E06CE070E083
:101FC00087DA482F8093FD032091EE033091EF03D1
:101FD0002115310551F0C90193700197A1F12150EC
:101FE00030403093EF032093EE038091130D9091D6
:101FF000140D61EF73E04DE050E06ED58093F00377
:10200000882309F06ACFF8948091EF059091F0054C
:10201000A091F105B091F2050196A11DB11D80932B
:10202000EF059093F005A093F105B093F205789435
:1020300069CF0FB6F8941EBF0FBE0DBFCF91DF91D1
:102040001F910F9108954F5F4093FD03C8CF0F93E9
:102050001F93DF93CF93CDB7DEB70DB71EB787E0E1
:1020600090E06DE070E041E050E03CD42DB73EB729
:10207000281B390B0FB6F8943EBF0FBE2DBF8DB78E
:102080009EB7019667E070E04DE050E021E030E05F
:1020900049D49093100D80930F0D84E090E00E943E
:1020A0006E071DC0F8948091FB059091FC05A091EE
:1020B000FD05B091FE050196A11DB11D8093FB05A4
:1020C0009093FC05A093FD05B093FE05789480E005
:1020D00090E860E041E018D8892B09F491C0F894A9
:1020E0008091DF059091E005A091E105B091E205B6
:1020F0000196A11DB11D8093DF059093E005A0938B
:10210000E105B093E20578948091E003882309F417
:102110004BC00E94FE018093E3030E94FE01809366
:10212000E4030E94FE018093E5030E94FE01809378
:10213000E6030E94FE018093E7030E94FE01809364
:10214000E8030E94FE018093E9030E94FE01809350
:10215000EA030E94FE018093EB030E94FE0180933C
:10216000EC038091E1039091E20301969093E203E6
:102170008093E10381EE93E06CE070E0A9D9482FF1
:102180008093ED032091DE033091DF0321153105AB
:1021900059F0C9019370019709F43CC021503040B7
:1021A0003093DF032093DE0380910F0D9091100D8B
:1021B00061EE73E04DE050E08FD48093E00388231C
:1021C00009F070CFF8948091FF0590910006A091DE
:1021D0000106B09102060196A11DB11D8093FF0575
:1021E00090930006A0930106B0930206789480E0D5
:1021F00090E860E041E00E948408892B09F06FCFED
:102200000FB6F8941EBF0FBE0DBFCF91DF911F9187
:102210000F9108954F5F4093ED03C0CFEF92FF926F
:102220000F931F93DF93CF93CDB7DEB761970FB6B0
:10223000F894DEBF0FBECDBFF82EE92E00D000D03F
:10224000EDB7FEB731968E010F5F1F4FADB7BEB72A
:1022500012961C930E9311978BEB93E093838283DA
:1022600081EC93E0958384830E9491028DB79EB7A1
:1022700006960FB6F8949EBF0FBE8DBF8F2D9E2D74
:1022800060E040E00E94431D8F2D9E2DB8010E940A
:10229000811C198AC80160E270E040E150E00E94B0
:1022A0001502D801E1EDF3E083E001900D92815039
:1022B000E1F78F2D9E2D60E041E00E94431D8F2DA0
:1022C0009E2DB8010E94811C6DE471E080E090E0D9
:1022D000C9D4C80160E270E040E150E00E941502FC
:1022E000DE011296E1EDF3E083E001900D92815062
:1022F000E1F78F2D9E2D60E041E00E94431D8F2D60
:102300009E2DB8010E94811C6DE471E080E090E098
:10231000A9D4C80160E270E040E150E00E941502DB
:10232000DE011396E1EDF3E083E001900D92815020
:10233000E1F78F2D9E2D60E041E00E94431D8F2D1F
:102340009E2DB8010E94811C6DE471E080E090E058
:1023500089D4C80160E270E040E150E00E941502BB
:10236000DE011496E1EDF3E083E001900D928150DF
:10237000E1F78F2D9E2D60E041E00E94431D8F2DDF
:102380009E2DB8010E94811C6DE471E080E090E018
:1023900069D4C80160E270E040E150E00E9415029B
:1023A000DE011596E1EDF3E083E001900D9281509E
:1023B000E1F78F2D9E2D60E041E00E94431D8F2D9F
:1023C0009E2DB8010E94811C6DE471E080E090E0D8
:1023D00049D4C80160E270E040E150E00E9415027B
:1023E000DE011696E1EDF3E083E001900D9281505D
:1023F000E1F78F2D9E2D60E041E00E94431D8F2D5F
:102400009E2DB8010E94811C6DE471E080E090E097
:1024100029D4C80160E270E040E150E00E9415025A
:10242000DE011796E1EDF3E083E001900D9281501B
:10243000E1F78F2D9E2D60E041E00E94431D8F2D1E
:102440009E2DB8010E94811C6DE471E080E090E057
:1024500009D4C80160E270E040E150E00E9415023A
:10246000DE011896E1EDF3E083E001900D928150DA
:10247000E1F78F2D9E2D60E041E00E94431D8F2DDE
:102480009E2DB8010E94811C6DE471E080E090E017
:10249000E9D3C80160E270E040E150E00E9415021B
:1024A000DE011996E1EDF3E083E001900D92815099
:1024B000E1F78F2D9E2D60E041E00E94431D8F2D9E
:1024C0009E2DB8010E94811C6DE471E080E090E0D7
:1024D000C9D3C80160E270E040E150E00E941502FB
:1024E000DE011A96E1EDF3E083E001900D92815058
:1024F000E1F78F2D9E2D60E041E00E94431D8F2D5E
:102500009E2DB8010E94811C6DE471E080E090E096
:10251000A9D3C80160E270E040E150E00E941502DA
:10252000DE011B96E1EDF3E083E001900D92815016
:10253000E1F78F2D9E2D60E041E00E94431D8F2D1D
:102540009E2DB8010E94811C6DE471E080E090E056
:1025500089D3C80160E270E040E150E00E941502BA
:10256000DE011C96E1EDF3E083E001900D928150D5
:10257000E1F78F2D9E2D60E041E00E94431D8F2DDD
:102580009E2DB8010E94811C6DE471E080E090E016
:1025900069D3C80160E270E040E150E00E9415029A
:1025A000DE011D96E1EDF3E083E001900D92815094
:1025B000E1F78F2D9E2D60E041E00E94431D8F2D9D
:1025C0009E2DB8010E94811C6DE471E080E090E0D6
:1025D00049D3C80160E270E040E150E00E9415027A
:1025E000DE011E96E1EDF3E083E001900D92815053
:1025F000E1F78F2D9E2D60E041E00E94431D8F2D5D
:102600009E2DB8010E94811C6DE471E080E090E095
:1026100029D3C80160E270E040E150E00E94150259
:102620008F2D9E2D60E041E00E94431D8F2D9E2D39
:10263000B8010E94811C61960FB6F894DEBF0FBEF0
:10264000CDBFCF91DF911F910F91FF90EF90089533
:102650008BE19DE0E3CDEF92FF920F931F93DF9309
:10266000CF9300D000D0CDB7DEB700D000D0EDB70B
:10267000FEB731967E010894E11CF11CADB7BEB7E0
:102680001296FC92EE9211972EE833E03383228368
:10269000958384830E9491028DB79EB706960FB6EC
:1026A000F8949EBF0FBE8DBF0BE11DE0C80164E032
:1026B00041E00E94431DC801B7010E94811C26967B
:1026C0000FB6F894DEBF0FBECDBFCF91DF911F9143
:1026D0000F91FF90EF900895EF92FF920F931F9349
:1026E000DF93CF93CDB7DEB72B970FB6F894DEBF4D
:1026F0000FBECDBF2DB73EB7285030400FB6F8946F
:102700003EBF0FBE2DBFEDB7FEB731967E010894D8
:10271000E11CF11CADB7BEB71296FC92EE92119778
:1027200022E933E03383228364837583868397832E
:102730000E9491022DB73EB7285F3F4F0FB6F89425
:102740003EBF0FBE2DBF0BE11DE0C80166E040E0BB
:102750000E94431DC801B7010E94811C2B960FB631
:10276000F894DEBF0FBECDBFCF91DF911F910F91C7
:10277000FF90EF900895EF92FF920F931F93DF93D6
:10278000CF9300D00F92CDB7DEB700D000D0EDB719
:10279000FEB731967E010894E11CF11CADB7BEB7BF
:1027A0001296FC92EE9211972AE833E0338322834B
:1027B00090E0019695958795958384830E94910278
:1027C0008DB79EB706960FB6F8949EBF0FBE8DBF0D
:1027D0000BE11DE0C8016CE041E00E94431DC8010F
:1027E000B7010E94811C0F900F900F900F90CF9116
:1027F000DF911F910F91FF90EF900895AF92BF92DC
:10280000CF92EF920F934BE1A42E4DE0B42EC50171
:1028100068E049E024E005E036E0E32EB7E0CB2EA7
:102820000E94141E82E095E090931C0D80931B0D76
:10283000C50160E142E020E00E94761DC5010E94D2
:102840002F1DC5010E94351D0F91EF90CF90BF90B5
:10285000AF9008950F931F93DF93CF93CDB7DEB75B
:1028600061970FB6F894DEBF0FBECDBF8E010F5F2C
:102870001F4FD801E8E9F3E081E101900D9281500A
:10288000E1F78BE19DE060E040E00E94431D8BE1B9
:102890009DE0B8010E94811C00D00F92EDB7FEB7F9
:1028A0001283018389EA93E0948383830E949102D7
:1028B0000F900F900F900F908BE19DE060E041E052
:1028C0000E94431D8BE19DE0B8010E94811C61962E
:1028D0000FB6F894DEBF0FBECDBFCF91DF911F9131
:1028E0000F9108950F931F93FC018B019A01CA0168
:1028F0000D96BA010E946B1EC901689F9001699FE5
:10290000300D789F300D112431960E9FC0010F9F1E
:10291000900D1E9F900D1124280F391FC9011F9182
:102920000F910895EF92FF920F931F93FC018B017B
:102930007A010F5F1F4F1383028301501040C901BA
:102940000D96B9010E946B1E629FC001639F900D9E
:10295000729F900D11248E0F9F1F9183808315838A
:10296000048317821682F186E08613861286148607
:102970001586CF011F910F91FF90EF900895FC01F4
:102980008485682F70E044815581228533856217E4
:102990007307A1F04F5F5F4F558344832F5F3F4F15
:1029A00033872287828193812817390780F3138622
:1029B0001286228533856217730761F7452BE1F094
:1029C0008585282F30E02F5F3F4F82819381281724
:1029D000390778F480859185289FA001299F500DA3
:1029E000389F500D112420813181240F351FC901DA
:1029F000089540E050E0F7CF20E030E0C9010895AD
:102A0000FC018485282F30E0858590E082179307AC
:102A1000E9F02F5F3F4F828193812817390790F4A7
:102A2000822F848780859185AC01249FC001259FDA
:102A3000900D349F900D112420813181280F391F72
:102A4000C901089520E030E080E0EBCF20E030E0E5
:102A5000C9010895FC018485682F70E04481558187
:102A60002285338562177307A1F04F5F5F4F55834F
:102A700044832F5F3F4F33872287828193812817BA
:102A8000390780F313861286228533856217730710
:102A900061F7452B51F08585282F30E02F5F3F4FA0
:102AA0008281938128173907A0F425878481958135
:102AB0000197958384832281338121503040281BE4
:102AC000390B868197818217930710F43783268309
:102AD000089520E030E0E9CFEF92FF920F931F932B
:102AE000CF93DF93EC017A01488559854E155F0538
:102AF000F8F08C85A82FB0E0EC81FD812A853B851C
:102B0000A217B30799F03196FD83EC832F5F3F4FF7
:102B10003B872A878A819B812817390788F31B8680
:102B20001A862A853B85A217B30769F7EF2B41F474
:102B300080E0DF91CF911F910F91FF90EF9008956A
:102B40008D85082F10E00F5F1F4F8A819B8108172A
:102B5000190768F5049FC001059F900D149F900D03
:102B6000112428813981280F391F2115310501F3DE
:102B7000C901A7010E940C020D878C819D810197DC
:102B80009D838C832A813B8121503040281B390B47
:102B90008E819F818217930710F43F832E8381E0FB
:102BA000DF91CF911F910F91FF90EF90089500E07A
:102BB00010E080E090E0D5CF1F920F920FB60F92F9
:102BC00011242F933F938F939F93AF93BF93809143
:102BD000340D9091350DA091360DB091370D309197
:102BE000380D0196A11DB11D232F2D5F2D3720F02B
:102BF0002D570196A11DB11D2093380D8093340DE2
:102C00009093350DA093360DB093370D8091300D14
:102C10009091310DA091320DB091330D0196A11D0F
:102C2000B11D8093300D9093310DA093320DB09370
:102C3000330DBF91AF919F918F913F912F910F9045
:102C40000FBE0F901F9018958FB7F8942091340DF8
:102C50003091350D4091360D5091370D8FBFB90130
:102C6000CA0108959B01AC017FB7F8948091300DA3
:102C70009091310DA091320DB091330D66B5A89BA6
:102C800005C06F3F19F00196A11DB11D7FBFBA2F7E
:102C9000A92F982F8827860F911DA11DB11D62E0D5
:102CA000880F991FAA1FBB1F6A95D1F7BC012DC0C1
:102CB000FFB7F8948091300D9091310DA091320DB5
:102CC000B091330DE6B5A89B05C0EF3F19F0019612
:102CD000A11DB11DFFBFBA2FA92F982F88278E0FD6
:102CE000911DA11DB11DE2E0880F991FAA1FBB1FF6
:102CF000EA95D1F7861B970B885E9340C8F2215066
:102D000030404040504068517C4F2115310541050D
:102D1000510571F60895019739F0880F991F880FB2
:102D2000991F02970197F1F70895789484B582600E
:102D300084BD84B5816084BD85B5826085BD85B55F
:102D4000816085BDEEE6F0E0808181608083E1E80E
:102D5000F0E0108280818260808380818160808346
:102D6000E0E8F0E0808181608083E1EBF0E0808149
:102D700084608083E0EBF0E0808181608083E1E922
:102D8000F0E0808182608083808181608083E0E9DF
:102D9000F0E0808181608083E1EAF0E08081826000
:102DA0008083808181608083E0EAF0E080818160BF
:102DB0008083E1E2F1E080818260808380818160B4
:102DC0008083E0E2F1E0808181608083EAE7F0E0E7
:102DD0008081846080838081826080838081816043
:102DE00080838081806880831092C1000895CF9392
:102DF000DF93482F50E0CA018D589D4FFC0134915C
:102E0000435D5D4FFA018491882369F190E0880F5A
:102E1000991FFC01E152FE4FA591B491FC01E750CE
:102E2000FE4FC591D491662351F42FB7F8948C913D
:102E3000932F909589238C93888189230BC06230CE
:102E400061F42FB7F8948C91932F909589238C93EC
:102E50008881832B88832FBF06C09FB7F8948C91FD
:102E6000832B8C939FBFDF91CF910895893009F414
:102E700049C08A30A0F4843051F1853040F482306A
:102E800079F1833000F5813009F063C026C08730C6
:102E900079F1883098F5863009F05BC025C08D3017
:102EA00009F442C08E3028F48B30B1F18C30C0F57B
:102EB0002DC0803109F442C0813109F445C08F3002
:102EC00009F047C037C0809180008F7703C08091A0
:102ED00080008F7D80938000089584B58F7702C035
:102EE00084B58F7D84BD08958091B0008F7703C035
:102EF0008091B0008F7D8093B00008958091900004
:102F00008F7707C0809190008F7D03C080919000E3
:102F1000877F8093900008958091A0008F7707C0ED
:102F20008091A0008F7D03C08091A000877F809357
:102F3000A0000895809120018F7703C08091200127
:102F40008F7D80932001089580912001877F809359
:102F500020010895FF920F931F93F62E482F50E003
:102F6000CA0187549D4FFC012491CA018D589D4F81
:102F7000FC011491435D5D4FFA0104910023C1F0FF
:102F8000222311F0822F72DFE02FF0E0EE0FFF1FFF
:102F9000E750FE4FA591B4919FB7F894FF2021F41C
:102FA0008C911095812302C08C91812B8C939FBFB3
:102FB0001F910F91FF9008951F920F920FB60F92DD
:102FC0000BB60F9211242F933F934F938F939F93A0
:102FD000EF93FF938091C00082FD1DC04091C60019
:102FE0002091790D30917A0D2F5F3F4F2F73307004
:102FF00080917B0D90917C0D2817390771F0E0913D
:10300000790DF0917A0DE75CF24F408330937A0DA1
:103010002093790D02C08091C600FF91EF919F919E
:103020008F914F913F912F910F900BBE0F900FBE3C
:103030000F901F9018951F920F920FB60F920BB61C
:103040000F9211242F933F934F938F939F93EF935E
:10305000FF938091C80082FD1DC04091CE00209159
:10306000010E3091020E2F5F3F4F2F733070809111
:10307000030E9091040E2817390771F0E091010EAC
:10308000F091020EEF53F24F40833093020E2093E3
:10309000010E02C08091CE00FF91EF919F918F9120
:1030A0004F913F912F910F900BBE0F900FBE0F903D
:1030B0001F9018951F920F920FB60F920BB60F929A
:1030C00011242F933F934F938F939F93EF93FF93ED
:1030D0008091D00082FD1DC04091D6002091890EC4
:1030E00030918A0E2F5F3F4F2F73307080918B0E7F
:1030F00090918C0E2817390771F0E091890EF091AC
:103100008A0EE75BF14F408330938A0E2093890E3D
:1031100002C08091D600FF91EF919F918F914F91C6
:103120003F912F910F900BBE0F900FBE0F901F90ED
:1031300018951F920F920FB60F920BB60F92112493
:103140002F933F934F938F939F93EF93FF93809190
:10315000300182FD1DC0409136012091110F309148
:10316000120F2F5F3F4F2F7330708091130F90918C
:10317000140F2817390771F0E091110FF091120F19
:10318000EF52F14F40833093120F2093110F02C082
:1031900080913601FF91EF919F918F914F913F91D7
:1031A0002F910F900BBE0F900FBE0F901F90189590
:1031B0001F920F920FB60F920BB60F9211242F93FE
:1031C0003F938F939F93EF93FF932091BD0D309189
:1031D000BE0D8091BF0D9091C00D2817390731F4B5
:1031E0008091C1008F7D8093C10014C0E091BF0D1C
:1031F000F091C00DE358F24F20818091BF0D909166
:10320000C00D01968F7390709093C00D8093BF0D89
:103210002093C600FF91EF919F918F913F912F9145
:103220000F900BBE0F900FBE0F901F9018951F921E
:103230000F920FB60F920BB60F9211242F933F935C
:103240008F939F93EF93FF932091450E3091460EFD
:103250008091470E9091480E2817390731F48091DC
:10326000C9008F7D8093C90014C0E091470EF09192
:10327000480EEB5FF14F20818091470E9091480EF0
:1032800001968F7390709093480E8093470E209311
:10329000CE00FF91EF919F918F913F912F910F90D1
:1032A0000BBE0F900FBE0F901F9018951F920F929C
:1032B0000FB60F920BB60F9211242F933F938F935B
:1032C0009F93EF93FF932091CD0E3091CE0E80917E
:1032D000CF0E9091D00E2817390731F48091D1008C
:1032E0008F7D8093D10014C0E091CF0EF091D00E6D
:1032F000E357F14F20818091CF0E9091D00E01962F
:103300008F7390709093D00E8093CF0E2093D60041
:10331000FF91EF919F918F913F912F910F900BBE55
:103320000F900FBE0F901F9018951F920F920FB61F
:103330000F920BB60F9211242F933F938F939F936D
:10334000EF93FF932091550F3091560F8091570FB7
:103350009091580F2817390731F4809131018F7DF2
:103360008093310114C0E091570FF091580FEB5E3C
:10337000F04F20818091570F9091580F01968F73D5
:1033800090709093580F8093570F20933601FF91C0
:10339000EF919F918F913F912F910F900BBE0F90C6
:1033A0000FBE0F901F901895AF92BF92DF92EF92D1
:1033B000FF920F931F93CF93DF93EC017A018B0160
:1033C000DD24403081EE580780E0680780E0780710
:1033D00011F0DD24D39491E0A92EB12CEC89FD8964
:1033E000DD2069F0C50108A002C0880F991F0A946A
:1033F000E2F7808360E079E08DE390E005C0108221
:1034000060E874E88EE190E0A80197018BD4215028
:10341000304040405040569547953795279580E17C
:103420002030380720F0DD2011F0DD24D7CFE889E7
:10343000F9893083EA89FB89208319A2EE89FF8903
:10344000408121E030E0C9010C8C02C0880F991F37
:103450000A94E2F7482B4083EE89FF894081C90135
:103460000D8C02C0880F991F0A94E2F7482B408305
:10347000EE89FF894081C9010E8C02C0880F991F17
:103480000A94E2F7482B4083EE89FF8980810F8CF4
:1034900002C0220F331F0A94E2F7209528232083CD
:1034A000DF91CF911F910F91FF90EF90DF90BF9030
:1034B000AF900895DC011C96ED91FC911D97E05CA6
:1034C000FF4F8191919120813181805C9F4F821BC0
:1034D000930B60E470E013C4DC011C96ED91FC9149
:1034E0001D97E05CFF4F20813181E054F040DF0107
:1034F000AE5BBF4F8D919C9111972817390719F436
:103500002FEF3FEF07C08D919C91E80FF91F80814D
:10351000282F30E0C9010895DC011C96ED91FC9143
:103520001D97E05CFF4F20813181E054F040DF01C6
:10353000AE5BBF4F8D919C9111972817390719F4F5
:103540002FEF3FEF10C08D919C911197E80FF91F5D
:1035500020818D919C91119701968F739070119697
:103560009C938E9330E0C9010895DC0191968C9173
:103570009197882339F05496ED91FC91559780816D
:1035800086FFF9CF91961C920895CF93DF93EC01BB
:10359000EE85FF85E05CFF4F20813181E054F040F3
:1035A0002F5F3F4F2F733070DF01AE5BBF4F8D91A8
:1035B0009C91119728173907D1F3E05CFF4F808168
:1035C0009181E054F040E80FF91F6083EE85FF859C
:1035D000E05CFF4F31832083EE89FF89208181E009
:1035E00090E00F8C02C0880F991F0A94E2F7282BF5
:1035F000208381E089A3EC89FD89808180648083B8
:1036000081E090E0DF91CF9108951F9310925C0FBD
:1036100010925B0F28EE33E040E050E020935D0F06
:1036200030935E0F40935F0F5093600F6AE075E038
:1036300070935A0F6093590F89E39DE09093660F42
:103640008093650F8DE79DE09093680F8093670FDF
:1036500085EC90E090936A0F8093690F84EC90E082
:1036600090936C0F80936B0F80EC90E090936E0FB3
:1036700080936D0F81EC90E09093700F80936F0FAB
:1036800082EC90E09093720F8093710F86EC90E043
:103690009093740F8093730F14E01093750FB3E041
:1036A000B093760FA7E0A093770FF5E0F093780F33
:1036B000E1E0E093790F10927E0F10927D0F20933E
:1036C0007F0F3093800F4093810F5093820F709340
:1036D0007C0F60937B0F81EC9DE09093880F80932B
:1036E000870F85E09EE090938A0F8093890F8DEC81
:1036F00090E090938C0F80938B0F8CEC90E09093E4
:103700008E0F80938D0F88EC90E09093900F8093B4
:103710008F0F89EC90E09093920F8093910F8AEC39
:1037200090E09093940F8093930F8EEC90E09093A1
:10373000960F8093950F1093970FB093980FA093C7
:10374000990FF0939A0FE0939B0F1092A00F109295
:103750009F0F2093A10F3093A20F4093A30F50937C
:10376000A40F70939E0F60939D0F89E49EE0909349
:10377000AA0F8093A90F8DE89EE09093AC0F8093E1
:10378000AB0F85ED90E09093AE0F8093AD0F84ED7D
:1037900090E09093B00F8093AF0F80ED90E0909306
:1037A000B20F8093B10F81ED90E09093B40F8093AE
:1037B000B30F82ED90E09093B60F8093B50F86ED36
:1037C00090E09093B80F8093B70F1093B90FB09318
:1037D000BA0FA093BB0FF093BC0FE093BD0F1092F4
:1037E000C20F1092C10F2093C30F3093C40F4093A8
:1037F000C50F5093C60F7093C00F6093BF0F81ED3C
:103800009EE09093CC0F8093CB0F85E19FE0909347
:10381000CE0F8093CD0F85E391E09093D00F8093EE
:10382000CF0F84E391E09093D20F8093D10F80E388
:1038300091E09093D40F8093D30F81E391E0909324
:10384000D60F8093D50F82E391E09093D80F8093A9
:10385000D70F86E391E09093DA0F8093D90F1093FE
:10386000DB0FB093DC0FA093DD0FF093DE0FE0933E
:10387000DF0F1F910895CF92DF92EF92FF920F9387
:103880001F93CF93DF937C016B018A01C0E0D0E0EE
:103890000FC0D6016D916D01D701ED91FC910190A2
:1038A000F081E02DC7011995C80FD91F01501040B4
:1038B0000115110571F7CE01DF91CF911F910F9185
:1038C000FF90EF90DF90CF900895CF93DF93EC01BE
:1038D0006115710519F420E030E00FC0DB010D9097
:1038E0000020E9F71197A61BB70BE881F981028048
:1038F000F381E02DAD0119959C01C901DF91CF91B4
:103900000895E3CF08950F931F938C01FC018681E6
:1039100060E020DB81E090E0FED9F801868161E083
:1039200019DB81E090E0F7D9F801868160E012DBD5
:1039300084E690E0F0D91F910F910895CF92DF9225
:10394000EF92FF920F931F93CF93DF93D82EC92E40
:10395000282F392FC9018C01C0E0D0E0E62EFF24CA
:10396000F801878161E043DAB7010C2E02C075953A
:1039700067950A94E2F76170F8018781EBDA219686
:103980000F5F1F4FC830D10559F78D2D9C2DBBDF20
:10399000DF91CF911F910F91FF90EF90DF90CF902B
:1039A0000895CF92DF92EF92FF920F931F93CF93E0
:1039B000DF93D82EC92E282F392FC9018C01C0E0E2
:1039C000D0E0E62EFF24F801878161E010DAB7012C
:1039D0000C2E02C0759567950A94E2F76170F801A4
:1039E0008781B8DA21960F5F1F4FC430D10559F790
:1039F0008D2D9C2D88DFDF91CF911F910F91FF902E
:103A0000EF90DF90CF9008951F93CF93DF93EC0159
:103A1000162F8C81642F9EDA8D818F3F11F060E02C
:103A200099DA8F8584FF04C0CE01612F87DF0CC037
:103A3000612F70E084E0759567958A95E1F7CE0176
:103A4000B0DFCE01612FADDFDF91CF911F910895DF
:103A500041E0DADF81E090E0089540E0D5CFFC015D
:103A600060896E7F608B6860F8CFFC0160896D7F34
:103A7000608B6860F2CFFC016089862F8460808B48
:103A80006C60CF01EACFDF93CF93CDB7DEB7289735
:103A90000FB6F894DEBF0FBECDBF9C01FE0131967C
:103AA000AEE1B5E088E00D9001928150E1F7F901B7
:103AB0008389481710F0482F4150E42FF0E0EE0FB3
:103AC000FF1FEC0FFD1F8181680F6068C901C5DF12
:103AD00028960FB6F894DEBF0FBECDBFCF91DF9111
:103AE000089561E0BADF80ED97E015C9CF93DF93C9
:103AF000EC01423018F08F8588608F874B8B1C8AD1
:103B0000222329F0413019F48F8584608F8780E566
:103B100093EC01D98C8160E01DDA8E8160E01ADAC5
:103B20008D818F3F11F060E015DA6F8564FD16C05E
:103B3000CE0163E036DF84E991E1EDD8CE0163E0A8
:103B400030DF84E991E1E7D8CE0163E02ADF86E93E
:103B500090E0E1D8CE0162E024DF11C06062CE01C6
:103B60007CDF84E991E1D7D86F856062CE0175DF93
:103B700086E990E0D0D86F856062CE016EDF6F85F8
:103B80006062CE016ADF84E0888BCE0174DFCE01F3
:103B9000A8DF82E0898BCE0166E05FDFDF91CF9105
:103BA00008956F927F928F92AF92CF92EF920F9380
:103BB0001F93DF93CF93CDB7DEB73C01162F842F31
:103BC000F301448325830683E782C086A18682862B
:103BD0009E8593879F8594879889958799899687ED
:103BE00061E005D9F30185818F3F11F061E0FFD8D5
:103BF000F301868161E0FBD8112319F0F3011786E8
:103C000003C080E1F3018787C30160E141E020E068
:103C10006DDFCF91DF911F910F91EF90CF90AF901B
:103C20008F907F906F9008958F92AF92CF92EF9286
:103C30000F931F93CF93DF93DC01362F542F722FF6
:103C4000102FAE2C8C2C13961C921E9212978AE188
:103C500095E011969C938E9300D00F92EDB7FEB72E
:103C60003196CDB7DEB71982118212821382CD014F
:103C700061E0432F2FEF052FE72EC12E92DF0F902B
:103C80000F900F900F90DF91CF911F910F91EF90B8
:103C9000CF90AF908F900895629FD001739FF001F5
:103CA000829FE00DF11D649FE00DF11D929FF00DCC
:103CB000839FF00D749FF00D659FF00D9927729F03
:103CC000B00DE11DF91F639FB00DE11DF91FBD018E
:103CD000CF0111240895AA1BBB1B51E107C0AA1FE5
:103CE000BB1FA617B70710F0A61BB70B881F991F9D
:103CF0005A95A9F780959095BC01CD01089597FB41
:103D0000092E07260AD077FD04D0E5DF06D0002073
:103D10001AF4709561957F4F0895F6F79095819507
:103D20009F4F0895A1E21A2EAA1BBB1BFD010DC0D7
:103D3000AA1FBB1FEE1FFF1FA217B307E407F5075B
:103D400020F0A21BB30BE40BF50B661F771F881F37
:103D5000991F1A9469F760957095809590959B01CD
:103D6000AC01BD01CF010895EE0FFF1F0590F49146
:103D7000E02D199497FB092E05260ED057FD04D08F
:103D8000D1DF0AD0001C38F450954095309521952C
:103D90003F4F4F4F5F4F0895F6F790958095709580
:103DA00061957F4F8F4F9F4F08952F923F924F9273
:103DB0005F926F927F928F929F92AF92BF92CF92BB
:103DC000DF92EF92FF920F931F93CF93DF93CDB7C4
:103DD000DEB7CA1BDB0B0FB6F894DEBF0FBECDBF3C
:103DE00019942A88398848885F846E847D848C84FD
:103DF0009B84AA84B984C884DF80EE80FD800C8116
:103E00001B81AA81B981CE0FD11D0FB6F894DEBFF8
:0C3E10000FBECDBFED010895F894FFCF68
:103E1C000A525475696E4F532069732069646C653E
:103E2C0000435055206C6F61643A20257520252580
:103E3C000A005461736B20636F756E74733A0A20B9
:103E4C002050726F647563657220486967683A2008
:103E5C00256C750A202052656C61793A202020204F
:103E6C002020202020256C750A2020436F6E73754E
:103E7C006D657220486967683A20256C750A2020A8
:103E8C0050726F6475636572204D65643A2020250D
:103E9C006C750A2020436F6E73756D6572204D65CD
:103EAC00643A2020256C750A004576656E74733A69
:103EBC000A202044617461206572726F72733A201B
:103ECC0020202025690A20205772697474656E20A1
:103EDC0048324C3A20202020256C750A2020517540
:103EEC006575652066756C6C2048324C3A20256CE3
:103EFC00750A202052656164204C32483A202020FB
:103F0C0020202020256C750A2020517565756520B0
:103F1C0066756C6C204C32483A20256C750A202052
:103F2C005772697474656E204D324D3A20202020F2
:103F3C00256C750A202051756575652066756C6C4D
:103F4C00204D324D3A20256C750A20205265616453
:103F5C00204D324D3A20202020202020256C750A3F
:103F6C00005461736B2025753A20556E757365642A
:103F7C0020737461636B206172656120257520422A
:103F8C007974652C206F76657272756E20636F750F
:103F9C006E7465723A2025750A0025337500253537
:103FAC0069002531306C75004379633A202020205C
:103FBC002020202020202030004572723A20202022
:103FCC00203020433A202030252500252D31367312
:103FDC0000546872656164536166655175657565F9
:103FEC00002A2A2A0001000000FF9A05C8ECFF23D2
:103FFC000116000000000000000000000000FF2778
:10400C0001FFFF0000000000000000000000001D88
:10401C003A2774694E53E8F5D2CF9C81A6BBCDD01C
:10402C00F7EAB9A4839E25381F02514C6B76879A08
:10403C00BDA0F3EEC9D46F7255481B06213C4A57FC
:10404C00706D3E230419A2BF9885D6CBECF1130EEC
:10405C002934677A5D40FBE6C1DC8F92B5A8DEC3DC
:10406C00E4F9AAB7908D362B0C11425F78659489D0
:10407C00AEB3E0FDDAC77C61465B0815322F5944BC
:10408C00637E2D30170AB1AC8B96C5D8FFE2263B68
:10409C001C01524F6875CED3F4E9BAA7809DEBF69C
:1040AC00D1CC9F82A5B8031E3924776A4D50A1BC90
:1040BC009B86D5C8EFF24954736E3D20071A6C717C
:1040CC00564B1805223F8499BEA3F0EDCAD735286C
:1040DC000F12415C7B66DDC0E7FAA9B4938EF8E55C
:1040EC00C2DF8C91B6AB100D2A3764795E43B2AF48
:1040FC008895C6DBFCE15A47607D2E3314097F623C
:10410C0045580B16312C978AADB0E3FED9C400008C
:10411C000000281D3B1C00000000C51A3B1C5A1A4D
:10412C008C1A6C1AB51A00000000281D3B1C0000EC
:06413C00400014005400D5
:00000001FF
